:1008DA00440200C0A8010A44023EC0A80101440221
:1008EA002FFFFFFF00440227C0A8016442023C0315
:1008FA00E8420244138844022BC0A801644202461B
:10090A001770440233C0A801644202420BB8420283
:0E091A00481B58440237C0A8016441023BE26A
:070FAE007FFA120FB57FFA74
:070FB500AE071FEE70FA22E7
:100F2000AD07AF051DEF6008120FAE120FAE80F2D5
:010F3000229E
:09100D00D29475D55C43AA0822B7
:0D0FCA008F86E5AA30E7FB53AA7FAF862291
:030F6300E4FCFBB0
:0C0F6600D294C294120FCA7F02020FB591
:100BC70090024AE0FBA3E475F001120124A9F0FAB0
:100BD7001200F9FF120BF290024AE0FBA3E475F052
:0B0BE70001120124A9F0FA1200F9FF2E
:030BF200020FCA25
:080FBC00120F66AF05120BF2E3
:050FC4007FFF120FCABF
:010FC9002205
:081016007F05120F66D294223F
:08101E007F03120F66D2942239
:0A0FD7007F01120F66120FC4D294BE
:010FE10022ED
:02100300AD0737
:071005007F06120FBCD2941C
:01100C0022C1
:0F0F7200AD077F20120F66AF05120BF2D294224B
:0A0FE2007F26120F66120FC4D2948E
:010FEC0022E2
:0A0FED007F29120F66120FC4D29480
:010FF70022D7
:100BF500E490024AF0FD7F27120F66D2947F0A1215
:100C05000F20120F58AD07EDB4101090024AE0FF07
:0D0C150004F0EFD394C840E57FFA22AF054C
:010C220022AF
:100A92009002981201767F02120F66900298A3A329
:100AA200A3E0FF120BF2900298A3A3E0FEEEFF1266
:100AB2000BF2900298E0FCA3E0FDA3E0FEA3E0FFAE
:0B0AC2007810120150120BF2D29422A7
:050F53007F05120F20D4
:0A0F58007F2C120F66120FC4D29412
:010F6200226C
:0B0D840090024AEBF0A3EAF0A3E9F0B4
:100D8F007F22120F66E4FE90024A120BE10EEEB4C0
:040D9F0004F5D294F1
:010DA300222D
:0B0DA40090024AEBF0A3EAF0A3E9F094
:100DAF007F23120F66E4FE90024A120BE10EEEB49F
:040DBF0004F5D294D1
:010DC300220D
:0B0DC40090024AEBF0A3EAF0A3E9F074
:100DCF007F24120F66E4FE90024A120BE10EEEB47E
:040DDF0004F5D294B1
:010DE30022ED
:0B0D3F009002A0EBF0A3EAF0A3E9F0A3
:100D4A007F21120F66E4FE9002A0120BE10EEEB4B0
:090D5A0006F5D2947F64020F201B
:0B0B05009002A3EBF0A3EAF0A3E9F0DC
:100B10007F40120F66E4FE120FC49002A3E0FBA315
:100B2000E475F001120124A9F0FAEF1201120EEEA1
:050B3000B406E4D294BC
:010B3500229D
:10064500AD077F25120F66AF05120BF2900284A34A
:10065500A3A3E0FF120BF2900284A3A3E0FEEEFF3A
:10066500120BF2900284E0FCA3E0FDA3E0FEA3E000
:10067500FF7810120150120BF2900284E0FCA3E007
:10068500FDA3E0FEA3E0FF7818120150120BF2A3C0
:10069500A3A3A3E0FF120BF2900288A3A3E0FEEE52
:1006A500FF120BF2900288E0FCA3E0FDA3E0FEA39D
:1006B500E0FF7810120150120BF2900288E0FCA3C3
:1006C500E0FDA3E0FEA3E0FF7818120150120BF243
:0306D500D294229A
:0B0B3600900256EBF0A3EAF0A3E9F0F8
:100B41007F28120F66E4FE120FC4900256E0FBA349
:100B5100E475F001120124A9F0FAEF1201120EEE70
:050B6100B408E4D29489
:010B6600226C
:0D0ACD0090025CEBF0A3EAF0A3E9F0AD07A6
:100ADA007F2D120F66AF05120BF2E4FE120FC490BF
:100AEA00025CE0FBA3E475F001120124A9F0FAEF1D
:0A0AFA001201120EEEB406E4D294CD
:010B040022CE
:100DE40090024AEBF0A3EAF0A3E9F0AD077F3112D9
:100DF4000F66AF05120BF2120BC7120BC7D2942267
:100EBF00AC077F34120F66AF04120BF2AF05120BA3
:040ECF00F2D29422A5
:100E1F00AB077F32120F66AF03120BF2AF05120B47
:090E2F00F2ECFF120BF2D2942246
:100E3800AB077F33120F66AF03120BF2AF05120B2D
:090E4800F2ECFF120BF2D294222D
:100ED300AC077F3E120F66AF04120BF2AF05120B85
:040EE300F2D2942291
:0F0F8100AD077F3F120F66AF05120BF2D294221D
:0D0A0C0090025DEBF0A3EAF0A3E9F0AD0766
:100A19007F39120F66AF05120BF2A3A3E0FF120B89
:100A2900F2900260E0FF120BF2E4FDFCD390026148
:100A3900E09D900260E09C400D90025D120BE10D7B
:080A4900BD00010C80E6D2940F
:010A51002282
:020E0400AD0738
:100E06007F3B120FBCAD077C00120FC4EFFEE42D32
:080E1600FDEC3ED294FEAF0595
:010E1E0022B1
:0F0F9000AD077F2E120F66AF05120BF2D294221F
:0B07DC0090025CEFF0A3ECF0A3EDF046
:1007E7004C60487F3C120F6690025CE0FF120BF2F0
:1007F700A3A3E0FF120BF290025DE0FF120BF27F62
:1008070001120FB5E4FDFCD390025EE09D90025DFE
:10081700E09C4015120FC4EF120112740129F9E48C
:0B0827003AFA0DBD00010C80DED294F7
:0108320022A3
:0F0F9F00AD077F2A120F66AF05120BF2D2942214
:100E6800AD07AC067F2A120F66AF05120BF2ECFF36
:060E7800120BF2D29422DD
:100A52009002A6EBF0A3EAF0A3E9F0AD077F2F1214
:100A62000FBC9002A6E0FBA3E475F001120124A9D9
:100A7200F0FAEF120112120FC49002A6E0FBA3E4F7
:100A820075F001120124A9F0FAEF120112D2942298
:020CF300AD074B
:100CF5007F35120F63AF05120BF2D294120F53AB6F
:100D050007EBB4100CAF040CEFD394C840EE7FFA98
:030D150022AF0307
:010D180022B8
:020D1900AD0724
:100D1B007F3D120F63AF05120BF2D294120F53AB40
:100D2B0007EBB4100CAF040CEFD394C840EE7FFA72
:030D3B0022AF03E1
:010D3E002292
:020C4F00AD07EF
:100C5100E4FCFB7F37120F66AF05120BF2D2941240
:100C61000F53AB07EBB4100CAF040CEFD394C84097
:060C7100EE7FFA22AF0342
:010C7700225A
:020C7800AD07C6
:100C7A00E4FCFB7F36120F66AF05120BF2D2941218
:100C8A000F53AB07EBB4100CAF040CEFD394C8406E
:060C9A00EE7FFA22AF0319
:010CA0002231
:020CA100AD079D
:100CA300E4FCFB7F38120F66AF05120BF2D29412ED
:100CB3000F53AB07EBB4100CAF040CEFD394C84045
:060CC300EE7FFA22AF03F0
:010CC9002208
:020E5100AD07EB
:100E53007F30120F66AF05120BF27F02120FB5122D
:040E63000FC4D29452
:010E67002268
:0B01DF00900262EBF0A3EAF0A3E9F04D
:1001EA0090026D12018204C11DB790027112018240
:1001FA00FFFFFFFF90026512018200000000E47F0A
:10020A0006FEFDFC900265E0F8A3E0F9A3E0FAA37C
:10021A00E0FBC312013A4003020332900262E0FBA0
:10022A00A3E475F001120124A9F0FA1200F9900270
:10023A0075F090026912018200000000E47F08FE56
:10024A00FDFC900269E0F8A3E0F9A3E0FAA3E0FB61
:10025A00C312013A400302030A900271E0FCA3E0D0
:10026A00FDA3E0FEA3E0FF781F120150A905AA062C
:10027A00AB07A3E0FFEB6FFFEF5401FFEF601890AD
:10028A00026DE0FCA3E0FDA3E0FEA3E0FFC004C012
:10029A0005C006C007800DE4FBFAF9F8C000C001EA
:1002AA00C002C003900271E0FCA3E0FDA3E0FEA33C
:1002BA00E0FF7801120163D003D002D001D000EF31
:1002CA006BFFEE6AFEED69FDEC68FC9002711201AB
:1002DA0076900275E0C313F0900269E0FCA3E0FD9A
:1002EA00A3E0FEA3E0FFE4FAF9F8EF2401FFEA3EF7
:1002FA00FEE93DFDE83CFC900269120176020246E5
:10030A00900265E0FCA3E0FDA3E0FEA3E0FFE4FAAF
:10031A00F9F8EF2401FFEA3EFEE93DFDE83CFC90D6
:10032A000265120176020208900271E0FCA3E0FD68
:10033A00A3E0FEA3E0FF781A1201509002711201A5
:09034A0076900271A3A3A3E0FF69
:010353002287
:020CCA00AD0774
:100CCC00E4FC7F41120F66AF05120BF2D2947F1435
:100CDC00120F20120F58EFB4100CAE040CEED3947C
:060CEC00C840EB7FFA2274
:010CF20022DF
:0A0FF8007F42120F66120FC4D2945C
:0110020022CB
:0B0B67009002A9EBF0A3EAF0A3E9F074
:100B72007F43120F66E4FE120FC49002A9E0FBA3AA
:100B8200E475F001120124A9F0FAEF1201120EEE3F
:050B9200B414E4D2944C
:010B9700223B
:100F3100AC077FED120F66AF04120BF2AF05020B87
:010F4100F2BD
:020EAA00AD0792
:100EAC007FEC120F66AF05120BF27F01120F2012AE
:020EBC000FC461
:010EBE002211
:100EE7007FE9120F667F14120F20120F58EF64105C
:020EF70060F3A6
:010EF90022D6
:0F08870090028EEBF0A3EAF0A3E9F0AD07AC0608
:100896007FEA120F66AF05120BF2ECFF120BF2A302
:1008A600E0801D900291E0FF14F0EF601990028E37
:1008B600E0FBA3E475F001120124A9F0FA1200F995
:1008C600FF120BF280DD7F14120F20120F58EF6417
:0308D6001060F3BC
:0108D90022FC
:10097700900294EBF0A3EAF0A3E9F0AD07AC067F91
:10098700EB120F66AF05120BF2ECFF120BF2A3E0AE
:10099700FF120BF27F01120F20900297E0FF14F075
:1009A700EF6019120FC4900294E0FBA3E475F00105
:0D09B700120124A9F0FAEF12011280DD22D6
:100EFA00AD07AC067F50120F66AF05120BF2ECFF7E
:030F0A00020BF2E5
:100E7E00AC077F52120F66AF04120BF2AF05120BC6
:060E8E00F2AF03020BF2BB
:100E9400AC077F53120F66AF04120BF2AF05120BAF
:060EA400F2AF03020BF2A5
:10083300900276EBF0A3EAF0A3E9F0A3120176901D
:100843000282E0FF90027DE0FBA3E0FAA3E0F9124D
:100853000DE4900282E0FF900280E0FCA3E0FD1231
:100863000E1F900276E0FBA3E0FAA3E0F9A3A3A393
:10087300E0FFA3E0900260CFF0A3EFF0900282E0EC
:04088300FF020A0C5A
:1009290090029C1201767F55120F6690029CA3A338
:10093900A3E0FF120BF290029CA3A3E0FEEEFF12CC
:100949000BF290029CE0FCA3E0FDA3E0FEA3E0FF14
:100959007810120150120BF290029CE0FCA3E0FD0A
:0E096900A3E0FEA3E0FF7818120150020BF28B
:100D63007F19120F667F02120FB5120FC4AD077CF5
:100D730000120FC4EFFEE42DFDEC3ED294FEAF054E
:010D8300224D
:030F0D00120CF3D0
:100F1000EF600C7FC8120F207FC8120F2080F422D0
:1009C4007E007F237D007B017A0279041201B378D3
:1009D400047C027D017B017A0279007E007F04128F
:1009E40000D378087C027D017B017A02793E7E0087
:1009F4007F041200D3780C7C027D017B017A02799A
:080A04002F7E007F040200D3E5
:1004B7007E007F1C7D007B017A0179901201B37861
:1004C700907C017D017B017A0279277E007F0412EF
:1004D70000D390023CE0FFA3E09001A1CFF0A3EF8F
:1004E700F0900244E0FFA3E09001A3CFF0A3EFF068
:1004F70090019A7402F07E007F1C7D007B017A01D7
:1005070079AC1201B3900246E0FFA3E09001BFCFA0
:10051700F0A3EFF09001B67403F09001B87401F006
:100527007E007F1C7D00FB7A0179C81201B378C871
:100537007C017D017B017A0279337E007F04120002
:10054700D3900242E0FFA3E09001D9CFF0A3EFF0F0
:10055700900248E0FFA3E09001DBCFF0A3EFF0901B
:1005670001D27403F0E49001D4F0FE7F1CFD7B01FF
:100577007A0179E41201B378E47C017D017B017A89
:100587000279377E007F041200D3E49001EEF02257
:100597007B017A017990E4FF120DE47D02E4FF12FA
:1005A7000EBF9001A1E0FCA3E0FDE4FF120E1FA324
:1005B700E0FCA3E0FDE4FF120E38E4FF120F0D7D0F
:1005C700037F01120EBF9001BFE0FCA3E0FD7F0196
:1005D700120E387F01120F0D7F01120C78120F10C7
:1005E7007B017A0179C87F02120DE47D037F021235
:1005F7000EBF9001D9E0FCA3E0FD7F02120E1FA3FE
:10060700E0FCA3E0FD7F02120E387F02120CF3120A
:100617000F107F02120C4F120F107B017A0179E441
:100627007F03120DE4E4FD7F03120EBF90023BE04F
:0E063700FD7F03120ED37F03120CF3020F108F
:05035400900256EFF0DD
:10035900120E51A3EFF0900257E020E20302044588
:10036900900256E0FF120E04900258EEF0A3EFF04F
:100379004E70030204B6D3900259E0946490025877
:10038900E094004006E4F0A37464F0900256E0752E
:10039900F064A42400F9740035F0FA7B01E0FF90C1
:1003A9000258E0FCA3E0FD1207DCE490025AF0A336
:1003B900F0900258E0FEA3E0FFC390025BE09F903B
:1003C900025AE09E5050E0FEA3E0FF900256E0FD85
:1003D90075F064A42400F582E5F03400F583E58224
:1003E9002FF582E5833EF583E0F4FC75F064EDA416
:1003F9002400F582E5F03400F583E5822FF582E5E6
:10040900833EF583ECF090025BE004F070A3900268
:100419005AE004F0809B900256E075F064A4240031
:10042900F9740035F0FA7B01E0FF900258E0FDA372
:10043900E0900260CDF0A3EDF0120A0C900257E0B3
:1004490030E333900256E0FF75F01CA4249CF5823A
:10045900E43401F583E0B4011D7B007A00790812C8
:100469000ACD780DE6FE18E67C002400FFEC3E90EC
:10047900025AF0A3EFF0900257E030E630900256AE
:10048900E075F01CA4249CF582E43401F583E07046
:100499001C7FC8120F20900256E0FF120CF3AA0726
:0D04A900120F10E0FF120C4FAF02120F10E7
:0104B6002223
:10076400120D6390024AEEF0A3EFF030E0097B0132
:100774007A02794C120B3690024BE030E405E4FF28
:1007840012035490024BE030E5057F0112035490AC
:10079400024BE030E6057F0212035490024BE03036
:1007A400E7057F0312035490024AE030E0057F041A
:1007B40012035490024AE030E1057F05120354907D
:1007C400024AE030E2057F0612035490024AE03008
:0707D400E3057F0712035447
:0107DB0022FB
:100C23007F65121003EF649A60037FFA227B017AD7
:100C3300027904120D847B017A027908120DA47BD8
:0B0C4300017A02790C120DC4120BF5AF
:010C4E002283
:100F4200759850758780758921758DF3D28ED299E7
:010F5200227C
:100B98007F64120F20120F4212100D1209C4120C9A
:100BA80023120F10120FE2BF01077FC8120F208017
:0F0BB800F31204B712059720B3FD12076480F8FB
:030000000206D81D
:0C06D800787FE4F6D8FD75811102071F41
:10000300E709F608DFFA8046E709F208DFFA803EDF
:1000130088828C83E709F0A3DFFA8032E309F608CC
:10002300DFFA8078E309F208DFFA807088828C8334
:10003300E309F0A3DFFA806489828A83E0A3F608E8
:10004300DFFA805889828A83E0A3F208DFFA804CC2
:1000530080D280FA80C680D4806980F28033801099
:1000630080A680EA809A80A880DA80E280CA803302
:1000730089828A83ECFAE493A3C8C582C8CCC5837A
:10008300CCF0A3C8C582C8CCC583CCDFE9DEE7804A
:100093000D89828A83E493A3F608DFF9ECFAA9F0C9
:1000A300EDFB2289828A83ECFAE0A3C8C582C8CC1F
:1000B300C583CCF0A3C8C582C8CCC583CCDFEADE38
:1000C300E880DB89828A83E493A3F208DFF980CC9A
:1000D30088F0EF60010E4E60C388F0ED2402B40493
:1000E3000050B9F582EB2402B4040050AF2323453A
:0600F3008223900053730C
:1000F900BB010689828A83E0225002E722BBFE0205
:09010900E32289828A83E4932237
:10011200BB010689828A83F0225002F722BBFE01CC
:02012200F322C6
:10012400A3F8E0C5F025F0F0E5821582700215838E
:06013400E0C838F0E822EB
:10013A00EB9FF5F0EA9E42F0E99D42F0EC6480C83C
:06014A0064809845F022DC
:10015000E8600FECC313FCED13FDEE13FEEF13FF8D
:03016000D8F122B1
:10016300E8600FEFC333FFEE33FEED33FDEC33FCFA
:03017300D8F1229E
:0C017600ECF0A3EDF0A3EEF0A3EFF022FC
:10018200A8828583F0D083D082120199120199123C
:100192000199120199E473E493A3C583C5F0C58361
:1001A200C8C582C8F0A3C583C5F0C583C8C582C8C7
:0101B200222A
:1001B300EF4E6012EF60010EEDBB010B89828A8363
:1001C300F0A3DFFCDEFA2289F05007F709DFFCA970
:0C01D300F022BBFEFCF309DFFCA9F022C7
:1006E400020B98E493A3F8E493A34003F68001F289
:1006F40008DFF48029E493A3F85407240CC8C33317
:10070400C4540F4420C8834004F456800146F6DFE5
:10071400E4800B01020408102040809008DAE47E93
:10072400019360BCA3FF543F30E509541FFEE493DA
:10073400A360010ECF54C025E060A840B8E493A3A1
:10074400FAE493A3F8E493A3C8C582C8CAC583CACC
:10075400F0A3C8C582C8CAC583CADFE9DEE780BE84
:0109280000CE
:00000001FF
