:090DB00046023F02030405060798
:070D51007FFA120D587FFA32
:070D5800AE071FEE70FA2246
:100ABE007FC8120ACF7FC8120ACF7FC8120ACF7F13
:010ACE00C85F
:100ACF00AD07AF051DEF6008120D51120D5180F2E9
:010ADF0022F4
:090DBA00D29475D55C43AA08220D
:0D0D6D008F86E5AA30E7FB53AA7FAF8622F0
:030D0600E4FCFB0F
:0C0D0900D294C294120D6D7F02020D58AE
:100929009002E9E0FBA3E475F001120124A9F0FAB1
:100939001200F9FF1209549002E9E0FBA3E475F0F3
:0B09490001120124A9F0FA1200F9FFCE
:03095400020D6D24
:080D5F00120D09AF0512095441
:050D67007FFF120D6D7D
:010D6C002264
:080DCC007F05120D09D29422EB
:080DD4007F03120D09D29422E5
:0A0D7A007F01120D09120D67D294DB
:010D8400224C
:020DA600AD0797
:070DA8007F06120D5FD294DB
:010DAF002221
:0F0D1500AD077F20120D09AF05120954D29422A9
:0A0D85007F26120D09120D67D294AB
:010D8F002241
:0A0D90007F29120D09120D67D2949D
:010D9A002236
:10095700E4900245F0FD7F27120D09D2947F0A1219
:100967000ACF120CFBAD07EDB41010900245E0FF63
:0D09770004F0EFD394C840E57FFA22AF05ED
:010984002250
:1007F4009002D21201767F02120D099002D2A3A3B5
:10080400A3E0FF1209549002D2A3A3E0FEEEFF126C
:1008140009549002D2E0FCA3E0FDA3E0FEA3E0FFB4
:0B0824007810120150120954D29422E7
:050CF6007F05120ACF8A
:0A0CFB007F2C120D09120D67D29430
:010D050022CB
:0B0B23009002DAEBF0A3EAF0A3E9F087
:100B2E007F22120D09E4FE9002DA1209430EEEB492
:040B3E0004F5D29454
:010B42002290
:0B0B43009002DDEBF0A3EAF0A3E9F064
:100B4E007F23120D09E4FE9002DD1209430EEEB46E
:040B5E0004F5D29434
:010B62002270
:0B0B63009002E0EBF0A3EAF0A3E9F041
:100B6E007F24120D09E4FE9002E01209430EEEB44A
:040B7E0004F5D29414
:010B82002250
:0B0A9A00900245EBF0A3EAF0A3E9F0A6
:100AA5007F21120D09E4FE9002451209430EEEB4B2
:090AB50006F5D2947F64020ACF19
:0B0867009002E3EBF0A3EAF0A3E9F03D
:100872007F40120D09E4FE120D679002E3E0FBA334
:10088200E475F001120124A9F0FAEF1201120EEE42
:05089200B406E4D2945D
:01089700223E
:10043E00AD077F25120D09AF051209549002BEA318
:10044E00A3A3E0FF1209549002BEA3A3E0FEEEFFA9
:10045E001209549002BEE0FCA3E0FDA3E0FEA3E06F
:10046E00FF78101201501209549002BEE0FCA3E076
:10047E00FDA3E0FEA3E0FF7818120150120954A369
:10048E00A3A3A3E0FF1209549002C2A3A3E0FEEEC1
:10049E00FF1209549002C2E0FCA3E0FDA3E0FEA30C
:1004AE00E0FF78101201501209549002C2E0FCA332
:1004BE00E0FDA3E0FEA3E0FF7818120150120954EC
:0304CE00D29422A3
:0B089800900287EBF0A3EAF0A3E9F068
:1008A3007F28120D09E4FE120D67900287E0FBA377
:1008B300E475F001120124A9F0FAEF1201120EEE11
:0508C300B408E4D2942A
:0108C800220D
:0D082F009002E6EBF0A3EAF0A3E9F0AD07BC
:10083C007F2D120D09AF05120954E4FE120D6790BD
:10084C0002E6E0FBA3E475F001120124A9F0FAEF33
:0A085C001201120EEEB406E4D2946D
:01086600226F
:100B83009002E9EBF0A3EAF0A3E9F0AD077F31129D
:100B93000D09AF05120954120929120929D2942209
:100C7400AC077F34120D09AF04120954AF051209F1
:040C840054D2942290
:100BBE00AB077F32120D09AF03120954AF051209AC
:090BCE0054ECFF120954D29422E8
:100BD700AB077F33120D09AF03120954AF05120992
:090BE70054ECFF120954D29422CF
:100C8800AC077F3E120D09AF04120954AF051209D3
:040C980054D294227C
:0F0D2400AD077F3F120D09AF05120954D294227B
:0D076E00900297EBF0A3EAF0A3E9F0AD07CD
:10077B007F39120D09AF05120954A3A3E0FF12092B
:10078B005490029AE0FF120954E4FDFCD390029BB3
:10079B00E09D90029AE09C400D9002971209430D48
:0807AB00BD00010C80E6D294B0
:0107B3002223
:020BA300AD079C
:100BA5007F3B120D5FAD077C00120D67EFFEE42D54
:080BB500FDEC3ED294FEAF05F9
:010BBD002215
:0F0D3300AD077F2E120D09AF05120954D294227D
:0B05D500900296EFF0A3ECF0A3EDF015
:1005E0004C60487F3C120D09900296E0FF120954BE
:1005F000A3A3E0FF120954900297E0FF1209547F71
:1006000001120D58E4FDFCD3900298E09D900297F2
:10061000E09C4015120D67EF120112740129F9E4F4
:0B0620003AFA0DBD00010C80DED29400
:01062B0022AC
:0F0D4200AD077F2A120D09AF05120954D2942272
:100C0700AD07AC067F2A120D09AF05120954ECFF98
:060C1700120954D29422E0
:1007B4009002ECEBF0A3EAF0A3E9F0AD077F2F126F
:1007C4000D5F9002ECE0FBA3E475F001120124A993
:1007D400F0FAEF120112120D679002ECE0FBA3E4B1
:1007E40075F001120124A9F0FAEF120112D2942239
:020A2900AD0717
:100A2B007F35120D06AF05120954D294120CF6AB9A
:100A3B0007EBB4100CAF040CEFD394C840EE7FFA65
:030A4B0022AF03D4
:010A4E002285
:020A4F00AD07F1
:100A51007F3D120D06AF05120954D294120CF6AB6C
:100A610007EBB4100CAF040CEFD394C840EE7FFA3F
:030A710022AF03AE
:010A7400225F
:02098500AD07BC
:10098700E4FCFB7F37120D09AF05120954D294120C
:100997000CF6AB07EBB4100CAF040CEFD394C840C4
:0609A700EE7FFA22AF030F
:0109AD002227
:0209AE00AD0793
:1009B000E4FCFB7F36120D09AF05120954D29412E4
:1009C0000CF6AB07EBB4100CAF040CEFD394C8409B
:0609D000EE7FFA22AF03E6
:0109D60022FE
:0209D700AD076A
:1009D900E4FCFB7F38120D09AF05120954D29412B9
:1009E9000CF6AB07EBB4100CAF040CEFD394C84072
:0609F900EE7FFA22AF03BD
:0109FF0022D5
:020BF000AD074F
:100BF2007F30120D09AF051209547F02120D5812EF
:040C02000D67D29414
:010C060022CB
:0B01DF0090029CEBF0A3EAF0A3E9F013
:1001EA009002A712018204C11DB79002AB120182CC
:1001FA00FFFFFFFF90029F12018200000000E47FD0
:10020A0006FEFDFC90029FE0F8A3E0F9A3E0FAA342
:10021A00E0FBC312013A400302033290029CE0FB66
:10022A00A3E475F001120124A9F0FA1200F9900270
:10023A00AFF09002A312018200000000E47F08FEE2
:10024A00FDFC9002A3E0F8A3E0F9A3E0FAA3E0FB27
:10025A00C312013A400302030A9002ABE0FCA3E096
:10026A00FDA3E0FEA3E0FF781F120150A905AA062C
:10027A00AB07A3E0FFEB6FFFEF5401FFEF601890AD
:10028A0002A7E0FCA3E0FDA3E0FEA3E0FFC004C0D8
:10029A0005C006C007800DE4FBFAF9F8C000C001EA
:1002AA00C002C0039002ABE0FCA3E0FDA3E0FEA302
:1002BA00E0FF7801120163D003D002D001D000EF31
:1002CA006BFFEE6AFEED69FDEC68FC9002AB120171
:1002DA00769002AFE0C313F09002A3E0FCA3E0FD26
:1002EA00A3E0FEA3E0FFE4FAF9F8EF2401FFEA3EF7
:1002FA00FEE93DFDE83CFC9002A3120176020246AB
:10030A0090029FE0FCA3E0FDA3E0FEA3E0FFE4FA75
:10031A00F9F8EF2401FFEA3EFEE93DFDE83CFC90D6
:10032A00029F1201760202089002ABE0FCA3E0FDF4
:10033A00A3E0FEA3E0FF781A1201509002AB12016B
:09034A00769002ABA3A3A3E0FF2F
:010353002287
:020A0000AD0740
:100A0200E4FC7F41120D09AF05120954D2947F1400
:100A1200120ACF120CFBEFB4100CAE040CEED394FE
:060A2200C840EB7FFA2240
:010A280022AB
:0A0D9B007F42120D09120D67D29479
:010DA500222B
:0B08C9009002EFEBF0A3EAF0A3E9F0CF
:1008D4007F43120D09E4FE120D679002EFE0FBA3C3
:1008E400E475F001120124A9F0FAEF1201120EEEE0
:0508F400B414E4D294ED
:0108F90022DC
:100CD400AC077FED120D09AF04120954AF050209E8
:010CE40054BB
:020C5F00AD07DF
:100C61007FEC120D09AF051209547F01120ACF1250
:020C71000D670D
:010C7300225E
:100C9C007FE9120D097F14120ACF120CFBEF6410BE
:020CAC0060F3F3
:010CAE002223
:0F0680009002C8EBF0A3EAF0A3E9F0AD07AC06D7
:10068F007FEA120D09AF05120954ECFF120954A3AA
:10069F00E0801D9002CBE0FF14F0EF60199002C8CC
:1006AF00E0FBA3E475F001120124A9F0FA1200F99E
:1006BF00FF12095480DD7F14120ACF120CFBEF6476
:0306CF001060F3C5
:0106D2002205
:100721009002CEEBF0A3EAF0A3E9F0AD07AC067FAF
:10073100EB120D09AF05120954ECFF120954A3E0A5
:10074100FF1209547F01120ACF9002D1E0FF14F089
:10075100EF6019120D679002CEE0FBA3E475F00182
:0D076100120124A9F0FAEF12011280DD222E
:100CAF00AD07AC067F50120D09AF05120954ECFFCA
:030CBF00020954D3
:100C1D00AC077F52120D09AF04120954AF0512092A
:060C2D0054AF030209545C
:100C3300AC077F53120D09AF04120954AF05120913
:060C430054AF0302095446
:10062C009002B0EBF0A3EAF0A3E9F0A312017690EC
:10063C0002BCE0FF9002B7E0FBA3E0FAA3E0F912E2
:10064C000B839002BCE0FF9002BAE0FCA3E0FD1229
:10065C000BBE9002B0E0FBA3E0FAA3E0F9A3A3A3C6
:10066C00E0FFA3E090029ACFF0A3EFF09002BCE081
:04067C00FF02076E04
:1006D3009002D61201767F55120D099002D6A3A37C
:1006E300A3E0FF1209549002D6A3A3E0FEEEFF128B
:1006F30009549002D6E0FCA3E0FDA3E0FEA3E0FFD3
:1007030078101201501209549002D6E0FCA3E0FDC8
:0E071300A3E0FEA3E0FF781812015002095483
:100B02007F19120D097F02120D58120D67AD077C75
:100B120000120D67EFFEE42DFDEC3ED294FEAF0510
:010B220022B0
:090DC300EF6005120AC880FB2252
:100AE0007E007F237D007B017A02791C1201B3789E
:100AF000287C027D017B017A02793F7E007F06021D
:020B000000D320
:100C49007E007F1C7D007B017A0279001201B3903E
:060C5900020A7401F02202
:100CC20090020AE0FDE4FF120C74E4FF120A29020A
:020CD2000DC350
:05035400900287EFF0AC
:10035900120BF0EF20E20302043D900287E0FF1246
:100369000BA3900294EEF0A3EFF04E700302043D4C
:10037900D3900295E09400900294E09402400674B0
:1003890002F0A3E4F0900287E0FF900294E0FCA35E
:10039900E0FD7B017A0079001205D5E4FF74002F96
:1003A900F582E43400F583E0FE74882FF582E434A5
:1003B90002F583EEF00FEFB406E3E4FF74062FF5C0
:1003C90082E43400F583E0FE748E2FF582E4340272
:1003D900F583EEF00FEFB406E3E4FF748E2FF58298
:1003E900E43402F583E0FE74002FF582E43400F56D
:1003F90083EEF00FEFB406E3E4FF74882FF582E48F
:100409003402F583E0FE74062FF582E43400F583A7
:10041900EEF00FEFB406E3900287E0FF7B017A006C
:100429007900900294E0FDA3E090029ACDF0A3ED4B
:04043900F012076E48
:01043D00229C
:10055D00120B02900245EEF0A3EFF030E0097B01A3
:10056D007A027947120898900246E030E405E4FFDC
:10057D00120354900246E030E5057F0112035490BA
:10058D000246E030E6057F02120354900246E03049
:10059D00E7057F03120354900245E030E0057F0428
:1005AD00120354900245E030E1057F05120354908B
:1005BD000245E030E2057F06120354900245E0301B
:0705CD00E3057F0712035450
:0105D4002204
:100A75007F65120DA6EF649A60037FFA227B017AE7
:100A8500027928120A9A120ABE7FC8120ACF120AE0
:040A9500BE1209572D
:010A9900223A
:100CE500759850758780758921758DF3D28ED29947
:010CF50022DC
:1008FA007F64120ACF120CE5120DBA120AE0120A2C
:10090A0075120DC3120D85BF01077FC8120ACF8069
:0F091A00F3120C49120CC220B3FD12055D80F8D8
:030000000204D126
:0C04D100787FE4F6D8FD7581070205185D
:10000300E709F608DFFA8046E709F208DFFA803EDF
:1000130088828C83E709F0A3DFFA8032E309F608CC
:10002300DFFA8078E309F208DFFA807088828C8334
:10003300E309F0A3DFFA806489828A83E0A3F608E8
:10004300DFFA805889828A83E0A3F208DFFA804CC2
:1000530080D280FA80C680D4806980F28033801099
:1000630080A680EA809A80A880DA80E280CA803302
:1000730089828A83ECFAE493A3C8C582C8CCC5837A
:10008300CCF0A3C8C582C8CCC583CCDFE9DEE7804A
:100093000D89828A83E493A3F608DFF9ECFAA9F0C9
:1000A300EDFB2289828A83ECFAE0A3C8C582C8CC1F
:1000B300C583CCF0A3C8C582C8CCC583CCDFEADE38
:1000C300E880DB89828A83E493A3F208DFF980CC9A
:1000D30088F0EF60010E4E60C388F0ED2402B40493
:1000E3000050B9F582EB2402B4040050AF2323453A
:0600F3008223900053730C
:1000F900BB010689828A83E0225002E722BBFE0205
:09010900E32289828A83E4932237
:10011200BB010689828A83F0225002F722BBFE01CC
:02012200F322C6
:10012400A3F8E0C5F025F0F0E5821582700215838E
:06013400E0C838F0E822EB
:10013A00EB9FF5F0EA9E42F0E99D42F0EC6480C83C
:06014A0064809845F022DC
:10015000E8600FECC313FCED13FDEE13FEEF13FF8D
:03016000D8F122B1
:10016300E8600FEFC333FFEE33FEED33FDEC33FCFA
:03017300D8F1229E
:0C017600ECF0A3EDF0A3EEF0A3EFF022FC
:10018200A8828583F0D083D082120199120199123C
:100192000199120199E473E493A3C583C5F0C58361
:1001A200C8C582C8F0A3C583C5F0C583C8C582C8C7
:0101B200222A
:1001B300EF4E6012EF60010EEDBB010B89828A8363
:1001C300F0A3DFFCDEFA2289F05007F709DFFCA970
:0C01D300F022BBFEFCF309DFFCA9F022C7
:1004DD000208FAE493A3F8E493A34003F68001F233
:1004ED0008DFF48029E493A3F85407240CC8C33320
:1004FD00C4540F4420C8834004F456800146F6DFEF
:10050D00E4800B0102040810204080900DB0E47EC1
:10051D00019360BCA3FF543F30E509541FFEE493E3
:10052D00A360010ECF54C025E060A840B8E493A3AA
:10053D00FAE493A3F8E493A3C8C582C8CAC583CAD5
:10054D00F0A3C8C582C8CAC583CADFE9DEE780BE8D
:010DB9000039
:00000001FF
