:020000040800F2
:10000000A8100020912F00084501000847010008B2
:100010006B0100086F010008730100080000000078
:100020000000000000000000000000007701000850
:1000300079010008000000007B010008A92F0008DA
:10004000AB2F0008AB2F0008AB2F0008AB2F000828
:10005000AB2F0008AB2F0008AB2F0008AB2F000818
:10006000AB2F0008AB2F0008AB2F0008AB2F000808
:10007000AB2F0008AB2F0008AB2F0008AB2F0008F8
:10008000AB2F0008AB2F0008AB2F0008AB2F0008E8
:10009000AB2F0008AB2F0008AB2F0008AB2F0008D8
:1000A000AB2F0008AB2F0008AB2F0008AB2F0008C8
:1000B000B50F0008AB2F0008AB2F0008AB2F0008CE
:1000C000AB2F0008AB2F0008AB2F0008AB2F0008A8
:1000D000AB2F0008FF0D0008AB2F0008AB2F000866
:1000E000AB2F0008AB2F0008AB2F0008AB2F000888
:1000F000AB2F0008AB2F0008AB2F0008AB2F000878
:10010000AB2F0008AB2F0008AB2F0008AB2F000867
:10011000AB2F0008AB2F0008AB2F0008AB2F000857
:10012000AB2F0008AB2F0008AB2F0008AB2F000847
:10013000DFF80CD003F06EF90048004727090008EB
:10014000A810002070470FE071B600BF0B48006890
:1001500000F4E0600A490843001D08490860BFF345
:10016000408F00BF00BFFEE7EEE700BFFEE700BF25
:10017000FEE700BFFEE77047704770470CED00E0F8
:100180000000FA0510B5052003F0C4F810BD10B545
:10019000032003F0BFF810BD10B5012003F0BAF83A
:1001A00003F0CFF80446204610BD70B50446062083
:1001B00003F0B0F8204603F0BEF803F0C2F805469D
:1001C000284670BD10B50446202003F0A3F8204651
:1001D00003F0B1F810BD10B5262003F09BF803F032
:1001E000B0F80446204610BD10B5292003F092F85F
:1001F00003F0A7F80446204610BD10B52C2003F0EC
:1002000089F803F09EF80446204610BD70B500251D
:100210000024272003F07EF80FE00A2002F0CEFF32
:10022000FFF7EBFF0446102C00D007E02846691CBE
:10023000CDB2C82801DDFA2070BDEEE700BF204630
:10024000FAE710B50446022003F064F8E0B203F0C8
:1002500072F8C4F3072003F06EF8C4F3074003F00C
:100260006AF810BD70B50446222003F053F800254B
:1002700005E014F8010B03F05EF8681CC5B2042D0C
:10028000F7DB70BD70B50446232003F043F800256A
:1002900005E014F8010B03F04EF8681CC5B2042DFC
:1002A000F7DB70BD70B50446242003F033F8002559
:1002B00005E014F8010B03F03EF8681CC5B2042DEC
:1002C000F7DB70BD70B50446212003F023F800254C
:1002D00005E014F8010B03F02EF8681CC5B2062DDA
:1002E000F7DB642002F06AFF70BD70B50446402061
:1002F00003F010F8002505E003F023F804F8010BE3
:10030000681CC5B2062DF7DB70BD70B506460C46FD
:100310001546252002F0FEFF304603F00CF8E0B24F
:1003200003F009F8C4F3072003F005F8C4F307400D
:1003300003F001F8200E02F0FEFFE8B202F0FBFF2E
:10034000C5F3072002F0F7FFC5F3074002F0F3FF03
:10035000280E02F0F0FF70BD70B50446282002F0B0
:10036000D9FF002505E002F0ECFF04F8010B681C42
:10037000C5B2082DF7DB70BD70B506460C462D20C2
:1003800002F0C8FF304602F0D6FF002505E002F07B
:10039000D8FF04F8010B681CC5B2062DF7DB70BD51
:1003A00070B505460C46312002F0B4FF284602F035
:1003B000C2FF14F8010B02F0BEFF14F8010B02F0AB
:1003C000BAFF14F8010B02F0B6FF14F8010B02F0AB
:1003D000B2FF70BD70B505460C46342002F09AFF9E
:1003E000284602F0A8FF204602F0A5FF70BD70B5B8
:1003F00005460C46322002F08DFF284602F09BFF96
:10040000E0B202F098FF201202F095FF70BD70B5C7
:1004100005460C46332002F07DFF284602F08BFF94
:10042000E0B202F088FF201202F085FF70BD70B5C7
:1004300005460C463E2002F06DFF284602F07BFF89
:10044000204602F078FF70BD10B504463F2002F050
:1004500061FF204602F06FFF10BD2DE9F041074615
:100460000D461446392002F055FF384602F063FF6E
:10047000E0B202F060FF201202F05DFF002605E00E
:1004800015F8010B02F057FF701C86B2A642F7DB8D
:10049000BDE8F08170B505463B2002F03BFF2846E1
:1004A00002F049FF02F04DFF044602F04AFF04EB60
:1004B000002084B2204670BD10B504462E2002F004
:1004C00029FF204602F037FF10BD2DE9F041074615
:1004D0000C4615460CB9BDE8F0813C2002F01AFF2D
:1004E000384602F028FFE0B202F025FF201202F0A9
:1004F00022FF012002F05CFE002605E002F021FF51
:1005000028706D1C701C86B2A642F7DB00BFE2E7C4
:1005100010B504462A2002F0FDFE204602F00BFF33
:1005200010BD10B504462A2002F0F4FEE0B202F03D
:1005300002FF201202F0FFFE10BD70B505460C460A
:100540002F2002F0E7FE284602F0F5FE02F0F9FE49
:1005500004F8010B02F0F5FE04F8010B70BD70B554
:10056000054600260024352002F0D4FE284602F07D
:10057000E2FE0FE0052002F021FEFFF73EFE0446FA
:10058000102C00D007E03046711CCEB2C82801DD27
:10059000FA2070BDEEE700BF2046FAE770B50546C9
:1005A000002600243D2002F0B5FE284602F0C3FEDE
:1005B0000FE0052002F002FEFFF71FFE0446102C9C
:1005C00000D007E03046711CCEB2C82801DDFA2009
:1005D00070BDEEE700BF2046FAE770B5054600267D
:1005E0000024372002F096FE284602F0A4FE0FE019
:1005F000052002F0E3FDFFF700FE0446102C00D0BA
:1006000007E03046711CCEB2C82801DDFA2070BD6B
:10061000EEE700BF2046FAE770B505460026002445
:10062000362002F077FE284602F085FE0FE0052016
:1006300002F0C4FDFFF7E1FD0446102C00D007E0F6
:100640003046711CCEB2C82801DDFA2070BDEEE73D
:1006500000BF2046FAE770B5054600260024382082
:1006600002F058FE284602F066FE0FE0052002F078
:10067000A5FDFFF7C2FD0446102C00D007E0304670
:10068000711CCEB2C82801DDFA2070BDEEE700BFB4
:100690002046FAE770B50446302002F03BFE2046C3
:1006A00002F049FE022002F083FD02F04AFE0546F8
:1006B000284670BD70B50246FE4E4FF0FF31002354
:1006C00012E012F8015B00240BE085EAD17000F023
:1006D000010008B1F74800E0002080EA41016D10F8
:1006E000641C082CF1DB5B1C062BEADB890E084638
:1006F00070BD70B505460026412002F00BFE28466D
:1007000002F019FE0FE0142002F058FDFFF775FD0E
:100710000446102C00D007E03046711CCEB2C82829
:1007200001DDFA2070BDEEE700BF2046FAE710B504
:10073000422002F0EFFD02F004FE0446204610BD08
:1007400070B50446432002F0E5FD002505E002F007
:10075000F8FD04F8010B681CC5B2142DF7DB70BD61
:1007600070B505460C46ED2002F0D4FD284602F097
:10077000E2FD204602F0DFFD70BD70B50446EC20BE
:1007800002F0C8FD204602F0D6FD012002F016FD61
:1007900002F0D7FD0546284670BD10B5E92002F0ED
:1007A000B9FD09E0142002F009FDFFF726FD04461B
:1007B000102C00D100E000E0F4E700BF204610BD9F
:1007C0002DE9F04104460D461646EA2002F0A2FD4E
:1007D000E0B202F0B0FD201202F0ADFD304602F0B2
:1007E000AAFD03E015F8010B02F0A5FD3000A6F10B
:1007F0000101CEB2F6D109E0142002F0DFFCFFF7D0
:10080000FCFC0746102F00D100E000E0F4E700BF39
:100810003846BDE8F08170B504460D461646EB201B
:1008200002F078FDE0B202F086FD201202F083FDB6
:10083000304602F080FD012002F0C0FC03E002F02F
:1008400080FD05F8010B3000A6F10101CEB2F6D112
:1008500070BD10B50446502002F05CFDE0B202F01D
:100860006AFD201202F067FD10BD70B506460C4609
:100870001546522002F04EFD304602F05CFD204647
:1008800002F059FD284602F056FD70BD70B50646CF
:100890000C461546532002F03DFD304602F04BFD5C
:1008A000204602F048FD284602F045FD70BD2DE9C6
:1008B000F04104460D4616461F46DDF818803146C5
:1008C0004046FFF76DFD39464046FFF790FDAAB25E
:1008D00021464046FFF7C1FDBDE8F08110B5044652
:1008E000552002F017FDE0B202F025FDC4F3072009
:1008F00002F021FDC4F3074002F01DFD200E02F0BE
:100900001AFD10BD10B5192002F004FD022002F0FE
:100910004FFC02F016FD044602F013FD04EB00202C
:1009200084B2204610BD08B500F058FB4FF4E1300A
:1009300000F0CAF900F05EF902F046FC02F00EFD8C
:100940004FF4C361062000F0E9FA5BA002F094FDC9
:10095000FFF722FC044621465AA002F08DFD03E079
:100960005CA002F089FD04E05520FFF71EFCAA28D8
:10097000F6D000BF03E05DA002F07EFD03E0FFF7CC
:1009800045FC0028F7D000BF4BA002F075FD23E125
:1009900000F0D6FAFFF71FFC01280DD15AA002F093
:1009A0006BFD4FF47A7000F062F901205D49087028
:1009B00000205D4908700FE15A48007878B10120A5
:1009C000FFF797FE57490870084600780028DED0E8
:1009D00056A002F051FD642000F049F9FCE002F05D
:1009E000B5FC0028D3D0FFF78DFF564908600846B4
:1009F000007800F0010010B15348FFF7ADFC5148FA
:100A0000007800F0040040B150A002F035FD012054
:100A1000444908700020444908704A48007800F0B2
:100A20000800002844D040480078002840D1FFF753
:100A30007EFE0028FAD14448FFF782FE4248007843
:100A400048B94148407830B93F48807818B93E48A5
:100A5000C07800282CD00120334908703A48C0786B
:100A60000090394883784278017842A002F004FD72
:100A70003548C0790090344883794279017942A0A1
:100A800002F0FAFC3048C07A00902F48837A427A0C
:100A9000017A42A002F0F0FC2B48C07B00902A486B
:100AA000837B427B017B42A002F0E6FC264889E082
:100AB00091E00000B71DC1040D0A73746172740DDA
:100AC0000A0000004348333935564552203A202564
:100AD00032780A000D0A4348333935434D444368A0
:100AE00065636B204F4B0D0A000000000D0A434860
:100AF000333935434D44496E6974434833393520A1
:100B00004F4B0D0A0000000043483339352044693B
:100B100073436F6E6E6563742045746865726E65AD
:100B2000740D0A00040000200500002043483339FA
:100B30003544484350456E61626C65204552520D04
:100B40000A0000000000002070000020496E697457
:100B500020737461747573203A2047494E545F5373
:100B60005441545F5048595F4348414E47450D0A30
:100B70000000000049503A25642E25642E25642E7D
:100B800025640D0A00000000475749503A25642E9D
:100B900025642E25642E25640D0A00004D61736BBB
:100BA0003A25642E25642E25642E25640D0A000046
:100BB000444E53313A25642E25642E25642E256437
:100BC0000D0A0000C07C00900448837C427C017CBC
:100BD00003A002F051FC00BFDAE600007000002024
:100BE000444E53323A25642E25642E25642E256406
:100BF0000D0A000010B56FF0040000F072FB2E48E3
:100C000000682E49B0FBF1F02D49087008460078C5
:100C100000EB4001C1EBC0104FF6FF7101EAC000CC
:100C20002849088010BD0146254A12784A434FF0F2
:100C3000E0235A6100229A611A46126942F00102C9
:100C40001A6100BF4FF0E022106900F001021AB1F2
:100C500000F48032002AF5D04FF0E022126922F031
:100C600001024FF0E0231A6100229A6170470146A9
:100C7000144A12884A434FF0E0235A6100229A61D5
:100C80001A46126942F001021A6100BF4FF0E022D9
:100C9000106900F001021AB100F48032002AF5D088
:100CA0004FF0E022126922F001024FF0E0231A61B6
:100CB00000229A61704700004400002000127A0070
:100CC000060000200800002010B586B004464FF44E
:100CD00080628849884802F06DF94FF48062874944
:100CE000874802F067F901214FF4C02000F093FC1F
:100CF000012144F20D0000F081FC4FF40070ADF8CA
:100D0000140003208DF8160018208DF8170005A98F
:100D10007C4800F03BFF4FF48060ADF814004820A1
:100D20008DF8170005A9774800F030FF0020ADF8D6
:100D30000800ADF80A00ADF80C00ADF810000C206A
:100D4000ADF80E00019401A96F4800F0FEFC2520CB
:100D50008DF8000003208DF801008DF802000120BD
:100D60008DF80300684600F072FA012240F2255126
:100D7000654800F082FD012240F22441624800F003
:100D80007CFD0121604800F06CFD06B010BD70B51F
:100D900004460D4616465C4884420AD1324629462E
:100DA000574802F0EEF9012240F22771204600F088
:100DB00064FD70BD70B506460C4615460BE014F890
:100DC000011B304600F0BAFD00BF8021304600F024
:100DD00023FE0028F9D02800A5F10105EFD170BD50
:100DE00070B504460D462946204600F0A7FD00BF19
:100DF0008021204600F010FE0028F9D070BD08B513
:100E000040F22551404800F01DFE78B13E4800F008
:100E100099FDC0B2009001226946374802F0B1F94D
:100E20003A480068401C394908600CE040F224410F
:100E3000354800F007FE012805D13348001D008821
:100E400001203349087040F227712F4800F0FAFD65
:100E500000B32B4802F0C8F800280ADD01222D4912
:100E6000274802F0ECF82B480178274800F066FD8F
:100E700010E040F22771244800F00EFE002240F2FC
:100E80002771214800F0F9FC012240F226611E483A
:100E900000F0F3FC40F226611B4800F0D3FD50B196
:100EA00040F22661184800F0F7FD002240F226616A
:100EB000154800F0E2FC08BD38B504460D46E0B226
:100EC00000901548007838B901201349087040F2A5
:100ED00026610D4800F0E0FD01226946084802F055
:100EE00050F9012240F22771074800F0C6FC204665
:100EF00038BD00009400002084000020A4080020D9
:100F00009408002000080140003801401000002033
:100F1000140000200C0000201500002070B50546CC
:100F20000C4645F2555001F08DFE284601F08DFE2D
:100F3000204601F08DFE01F08EFE01F091FE70BDA5
:100F400010B501F088FE10BD1FB50121084600F064
:100F500062FB1C208DF8000001208DF803000220A8
:100F60008DF801008DF80200684600F070F94FF02E
:100F7000804000F059FF0020ADF80A00ADF80600EF
:100F80000A20ADF8080041F61F40ADF8040001A9A1
:100F90004FF0804001F01CF80121880701F04EFE5F
:100FA0000121880701F070FB01221146900701F032
:100FB00086FB1FBD10B50121880701F02EFE012818
:100FC00008D10121800701F039FE03480068401C68
:100FD0000149086010BD00001800002010B54FF452
:100FE000A06000F02FF910BD71B600BF1348006873
:100FF00000F4E06012490843001D10490860BFF387
:10100000408F00BF00BFFEE770B504460D469CB19F
:101010000C4850F82500006820600A4850F8250068
:1010200040686060074850F825008068A06006A00E
:1010300094E80E0002F020FA70BD00000CED00E014
:101040000000FA051C0000200D0A20D0BEC6ACCE60
:10105000A8D2BB49443A2025582D25582D25580D96
:101060000A0000000CB50020019000906C48006858
:1010700040F480306A49086000BF6948006800F4A5
:10108000003000900198401C0190009818B9019818
:10109000B0F5A06FF1D16248006800F4003010B1E3
:1010A0000120009001E0002000900098012843D129
:1010B0005C48006840F010005A4908600846006823
:1010C00020F0030008600846006840F00200086055
:1010D000534840685249486008464068486008469E
:1010E000406840F4806048600846406820F47C1006
:1010F00048600846406840F4E810486008460068C8
:1011000040F08070086000BF4548006800F0007043
:101110000028F9D04248406820F003004049486068
:101120000846406840F00200486000BF3C48406804
:1011300000F00C000828F9D10CBD10B5FFF792FFA4
:1011400010BD10B53648006840F001003449086011
:1011500008464068344908403149486008460068FC
:10116000324908402E4908600846006820F4802073
:1011700008600846406820F4FE0048604FF41F00F5
:101180008860FFF7DAFF4FF000602949086010BD62
:1011900010B5002100200022214B5B6803F00C01F8
:1011A00021B1042906D0082928D107E0214B224C7F
:1011B000236027E01F4B204C236023E0184B5B6823
:1011C00003F47010164B5B6803F48032022303EBC8
:1011D000904022B9194B4343174C23600DE0104B4C
:1011E0005B6803F4003323B1144B4343124C236078
:1011F00003E0104B4343104C236003E00D4B0E4CB7
:10120000236000BF00BF064B5B68C3F303130C4CA5
:10121000E15C094B1B68CB40074C236010BD00000C
:1012200000100240002002400000FFF8FFFFF6FE21
:1012300008ED00E000127A004400002000093D00A3
:101240004800002031490143314A1160704770B5B0
:10125000002100230F22C47804B32D4C246804F429
:10126000E064C4F5E064210AC1F10403CA40447893
:1012700004FA03F18478144021430901254C0678CF
:10128000A155047804F01F050124AC4005786D11C8
:10129000AD0005F1E025C5F8004109E0047804F04F
:1012A0001F050124AC401C4D0678761145F82640F8
:1012B00070BD1A4A0A400243154B1B1F1A60704743
:1012C00039B1134A121D12680243114B1B1D1A60DB
:1012D00006E00F4A121D126882430D4B1B1D1A6057
:1012E0007047042808D14FF0E021096941F004015A
:1012F0004FF0E022116107E04FF0E021096921F091
:1013000004014FF0E0221161704700000000FA056F
:101310000CED00E000E400E080E100E080FFFF1F52
:10132000DF48006840F00100DD4908600846406879
:10133000DC490840DA49486008460068DA49084054
:10134000D74908600846006820F4802008600846F5
:10135000406820F4FE0048604FF41F00886070472A
:10136000CF49096821F48031CD4A116011460968DE
:1013700021F480211160B0F5803F03D0B0F5802FBB
:101380000ED106E0C649096841F48031C44A1160B3
:1013900007E0C349096841F4A021C14A116000E097
:1013A00000BF00BF704710B5014600220023002097
:1013B0004A11012A02D1BA4C236806E0022A02D15E
:1013C000B74C236A01E0B64C636A01F01F020124A6
:1013D00094401C400CB1012000E0002010BD38B545
:1013E000002000900024002500BF3120FFF7DBFF24
:1013F00005460098401C00900098B0F5A06F01D001
:10140000002DF2D03120FFF7CEFF08B1012400E01B
:101410000024204638BD01460020A14A106820F073
:10142000F80040EAC10010607047A04908607047AA
:10143000024600209A4B586820F47C1042EA0103CF
:101440001843974B586070479849086670470146A3
:101450000020934A506820F0030008435060704712
:101460008F48406800F00C007047014600208C4A0D
:10147000506820F0F000084350607047014600209B
:10148000874A506820F4E060084350607047014686
:101490000020834A506820F4605040EAC100506048
:1014A000704729B17E4A527A02437D4B5A7204E05A
:1014B0007B4A527A82437A4B5A7270477B49D831C1
:1014C0000860704701460020754A506820F440408B
:1014D0000843506070470021714A20321170704AF1
:1014E00082F82010012802D004280AD104E001214A
:1014F0006B4A2032117005E00521694A20321170D3
:1015000000E000BF00BF7047694908607047644948
:10151000096A0143624A11627047654944390860AB
:10152000704730B500210022002400235C4D6D6817
:1015300005F00C0121B1042905D0082923D105E0CB
:101540005C4D056022E05B4D05601FE0544D6D6809
:1015500005F47012524D6D6805F48034022505EBD8
:1015600092421CB9544D554305600BE04C4D6D68DB
:1015700005F400351DB1504D5543056002E04D4D59
:101580005543056002E04B4D056000BF00BF444D70
:101590006D6805F0F0010909484D6B5C0568DD4098
:1015A00045603F4D6D6805F4E061090A434D6B5C91
:1015B0004568DD4085603A4D6D6805F46051C90AA3
:1015C0003E4D6B5C4568DD40C560354D6D6805F48A
:1015D0004041890B3A4D6B5CC568B5FBF3F505617D
:1015E00030BD29B12E4A526902432D4B5A6104E0A5
:1015F0002B4A526982432A4B5A61704729B1284AC3
:1016000092690243264B9A6104E0254A926982431B
:10161000234B9A61704729B1214AD2690243204B7A
:10162000DA6104E01E4AD26982431D4BDA617047D9
:1016300029B11B4AD2680243194BDA6004E0184A08
:10164000D2688243164BDA60704729B1144A126996
:101650000243134B1A6104E0114A12698243104B92
:101660001A61704712494039086070470F49C864D1
:1016700070470B49C87170470948406A40F0807054
:1016800007494862704701460020054A92680A40AF
:101690000AB1012000E000207047014988727047BC
:1016A000001002400000FFF8FFFFF6FE000042427B
:1016B0008004424200127A0000093D0058000020D8
:1016C0006800002010B50446FB48844209D101217E
:1016D0008803FFF7ADFF00214FF48040FFF7A8FF1C
:1016E00032E0F648844209D101214804FFF7ADFFFA
:1016F00000214FF40030FFF7A8FF25E0F0488442B6
:1017000009D101218804FFF7A0FF00214FF48020B8
:10171000FFF79BFF18E0EB48844209D10121C80480
:10172000FFF793FF00214FF40020FFF78EFF0BE03F
:10173000E548844208D101210805FFF786FF002112
:101740004FF48010FFF781FF10BD2DE9F04786B000
:1017500005460E460024A24600BFA1460027B089D8
:1017600000B100BF2F462C8A4CF6FF700440F08871
:1017700004432C82AC894EF6F3100440B0883189C2
:101780000843718908430443AC81AC8A4FF6FF409B
:101790000440B0890443AC8201A8FFF7C2FEC648EA
:1017A000874202D1DDF810A001E0DDF80CA0A88985
:1017B00000F4004040B10AEBCA0000EB0A103168A7
:1017C0004900B0FBF1F807E00AEBCA0000EB0A1091
:1017D00031688900B0FBF1F86420B8FBF0F0040137
:1017E0002009642101FB1089A88900F4004040B160
:1017F000322000EBC900B0FBF1F000F00700044319
:1018000008E0322000EB09106421B0FBF1F000F099
:101810000F0004432C8106B0BDE8F0874FF4165149
:10182000016000218180C18001810C214181002162
:101830008181704710B502460020108A4FF2FF03E5
:1018400018400B884C8823438C882343CC8823433F
:101850001843108210BD0021018041808180C18029
:10186000704721B1828942F40052828104E082896A
:101870004DF6FF731A4082817047F0B5034600248D
:1018800000260025002040F66A17B94200D100BFAB
:101890001846C1F3421401F01F06012707FA06F5A6
:1018A000012C01D10C3004E0022C01D1103000E0F9
:1018B00014301AB107682F43076002E00768AF438E
:1018C0000760F0BD1AB1838A0B43838202E0838AEA
:1018D0008B4383827047028A4FF6F0731A4002826C
:1018E000028A0A430282704782894FF2FF731A40CC
:1018F000828182890A438281704721B1828942F0C4
:101900000202828104E082894FF6FD731A408281CF
:101910007047028A4FF6DF731A400282028A0A4336
:101920000282704721B1028A42F48042028204E0BE
:10193000028A4BF6FF731A4002827047C1F3080215
:101940008280704701468888C0F30800704781890B
:1019500041F0010181817047028BD2B20283028B78
:1019600042EA012202837047028B02F47F42028323
:10197000028B0A430283704721B1828A42F020021F
:10198000828204E0828A4FF6DF731A4082827047B7
:1019900021B1828A42F01002828204E0828A4FF6EC
:1019A000EF731A408282704721B1828A42F00802A6
:1019B000828204E0828A4FF6F7731A40828270476F
:1019C00021B1828942F40042828103E08289C2F31C
:1019D0000E028281704721B1828A42F400628282C3
:1019E00004E0828A4FF2FF731A4082827047828A33
:1019F0004FF6FB731A408282828A0A4382827047C2
:101A000021B1828A42F00202828204E0828A4FF689
:101A1000FD731A408282704702460020B1F5007FB4
:101A200000D100BF13880B400BB1012000E0002063
:101A3000704701F40072B2F5007F00D100BFCA43C5
:101A40000280704770B50246002400230025002064
:101A500040F66A16B14200D100BFC1F3421501F051
:101A60001F03012606FA03F3012D02D196893340A4
:101A700006E0022D02D1168A334001E0968A3340F7
:101A80000C12012606FA04F41688344013B10CB186
:101A9000012000E0002070BD10B50022002340F6B8
:101AA0006A14A14200D100BF0A1201249440A3B2DB
:101AB000DC43048010BD00000038014000440040B9
:101AC00000480040004C00400050004010B5044663
:101AD000CC48844208D101210420FFF7A9FD002150
:101AE0000420FFF7A5FD46E0C748844208D1012144
:101AF0000820FFF79DFD00210820FFF799FD3AE03F
:101B0000C248844208D101211020FFF791FD002135
:101B10001020FFF78DFD2EE0BD48844208D1012141
:101B20002020FFF785FD00212020FFF781FD22E026
:101B3000B848844208D101214020FFF779FD0021F7
:101B40004020FFF775FD16E0B348844208D101211B
:101B50008020FFF76DFD00218020FFF769FD0AE07E
:101B6000AE48844207D101218015FFF761FD0021B5
:101B7000A015FFF75DFD10BD10B501210846FFF768
:101B800057FD00210120FFF753FD10BD2DE9F04165
:101B9000024600250026002000230024002791F89B
:101BA00003C00CF00F0591F803C00CF0100CBCF151
:101BB000000F03D091F802C04CEA050591F800C06F
:101BC000BCF1000F31D0146800202BE04FF0010C65
:101BD0000CFA00F3B1F800C00CEA03069E4220D1D3
:101BE00083004FF00F0C0CFA03F7BC4305FA03FC1B
:101BF0004CEA040491F803C0BCF1280F06D14FF061
:101C0000010C0CFA00FCC2F814C00AE091F803C001
:101C1000BCF1480F05D14FF0010C0CFA00FCC2F8E2
:101C200010C0401C0828D1D31460B1F800C0BCF12A
:101C3000FF0F34DD546800202EE000F1080C4FF057
:101C4000010808FA0CF3B1F800C00CEA03069E4242
:101C500021D183004FF00F0C0CFA03F7BC4305FAB7
:101C600003FC4CEA040491F803C0BCF1280F05D131
:101C700000F1080C08FA0CF8C2F8148091F803C0BF
:101C8000BCF1480F07D100F1080C4FF0010808FA29
:101C90000CF8C2F81080401C0828CED35460BDE870
:101CA000F0814FF6FF710180022181700421C17023
:101CB00070470246002093680B400BB1012000E002
:101CC000002070470146886880B2704702460020B5
:101CD000D3680B400BB1012000E0002070470146A3
:101CE000C86880B2704701617047416170470AB1AE
:101CF000016100E041617047C16070474FF480327C
:101D00000A43826181618261826982697047024609
:101D10000020434B18684FF68073184040EA0210C9
:101D200008433F4B186070473E49C8617047F0B5A3
:101D30000A46002300240021002500F00046B6F1E9
:101D4000004F02D1364EF16901E0354E7168C0F3A3
:101D5000034583B200F44016B6F5401F08D121F0C8
:101D600070612F4E766826F070662D4F7E6012E00F
:101D700000F48016B6F5801F06D1032606FA05F496
:101D8000A14341F0706106E0460D360103FA06F604
:101D9000B14341F0706122B1460D360103FA06F6F7
:101DA000314300F00046B6F1004F02D11C4EF16104
:101DB00001E01B4E7160F0BD30B500228B071C0F97
:101DC0000F2303FA04F2164B08338C1053F8243017
:101DD0009343134C08348D1044F8253023468C105F
:101DE00053F824308C07240F00FA04F423430C4CDE
:101DF00008348D1044F8253030BD0A49DC310860C4
:101E00007047000000080140000C01400010014034
:101E10000014014000180140001C01400020014056
:101E2000000001400000204210B50446FE488442F4
:101E300008D10121C014FFF7FBFB0021E014FFF7DC
:101E4000F7FBC4E0B4F1804F08D101210846FFF749
:101E5000FCFB00210120FFF7F8FBB8E0F3488442C7
:101E600008D101210220FFF7F0FB00210220FFF73B
:101E7000ECFBACE0EE48844208D101210420FFF7DE
:101E8000E4FB00210420FFF7E0FBA0E0E9488442E6
:101E900008D101210820FFF7D8FB00210820FFF717
:101EA000D4FB94E0E448844208D101211020FFF7DC
:101EB000CCFB00211020FFF7C8FB88E0DF488442FC
:101EC00008D101212020FFF7C0FB00212020FFF7CF
:101ED000BCFB7CE0DA48844208D101214014FFF7C2
:101EE000A7FB00216014FFF7A3FB70E0D5488442F4
:101EF00009D10121C804FFF79BFB00214FF400200A
:101F0000FFF796FB63E0D048844209D10121080520
:101F1000FFF78EFB00214FF48010FFF789FB56E09E
:101F2000CA48844209D101214805FFF781FB0021FD
:101F30004FF40010FFF77CFB49E0C548844208D10C
:101F400001214020FFF781FB00214020FFF77DFBAE
:101F50003DE0C048844208D101218020FFF775FB95
:101F600000218020FFF771FB31E0BB48844208D19B
:101F700001218015FFF769FB0021A015FFF765FB24
:101F800025E0B648844209D101210804FFF750FB3F
:101F900000214FF48030FFF74BFB18E0B04884423B
:101FA00009D101214804FFF743FB00214FF4003021
:101FB000FFF73EFB0BE0AB48844208D101218804C7
:101FC000FFF736FB00214FF48020FFF731FB10BDF7
:101FD00000220288944B98420ED0994B98420BD025
:101FE000B0F1804F08D0914B984205D0904B984269
:101FF00002D0904B984204D14FF68F731A404B8811
:102000001A438D4B984207D08C4B984204D04FF620
:10201000FF431A40CB881A4302808B8883850B8844
:102020000385814B98420BD0854B984208D08B4B4F
:10203000984205D08A4B984202D08A4B984201D1EF
:102040000B7A038601238382704770B50024002237
:102050000023058C4FF6FE7635400584028C83887C
:10206000048B4FF68F752C40B51E2C400D882C43E9
:10207000751E2A400D892A434D882A436A4DA8427D
:102080000BD06F4DA84208D0744DA84205D0744DB6
:10209000A84202D0734DA84213D14FF6F7752A40DB
:1020A0004D892A434FF6FB752A408D882A434FF607
:1020B000FF652B404FF6FF552B408D892B43CD8973
:1020C0002B4383800483CD888586028470BD70B5E0
:1020D000002400220023058C4FF6EF76354005845E
:1020E000028C8388048B48F6FF752C404FF6FF4521
:1020F0002C400D884FF6FF7606EA05252C434FF657
:10210000DF752A400D8906EA05152A434D8806EA3F
:1021100005152A43444DA84202D0494DA8421DD17D
:102120004FF67F752A404D894FF6FF7606EA051572
:102130002A434FF6BF752A408D8806EA05152A43C3
:102140004FF6FF352B404FF2FF752B408D8906EA85
:1021500085052B43CD8906EA85052B4383800483BF
:10216000CD880587028470BD70B50024002200234D
:10217000058C4FF6FF6635400584028C8388848B7E
:102180004FF68F752C404FF6FC752C400D882C4374
:102190004FF6FF552A400D894FF6FF7606EA0525D2
:1021A0002A434D8806EA05252A431F4DA84202D03E
:1021B000234DA8421DD14FF2FF752A404D894FF69D
:1021C000FF7606EA05252A434FF6FF352A408D881B
:1021D00006EA05252A434EF6FF752B404DF6FF759E
:1021E0002B408D8906EA05152B43CD8906EA051596
:1021F0002B4383808483CD888587028470BD70B52E
:10220000002200230024058C4EF6FF76354005841D
:10221000038C8488828B48F6FF752A404FF6FF4571
:102220002A400D8820E00000002C014000040040FE
:1022300000080040000C0040001000400014004066
:1022400000340140004C0140005001400054014066
:1022500000180040001C00400020004000400140E9
:1022600000440140004801404FF6FF7606EA05258C
:102270002A434DF6FF752B400D8906EA05352B43A1
:102280004D8806EA05352B43FA4DA84202D0FA4D97
:10229000A84208D14BF6FF752C408D894FF6FF768A
:1022A00006EA85152C4384808283CD88A0F84050AF
:1022B000038470BD828B4FF2FF331A408283828B7E
:1022C0004FF6FF7303EA01231A4382837047F0B588
:1022D0000C461546002200210026078C4EF6FF7C96
:1022E00007EA0C070784828B018C4FF6FF7707EA19
:1022F000043640F6FF473A404FF6FF7707EA0527D6
:102300003A434FF6FF7707EA03373A43D94FB842CB
:102310000ED0D94FB8420BD0B0F1804F08D0D74F74
:10232000B84205D0D64FB84202D0D64FB84206D1F7
:102330004DF6FF77394046F48057394305E047F6BC
:10234000FF57394044F48057394382830184F0BDFC
:10235000828B4FF6F3731A408283828B0A43828307
:102360007047F0B50C461546002200210026078C68
:102370004FF6FF6C07EA0C070784828B018C4FF63F
:10238000FF7707EA04264FF60C773A404FF6FF77BF
:1023900007EA03172F433A43B64FB8420ED0B64F61
:1023A000B8420BD0B0F1804F08D0B44FB84205D03E
:1023B000B34FB84202D0B34FB84206D14FF6FF57E1
:1023C000394046F48077394305E04FF2FF573940F2
:1023D00044F48077394382830184F0BD028B4FF24D
:1023E000FF331A400283028B4FF6FF7303EA012387
:1023F0001A4302837047F0B50C46154600220021AF
:102400000026078C4FF6EF7C07EA0C070784028B47
:10241000018C4FF6FF7707EA041640F6FF473A4073
:102420004FF6FF7707EA03373A434FF6FF7707EA9D
:1024300005273A438F4FB8420ED08F4FB8420BD08A
:10244000B0F1804F08D08D4FB84205D08C4FB842C4
:1024500002D08C4FB84206D14FF6DF77394046F0B4
:102460001007394305E04FF65F77394044F0100715
:10247000394302830184F0BD028B4FF6F3731A4097
:102480000283028B0A4302837047F0B50C4615465F
:1024900000220021068C4FF6FE773E400684028B18
:1024A000018C4FF60C7632407E1C06EA03162E4352
:1024B0003243704EB0420ED06F4EB0420BD0B0F1EE
:1024C000804F08D06D4EB04205D06D4EB04202D064
:1024D0006C4EB04206D14FF6FD76314044F0010615
:1024E000314305E04FF6F576314044F001063143C3
:1024F00002830184F0BD70B505460C465D488542F7
:102500000ED05D4885420BD0B5F1804F08D05B48B6
:10251000854205D05A48854202D05A48854200D1AA
:1025200000E000BF208850B92389A288618828462E
:10253000FFF7ABFFE1882846FFF79EFF25E02088E4
:1025400004280AD12389A28861882846FFF753FF0F
:10255000E1882846FFF742FF17E0208808280AD1C3
:102560002389A28861882846FFF7FBFEE188284678
:10257000FFF7EEFE09E02389A28861882846FFF76D
:10258000A6FEE1882846FFF795FE70BD2DE9F041D3
:1025900005460C4600260127608808B9022600E09F
:1025A0000026A088012801D1022700E00127208809
:1025B000A0B92389A28861882846FFF766FFE188D1
:1025C0002846FFF759FF23893A4631462846FFF748
:1025D00012FFE1882846FFF701FF13E02389A28854
:1025E00061882846FFF707FFE1882846FFF7F6FED7
:1025F00023893A4631462846FFF747FFE1882846B7
:10260000FFF73AFFBDE8F0810A884B881A438B88B0
:102610001A43CB881A430B891A434B891A438B8977
:102620001A43A0F8442070474FF6FF7181800021C3
:102630000180C1804180017270470021018041808A
:102640008180C180018141818181C18170470021E8
:1026500001804180012181800021C180018170477A
:102660000021018041808180C1800181418181817F
:1026700070470000002C014000340140000400407D
:1026800000080040000C004021B1028842F0010225
:10269000028004E002884FF6FE731A400280704701
:1026A00031B1B0F8442042F40042A0F8442005E0E3
:1026B000B0F84420C2F30E02A0F8442070471AB1CB
:1026C00083890B43838102E083898B438381704735
:1026D0008182704741EA0203A0F8483070471AB17E
:1026E00083890B43838102E083898B438381704715
:1026F00001894FF6F8721140018170470A460021A6
:1027000001894FF68F73194011430181704730B52D
:1027100004460D4629462046FFF7F0FF208940F089
:102720000700208130BD2DE9F04104460D461646D4
:102730001F46602D06D13B46012231462046FFF759
:102740005AFE05E03B46012231462046FFF79DFE3A
:1027500029462046FFF7D2FF208940F0070020815C
:10276000BDE8F08130B50C4600210189C9B24FF6B1
:10277000FF7505EA0325154325432943018130BD33
:102780002DE9F04105460E4617469846002443467B
:102790003A4631462846FFF7E5FF2C894FF6F87098
:1027A000044044F007044FF68F70044044F0700476
:1027B0002C81BDE8F081F0B504460D4616461F4653
:1027C0003B46324629462046FFF7CCFF208940F49D
:1027D00080402081F0BD0185828270470A46002139
:1027E00001884FF68F731940114301807047F0B58F
:1027F0000C4615461E460021002200230189028B4B
:10280000038C4FF6F877394021434FF6FC473A40A6
:1028100040F201173A434FF6DD773B404FF6FF7722
:1028200007EA06172F433B43018102830384F0BD6F
:102830000A460021018B4FF68F7319401143018323
:1028400070470A460021018B48F6FF7319404FF686
:10285000FF7303EA02231943018370470A460021EC
:10286000818B4FF68F7319401143818370470A465D
:102870000021818B48F6FF7319404FF6FF7303EA7E
:10288000022319438183704721B1028842F08002FC
:10289000028004E002884FF67F731A40028070477E
:1028A00021B1828842F00402828004E082884FF6DF
:1028B000FB731A408280704721B1828842F008027F
:1028C000828004E082884FF6F7731A408280704756
:1028D00021B1828842F00102828004E082884FF6B2
:1028E000FE731A40828070470A460021018B4FF622
:1028F000F77319401143018370470A460021018B89
:102900004FF2FF7319404FF6FF7303EA0223194396
:10291000018370470A460021818B4FF6F7731940F7
:102920001143818370470A460021818B4FF2FF7368
:1029300019404FF6FF7303EA02231943818370475E
:102940000A460021018B4FF6FB73194011430183A6
:1029500070470A460021018B4FF6FF3319404FF6AE
:10296000FF7303EA02231943018370470A460021DB
:10297000818B4FF6FB7319401143818370470A46E0
:102980000021818B4FF6FF3319404FF6FF7303EAA6
:1029900002231943818370470A460021018B4FF6B9
:1029A0007F7319401143018370470A460021018B50
:1029B000C1F30E014FF6FF7303EA022319430183AB
:1029C00070470A460021818B4FF67F7319401143EF
:1029D000818370470A460021818BC1F30E014FF6B7
:1029E000FF7303EA02231943818370470A460021DB
:1029F000018C4FF6FD7319401143018470470A465C
:102A00000021018C4FF6F773194011430184704780
:102A10000A460021018C4FF6DF7319404FF6FF7311
:102A200003EA02131943018470470A460021018C0E
:102A30004FF67F7319404FF6FF7303EA02131943F1
:102A4000018470470A460021018C4FF6FF5319405C
:102A50004FF6FF7303EA02231943018470470A46C5
:102A60000021018C4FF2FF7319404FF6FF7303EA08
:102A700002231943018470470A460021018C4DF658
:102A8000FF7319404FF6FF7303EA023319430184C1
:102A9000704730B5002301248C40A3B2048C9C43C2
:102AA0000484048C02FA01F5ADB22C43048430BDD9
:102AB00030B5002304248C40A3B2048C9C430484CE
:102AC000048C02FA01F5ADB22C43048430BD70B51C
:102AD0000346002000241846183001258D40ACB272
:102AE0001D8CA5431D8409B1082909D100EB6100A3
:102AF000056825F0700505600568154305600EE062
:102B00000D1FC5F34E052844056825F4E045056012
:102B100005684FF6FF7606EA02263543056070BD6C
:102B200021B1028842F00202028004E002884FF6DE
:102B3000FD731A400280704721B1028842F00402FE
:102B4000028004E002884FF6FB731A40028070474F
:102B500021B1828842F08002828004E082884FF6B0
:102B60007F731A408280704702884FF6F7731A40CD
:102B7000028002880A430280704782884FF68F7372
:102B80001A40828082880A438280704702894FF609
:102B9000F8731A40028102890A4302817047028950
:102BA0004FF67F731A40028102890A4302817047FF
:102BB000818470478185704781867047018770479F
:102BC00081877047A0F84010704702884FF6FF4396
:102BD0001A40028002880A43028070470146888EAC
:102BE00070470146088F70470146888F704701463D
:102BF000B1F8400070470146888C70470146088D47
:102C0000704702460020138A0B400BB1012000E000
:102C100000207047CA430282704730B50246002048
:102C200000230024158A05EA0103958905EA0104B9
:102C300013B10CB1012000E0002030BDCA43028274
:102C4000704700000E49086070470D4948607047A2
:102C50000B49886070474AF6AA2009490860704706
:102C60004CF6CC4006490860704701460020044AF3
:102C7000D2680A400AB1012000E00020704700003D
:102C80000030004010B50446BE48844208D10121FE
:102C90008014FEF7CDFC0021A014FEF7C9FC16E05D
:102CA000B948844208D101210014FEF7CEFC00216E
:102CB0002014FEF7CAFC0AE0B448844207D101217F
:102CC000C013FEF7C2FC0021E013FEF7BEFC10BDEE
:102CD00010B50022028802F441520B884C8823432D
:102CE0008C882343CC8823430C8923434C8923437A
:102CF0008C892343CC8923431A430280838B4FF270
:102D0000FF74234083830B8A038210BD2DE9F04FAB
:102D100085B005460C464FF0000902274FF0000829
:102D20004FF0010B0026B246A88B4FF2400108403D
:102D3000A88302202884B5F81C90A068022801D13D
:102D400000BF38E0A08810B94FF0010B01E04FF050
:102D5000020B8D48854200D100E000BF6846FEF7B7
:102D6000E0FBDDF800A0E088B0F5007F0AD14FEA73
:102D70001A2000EB80004000A168B0FBF1F0401D7C
:102D800086B20BE04FEA4B10BAFBF0F000EB80008C
:102D90004000A168B0FBF1F0401D86B20A20B6FBEE
:102DA000F0F606F00108A6EB0800C0F34F074FF657
:102DB000FF7000EA0828022F01DBFF2F02DD022747
:102DC0004FF00008E08840EA080038432884A088D3
:102DD000A1890843618808432188084340F40060C2
:102DE00040EA0909A5F81C9005B0BDE8F08F002164
:102DF000018041808180C180018141818181C181C7
:102E00000721018270470021018041808180C180BB
:102E10000221816000218181704721B1028842F046
:102E20004002028004E002884FF6BF731A4002801D
:102E3000704721B1828B42F48062828304E0828BEE
:102E40004FF6FF331A408283704730B500240023C9
:102E50000C110125A540ABB21AB185881D438580B0
:102E600002E085889D43858030BD1AB183880B437D
:102E7000838002E083888B43838070478181704721
:102E80000146888970474FF6FF62914204D002885C
:102E900042F48072028004E002884FF6FF631A4019
:102EA0000280704721B1828842F00402828004E0EF
:102EB00082884FF6FB731A408280704702884FF277
:102EC000FF731A40028002880A430280704701881B
:102ED00041F480510180704721B1028842F40052D0
:102EE000028004E002884DF6FF731A4002807047AA
:102EF00002460020012901D0108B00E0908A704723
:102F00000146088A7047B1F5804F04D1028842F427
:102F10008042028004E002884BF6FF731A40028070
:102F200070470246002013890B400BB1012000E0DE
:102F300000207047CA4302817047F0B50246002066
:102F400000240023002501F00F070126BE40B4B283
:102F50000B1101269E40B3B2968806EA0305168936
:102F6000264016B10DB1012000E00020F0BD10B5E3
:102F7000002201F00F040123A3409AB2D34303813E
:102F800010BD00000030014000380040003C00400F
:102F90000648804706480047FEE7FEE7FEE7FEE7F3
:102FA000FEE7FEE7FEE7FEE7FEE7FEE74311000867
:102FB0003101000800B970470260C160C368436016
:102FC000C368836000BFF6E700B970470021C160A5
:102FD00041608160016000BFF7E7014611B96FF001
:102FE000320070470868FCE700B5024612B96FF07E
:102FF0001E0000BDD2E90101884201D10020F8E79E
:10300000D2E90101884203D2D2E90110401AF0E767
:103010001046FFF7E2FFD2E90113C91A401AE8E7A8
:1030200030B5044614B96FF0280030BD2046FFF7D4
:10303000D4FF05462046FFF7D7FF281AF5E72DE90C
:10304000F04104460F46164600251CB96FF01400E7
:10305000BDE8F08117B96FF01500F9E7D4E9010177
:10306000884214D22046FFF7BFFFB04201D9304654
:1030700002E02046FFF7B8FF05462A463846616859
:1030800000F084F96068284460602846E0E7204644
:10309000FFF7A3FFE2686168891A401AB0420AD9B3
:1030A00035462A463846616800F070F96068284461
:1030B00060602846CCE72046FFF78FFFE268616832
:1030C000891A451A2A463846616800F05FF9E068B7
:1030D0006060721B79192046FFF7B1FF054428464E
:1030E000B6E72DE9F04104460F46154600261CB907
:1030F0006FF00A00BDE8F08117B96FF00B00F9E737
:103100002046FFF78DFFA84202D86FF00C00F1E7D0
:10311000D4E9010188422AD82046FFF75EFFD4E9AE
:103120000212891A461AB54213D82A463946A068AF
:1031300000F02CF9A0682844A0602046FFF74DFF5E
:10314000E1680844A168884201D1E068A06028468F
:10315000D0E732463946A06800F018F9E068A06070
:10316000AA1BB9192046FFF7BCFF3044C2E72A4624
:103170003946A06800F00AF9A0682844A0602846F3
:10318000B8E72DE9F04107460C461546002614B96C
:10319000701EBDE8F0812A4621463846FFF7A1FFA0
:1031A0000646AE4202D06FF00100F2E73046F0E78B
:1031B00010B504462046FDF736FD10BD10B5044697
:1031C0002046FDF754FD10BD00B587B001218803EE
:1031D000FEF721FA01210C20FEF710FA4FF40050FF
:1031E000ADF8040003208DF8060018208DF80700C4
:1031F00001A96348FEF7CAFC4FF48040ADF8040013
:1032000048208DF8070001A95D48FEF7BFFC4FF488
:103210000040ADF8040018208DF8070001A95848B7
:10322000FEF7B4FC4FF48050ADF8040003208DF895
:10323000060010208DF8070001A95148FEF7A6FCF2
:103240000820ADF8040003208DF8060010208DF84A
:10325000070001A94B48FEF799FC4FF48070ADF8C8
:10326000040003208DF8060010208DF8070001A946
:103270004448FEF78BFC08204249143108604002A4
:103280003F49103108600020ADF808004FF482700B
:10329000ADF80A000020ADF80C00ADF80E00ADF856
:1032A00010004815ADF812000820ADF814000020F9
:1032B000ADF816000720ADF8180002A93248FFF754
:1032C00007FD01213048FFF7A8FD0120ADF80400FB
:1032D00048208DF8070001A92A48FEF757FC07B0DF
:1032E00000BD014600BF28480830008800F00200F9
:1032F0000028F8D024480C30018000BF2248083054
:10330000008800F001000028F8D01F480C30008829
:10331000C0B2704710B504464FF4805018491031C0
:1033200008600860091D08602046FFF7DAFF0220E8
:10333000FFF73EFF10BD00B502461046FFF7D1FF74
:1033400000BD00B5FF20FFF7CCFF00BD0D480830E1
:10335000006800F0010080F00100704710B54FF4E4
:103360008070084914310860FA20FFF727FF4FF4F6
:103370008070044910310860FA20FFF71FFF10BD6C
:10338000000C0140000801400038004040EA010301
:103390009B0703D009E008C9121F08C0042AFAD20B
:1033A00003E011F8013B00F8013B521EF9D27047CF
:1033B0002DE9F05F0546002092469B46884606466A
:1033C000814640241BE0284641464746224600F0FD
:1033D00042F853465A46C01A914110D31146184636
:1033E000224600F029F82D1A67EB01084F462246C5
:1033F0000120002100F020F817EB00094E41201EAB
:10340000A4F10104DFDC484631462A464346BDE8C4
:10341000F09F0000064C074D06E0E06840F0010315
:1034200094E8070098471034AC42F6D3FCF784FECA
:103430001C3900083C390008202A04DB203A00FA35
:1034400002F1002070479140C2F1200320FA03F3FB
:10345000194390407047202A04DB203A21FA02F0F9
:103460000021704721FA02F3D040C2F120029140BE
:1034700008431946704700000FB4054B10B503A967
:10348000044A029800F018F810BC5DF814FB000024
:10349000B90E00086C00002002E008C8121F08C125
:1034A000002AFAD170477047002001E001C1121FC5
:1034B000002AFBD1704700002DE9FF4F8DB00F4669
:1034C0000546002606E025280BD0DDE90F129047BF
:1034D0006D1C761C28780028F5D111B03046BDE867
:1034E000F08F0024A246A1460122EC4900E00443EB
:1034F00015F8013F203B02FA03F00842F7D1287883
:103500002A2810D06FF02F022878A0F13001092965
:1035100014D80AEB8A0102EB410144F0020400EBEB
:10352000010A6D1CF0E701CF5FEA000A03D544F4FD
:103530000054CAF1000A44F002046D1C28782E28B9
:1035400017D115F8010F44F004042A280ED06FF0AB
:103550002F022878A0F1300109290AD809EB890146
:1035600002EB410100EB01096D1CF2E757F8049BE7
:103570006D1C28786C280FD006DC4C2817D06828E2
:103580000DD06A2814D104E0742810D07A280FD105
:103590000DE044F400140AE044F4801401E044F423
:1035A00040146978814202D104F580146D1C6D1CB1
:1035B0002A786E2A1FD00CDC632A31D004DC002A62
:1035C0008BD0582A11D1A3E0642A68D0692A0CD183
:1035D00065E0732A2ED004DC6F2A73D0702A04D1E0
:1035E0009BE0752A6FD0782A6ED01046DDE90F1265
:1035F0009047761C50E1C4F30250022806D00328FD
:1036000009D0042801CF09D0066045E101CFF117A8
:10361000C0E9006140E101CF06803DE106703BE179
:1036200017F8040B8DF8000000208DF80100EB4620
:10363000012003E057F804BB4FF0FF3061074FF063
:10364000000102D40DE008F10101884649450FDA76
:103650008045F8DB1BF808100029F4D108E008F1D8
:10366000010188468142FADB1BF808100029F6D1D7
:10367000DDE90F23AAEB08008146214600F036F968
:10368000304400EB080604E0DDE90F121BF8010BE3
:103690009047B8F10108F7D221464846F7E00A21E1
:1036A000C4F302534FF0000B0891022B04D001CF5A
:1036B000C117032B09D00AE0FF1D27F00707F7E821
:1036C000020108E032E01FE020E000B2C117042B45
:1036D00001D140B2C117031E71F1000307DA4FF0A8
:1036E000000CD0EB0C006CEB01012D2302E0230554
:1036F00004D52B238DF82430012303E0E30701D008
:103700002023F7E7984658E00A2110E010210EE048
:1037100010204FF0000B08900CE010214FF0000B30
:1037200044F004044FF00809089103E008214FF029
:10373000000B0891C4F30253022B04D001CF0021E7
:10374000032B06D006E0FF1D27F00707F7E802016C
:1037500003E080B2042B00D1C0B24FF00008230771
:103760002BD5702A07D0DDF820C08CF0100C5CEA55
:103770000B0C05D00EE040238DF82430012308E027
:1037800050EA010306D030238DF824308DF825202F
:1037900002239846DDF820C08CF0080C5CEA0B0C84
:1037A0000BD150EA010301D1630706D530238DF810
:1037B00024304FF00108A9F10109582A04D038A299
:1037C0000B9208AA0A920BE03AA2F9E75B46089A24
:1037D000FFF7EEFD0B9B9B5C0A9A521E0A92137038
:1037E00050EA0102F2D10A98ADEB000000F1200B83
:1037F000600702D524F4803401E04FF00109D94577
:1038000002DDA9EB0B0000E0002000EB0B014144BE
:103810000890AAEB010AE00306D4DDE90F23214654
:10382000504600F063F806444FF0000908E009A98B
:1038300011F80900DDE90F12904709F10109761C22
:10384000C145F4DBE0030CD5DDE90F2321465046EA
:1038500000F04CF8064404E0DDE90F1230209047F8
:10386000761C0899481E08900029F5DC08E00A98A3
:103870000A990078491C0A91DDE90F129047761CDD
:10388000BBF10001ABF1010BF1DC21465046DDE953
:103890000F2300F019F806446D1C1BE609280100EF
:1038A00030313233343536373839616263646566B6
:1038B0000000000030313233343536373839414278
:1038C00043444546000000002DE9F0410446002530
:1038D0001E461746880404D405E039462020B04728
:1038E0006D1C641EF9D52846BDE8F0812DE9F04134
:1038F000044600251E469046C80301D5302700E047
:103900002027880404D505E041463846B0476D1CA1
:10391000641EF9D52846BDE8F08100003C39000856
:10392000000000207000000098340008AC39000846
:103930007000002038100000A834000800000000CB
:103940000100000000000000000000000000000076
:103950000000000000000000ACF7FF1FE8F7FF1FA9
:10396000107AFF1FACF7FF1F107AFF1F20F4F01F23
:103970005000F81F5000F81F9075FF1F20F4F01F33
:1039800000A24A040000000000000000010203043D
:1039900006070809000000000102030401020304F5
:0C39A000060708090204060800000000E9
:0400000508000131BD
:00000001FF
