:1030D4004572726F723A20253032580A00736F635A
:1030E4006B696E646578203D25640A0073656E64BF
:1030F400206461746120737563636573730A00549B
:10310400435020436F6E6E6563740A006C656E3ABB
:1031140025640A004D794275666665723A0A25731C
:103124000A0054435020446973636F6E6E65637480
:103134000A005443502054696D6F75740A00496E37
:10314400697420737461747573203A2047494E542E
:103154005F535441545F5048595F4348414E47457B
:103164000A0045746865726E657420446973636F00
:103174006E6E6563740A0067657420736F636B65B4
:103184007469640A006674702E536F636B657443CC
:10319400746C203D2025640A004552524F523A2057
:1031A4006F6E6C7920737570706F72742061206318
:1031B4006F6E74726F6C20736F636B657420636FD2
:1031C4006E6E65637465640A006674702E536F6373
:1031D4006B6574446174203D2025640A0045525295
:1031E4004F523A206F6E6C7920737570706F7274E1
:1031F4002061206461746120736F636B6574206364
:103204006F6E6E65637465640A00434833393546EE
:1032140054502044656D6F0A0043483339352043C8
:103224006F6E6E6563742045746865726E65740AAA
:013234000099
:0744BF007FFA1244C67FFAE8
:0744C600AE071FEE70FA22A1
:10443200AD07AF051DEF60081244BF1244BF80F202
:014442002257
:09452C00D29475D55C43AA082263
:0D44E9008F86E5AA30E7FB53AA7FAF86223D
:03447400E4FCFB6A
:0C447700D294C2941244E97F020244C6B1
:10404700900B65E0FBA3E475F0011224F0A9F0FAE8
:1040570012240FFF124072900B65E0FBA3E475F08A
:0B406700011224F0A9F0FA12240FFF50
:034072000244E91C
:0844CD00124477AF05124072A2
:0544D5007FFF1244E925
:0144DA0022BF
:08453E007F05124477D294229C
:084546007F03124477D2942296
:0A44F6007F011244771244D5D294DE
:014500002298
:02452200AD07E3
:074524007F061244CDD29482
:01452B00226D
:0F448300AD077F20124477AF05124072D294220A
:0A4501007F261244771244D5D294AD
:01450B00228D
:0A450C007F291244771244D5D2949F
:014516002282
:10407500E4900B43F0FD7F27124477D2947F0A1218
:104085004432124459AD07EDB41010900B43E0FFD4
:0D40950004F0EFD394C840E57FFA22AF0598
:0140A20022FB
:103F0600900BFA1225727F02124477900BFAA3A344
:103F1600A3E0FF124072900BFAA3A3E0FEEEFF129D
:103F26004072900BFAE0FCA3E0FDA3E0FEA3E0FFE5
:0B3F3600781012254C124072D2942229
:054454007F0512443257
:0A4459007F2C1244771244D5D29450
:014463002236
:0B42A900900B43EBF0A3EAF0A3E9F058
:1042B4007F22124477E4FE900B431240610EEEB469
:0442C40004F5D29497
:0142C80022D3
:0B42C900900B43EBF0A3EAF0A3E9F038
:1042D4007F23124477E4FE900B431240610EEEB448
:0442E40004F5D29477
:0142E80022B3
:0B42E900900B43EBF0A3EAF0A3E9F018
:1042F4007F24124477E4FE900B431240610EEEB427
:0443040004F5D29456
:014308002292
:0B426400900C02EBF0A3EAF0A3E9F0DD
:10426F007F21124477E4FE900C021240610EEEB4EF
:09427F0006F5D2947F640244327A
:0B3FB400900C05EBF0A3EAF0A3E9F08D
:103FBF007F40124477E4FE1244D5900C05E0FBA33A
:103FCF00E475F0011224F0A9F0FAEF1224550EEE69
:053FDF00B406E4D294D9
:013FE40022BA
:1038EC00AD077F25124477AF05124072900BE6A30B
:1038FC00A3A3E0FF124072900BE6A3A3E0FEEEFF41
:10390C00124072900BE6E0FCA3E0FDA3E0FEA3E006
:10391C00FF781012254C124072900BE6E0FCA3E0ED
:10392C00FDA3E0FEA3E0FF781812254C124072A311
:10393C00A3A3A3E0FF124072900BEAA3A3E0FEEE58
:10394C00FF124072900BEAE0FCA3E0FDA3E0FEA3A3
:10395C00E0FF781012254C124072900BEAE0FCA3A9
:10396C00E0FDA3E0FEA3E0FF781812254C12407294
:03397C00D29422C0
:0B3FE500900B4FEBF0A3EAF0A3E9F013
:103FF0007F28124477E4FE1244D5900B4FE0FBA3D8
:10400000E475F0011224F0A9F0FAEF1224550EEE37
:05401000B408E4D294A5
:014015002288
:0D3F7C00900C08EBF0A3EAF0A3E9F0AD070C
:103F89007F2D124477AF05124072E4FE1244D5909A
:103F99000C08E0FBA3E475F0011224F0A9F0FAEF94
:0A3FA9001224550EEEB406E4D29483
:013FB30022EB
:10430900900B65EBF0A3EAF0A3E9F0AD077F31125A
:104319004477AF05124072124047124047D29422A7
:10423F00E0FF75F01CA424EDF582E4340AF583E069
:01424F00FD71
:10425000AC077F34124477AF04124072AF051240AE
:0442600072D2942260
:10434400AB077F32124477AF03124072AF051240BD
:0943540072ECFF124072D29422B7
:1040A300E0FF75F01CA424F6F582E4340AF583E0FE
:0440B300FCA3E0FD8D
:1040B700AB077F33124477AF03124072AF0512404C
:0940C70072ECFF124072D2942247
:1043F800AC077F3E124477AF04124072AF051240FB
:0444080072D29422B6
:0F449200AD077F3F124477AF05124072D29422DC
:0D3DF800900B65EBF0A3EAF0A3E9F0AD0736
:103E05007F39124477AF05124072A3A3E0FF124039
:103E150072900B68E0FF124072E4FDFCD3900B69D1
:103E2500E09D900B68E09C400D900B651240610D84
:083E3500BD00010C80E6D294EF
:013E3D002262
:02432900AD07DE
:10432B007F3B1244CDAD077C001244D5EFFEE42D4C
:08433B00FDEC3ED294FEAF053B
:014343002257
:0F44A100AD077F2E124477AF05124072D29422DE
:0B3B6B00900B53EFF0A3ECF0A3EDF083
:103B76004C60487F3C124477900B53E0FF12407232
:103B8600A3A3E0FF124072900B54E0FF1240727F35
:103B9600011244C6E4FDFCD3900B55E09D900B54F6
:103BA600E09C40151244D5EF122455740129F9E41E
:0B3BB6003AFA0DBD00010C80DED29435
:013BC10022E1
:0F44B000AD077F2A124477AF05124072D29422D3
:10438C00AD07AC067F2A124477AF05124072ECFFE2
:06439C00124072D29422CF
:103EC600900C0BEBF0A3EAF0A3E9F0AD077F2F12FD
:103ED60044CD900C0BE0FBA3E475F0011224F0A98D
:103EE600F0FAEF1224551244D5900C0BE0FBA3E434
:103EF60075F0011224F0A9F0FAEF122455D294229B
:0241F300AD0716
:1041F5007F35124474AF05124072D294124454AB09
:1042050007EBB4100CAF040CEFD394C840EE7FFA63
:0342150022AF03D2
:014218002283
:02421900AD07EF
:10421B007F3D124474AF05124072D294124454ABDA
:10422B0007EBB4100CAF040CEFD394C840EE7FFA3D
:03423B0022AF03AC
:01423E00225D
:02412800AD07E1
:10412A00E4FCFB7F37124477AF05124072D2941237
:10413A004454AB07EBB4100CAF040CEFD394C84053
:06414A00EE7FFA22AF0334
:01415000224C
:02415100AD07B8
:10415300E4FCFB7F36124477AF05124072D294120F
:104163004454AB07EBB4100CAF040CEFD394C8402A
:06417300EE7FFA22AF030B
:014179002223
:02417A00AD078F
:10417C00E4FCFB7F38124477AF05124072D29412E4
:10418C004454AB07EBB4100CAF040CEFD394C84001
:06419C00EE7FFA22AF03E2
:0141A20022FA
:02437500AD0792
:104377007F30124477AF051240727F021244C61293
:0443870044D5D294B3
:01438B00220F
:0B2F5F00900BC4EBF0A3EAF0A3E9F034
:102F6A00900BCF12257E04C11DB7900BD312257E7C
:102F7A00FFFFFFFF900BC712257E00000000E47FD1
:102F8A0006FEFDFC900BC7E0F8A3E0F9A3E0FAA364
:102F9A00E0FBC312252540030230B2900BC4E0FBCC
:102FAA00A3E475F0011224F0A9F0FA12240F900B91
:102FBA00D7F0900BCB12257E00000000E47F08FEBC
:102FCA00FDFC900BCBE0F8A3E0F9A3E0FAA3E0FB49
:102FDA00C3122525400302308A900BD3E0FCA3E0FC
:102FEA00FDA3E0FEA3E0FF781F12254CA905AA065F
:102FFA00AB07A3E0FFEB6FFFEF5401FFEF60189000
:10300A000BCFE0FCA3E0FDA3E0FEA3E0FFC004C0F9
:10301A0005C006C007800DE4FBFAF9F8C000C0013C
:10302A00C002C003900BD3E0FCA3E0FDA3E0FEA323
:10303A00E0FF780112255FD003D002D001D000EF63
:10304A006BFFEE6AFEED69FDEC68FC900BD312256E
:10305A0072900BD7E0C313F0900BCBE0FCA3E0FD1A
:10306A00A3E0FEA3E0FFE4FAF9F8EF2401FFEA3E49
:10307A00FEE93DFDE83CFC900BCB122572022FC6FF
:10308A00900BC7E0FCA3E0FDA3E0FEA3E0FFE4FA97
:10309A00F9F8EF2401FFEA3EFEE93DFDE83CFC9029
:1030AA000BC7122572022F88900BD3E0FCA3E0FD18
:1030BA00A3E0FEA3E0FF781A12254C900BD3122549
:0930CA0072900BD3A3A3A3E0FF55
:0130D30022DA
:0241A300AD0766
:1041A500E4FC7F41124477AF05124072D2947F142C
:1041B500124432124459EFB4100CAE040CEED394F1
:0641C500C840EB7FFA2266
:0141CB0022D1
:0A4517007F421244771244D5D2947B
:014521002277
:0B401600900C0EEBF0A3EAF0A3E9F021
:104021007F43124477E4FE1244D5900C0EE0FBA3CB
:10403100E475F0011224F0A9F0FAEF1224550EEE06
:05404100B414E4D29468
:014046002257
:10444300AC077FED124477AF04124072AF05024010
:0144530072F6
:0243CE00AD0739
:1043D0007FEC124477AF051240727F011244321213
:0243E00044D5C2
:0143E20022B8
:10440C007FE91244777F14124432124459EF64103E
:02441C0060F34B
:01441E00227B
:0F3CC200900BF0EBF0A3EAF0A3E9F0AD07AC062E
:103CD1007FEA124477AF05124072ECFF124072A3E3
:103CE100E0801D900BF3E0FF14F0EF6019900BF0F2
:103CF100E0FBA3E475F0011224F0A9F0FA12240FFD
:103D0100FF12407280DD7F14124432124459EF6475
:033D11001060F34C
:013D1400228C
:103D6300900BF6EBF0A3EAF0A3E9F0AD07AC067F06
:103D7300EB124477AF05124072ECFF124072A3E0DE
:103D8300FF1240727F01124432900BF9E0FF14F0EE
:103D9300EF60191244D5900BF6E0FBA3E475F00134
:0D3DA3001224F0A9F0FAEF12245580DD2261
:10441F00AD07AC067F50124477AF05124072ECFF28
:03442F00024072D6
:1043A200AC077F52124477AF04124072AF0512403D
:0643B20072AF030240722D
:1043B800AC077F53124477AF04124072AF05124026
:0643C80072AF0302407217
:103C6E00900BD8EBF0A3EAF0A3E9F0A31225729023
:103C7E000BE4E0FF900BDFE0FBA3E0FAA3E0F91208
:103C8E004309900BE4E0FF900BE2E0FCA3E0FD1291
:103C9E004344900BD8E0FBA3E0FAA3E0F9A3A3A35F
:103CAE00E0FFA3E0900B68CFF0A3EFF0900BE4E001
:043CBE00FF023DF8CC
:103D1500900BFE1225727F55124477900BFEA3A3DC
:103D2500A3E0FF124072900BFEA3A3E0FEEEFF128C
:103D35004072900BFEE0FCA3E0FDA3E0FEA3E0FFD4
:103D4500781012254C124072900BFEE0FCA3E0FDAA
:0E3D5500A3E0FEA3E0FF781812254C02407296
:104288007F191244777F021244C61244D5AD077CC9
:10429800001244D5EFFEE42DFDEC3ED294FEAF05AE
:0142A80022F3
:0B40D000900B53E0FF124219A3EFF029
:1040DB00EF601D7BFF7A3079D4900B69E4F0A3EF8E
:1040EB00F0121CEA7FC81244327FC812443280F4AB
:0140FB0022A2
:103DB0007E007F237D007B017A0B791F1225AF786F
:103DC0001F7C0B7D017B017A0B79A17E007F0412A1
:103DD00023E978237C0B7D017B017A0B79BA7E0085
:103DE0007F041223E978277C0B7D017B017A0B7914
:083DF000B67E007F040223E906
:103E3E0075F01CA424EDF582E4340AF5837403F0C6
:103E4E00EF75F01CA424EFF582E4340AF5837401B7
:013E5E00F073
:053E5F00900B62EFF082
:103E640012423F900B621240A3900B62E0FF12419A
:0F3E7400F31240DB900B62E0FF1241510240DB82
:053C1900900B64EFF0C8
:103C1E00E075F01CA424E3F9740A35F0FA7B01E098
:103C2E00FF124309900B6412423F900B64E0FF7544
:103C3E00F01CA424F4F582E4340AF583E0FCA3E03E
:103C4E00FD124344900B641240A3900B64E0FF12EC
:103C5E0041F31240DB900B64E0FF1241280240DB7F
:103A9200900B53EFF07E007F1CC006C0077D00E054
:103AA20075F01CA424E3F9740A35F0FA7B01D007FF
:103AB200D0061225AF900B53E0FF75F01CA424F63C
:103AC200F582E4340AF583E4F0A37415F0EF123EB4
:103AD2003E7E027F18C006C0077F00C007900B53CE
:103AE200E0FF7E007C027D1812248974B32FF974E2
:0E3AF200063EFA7B01D005D007D0060225AFB4
:1036D400900B5EEFF0A3EBF0A3EAF0A3E9F0900BFC
:1036E40042E0FFC394644006EFD394C84006900BB5
:1036F400427464F0900B42E004F07E007F1CC0062C
:10370400C0077D00900B5EE075F01CA424E3F974FF
:103714000A35F0FA7B01D007D0061225AF900B4290
:10372400E02400FFE43405FE900B5EE0FD75F01C20
:10373400A424F6F582E4340AF583EEF0A3EFF0ED69
:1037440075F01CA424F6F582E4340AF583E0F9A3A9
:10375400E0FF900B5FE0FBA3E0FAA3E0C98FF01257
:103764002506900B5EE0FF123E3E7E027F18C006E7
:10377400C0077F00C007900B5EE0FF7E007C027DE7
:103784001812248974B32FF974063EFA7B01D0050C
:07379400D007D0060225AFAB
:10351700900B5EEFF0A3ECF0A3EDF0A3EBF0A3EAC2
:10352700F0A3E9F07E007F1CC006C0077D00900B6A
:103537005EE075F01CA424E3F9740A35F0FA7B0108
:10354700D007D0061225AF900B5EE075F01CA424BF
:10355700E3F9740A35F0A801FC7D01900B61E0FBEB
:10356700A3E0FAA3E0F97E007F041223E9900B5F42
:10357700E0FCA3E0FD900B5EE0FF75F01CA424F4D3
:10358700F582E4340AF583ECF0A3EDF0EF75F01C57
:10359700A424F6F582E4340AF583E4F0A37414F066
:1035A700EF75F01CA424EDF582E4340AF583740367
:1035B700F0EF75F01CA424EFF582E4340AF583E4F8
:1035C700F0123C197E027F18C006C0077F00C007B3
:1035D700900B5EE0FF7E007C027D1812248974B395
:1035E7002FF974063EFA7B01D005D007D0060225D5
:0135F700AF24
:05287B00900B4FEFF08F
:102880007BFF7A3079E1900B69E4F0A3EFF0121C42
:10289000EA900B4FE0FF124375A3EFF0900B50E06E
:1028A00030E1247BFF7A3079F0121CEA90057DE05C
:1028B000B40814900585E0FF900B4FE0B50708E4DD
:1028C00090057DF0124219900B50E030E32A7BFF17
:1028D0007A317903121CEA900B4FE0FF12379B907C
:1028E000057EE0B40112900584E0B4020BE490058B
:1028F0007EF090057D7402F0900B50E020E2030220
:1029000029F4900B4FE0FF124329900B51EEF0A3F6
:10291000EFF04E70030229F4D3E09418900B51E0CD
:10292000940240077402F0A37418F0900B4FE0FF7C
:102930007E007C027D1812248974B32FF974063E40
:10294000FA7B01E0FF900B51E0FCA3E0FD123B6B32
:10295000900B51E0FEA3E0FF900B4FE075F01CA43C
:1029600024FAF582E4340AF583EEF0A3EFF07BFF5E
:102970007A317910900B69EEF0A3EFF0121CEA9017
:102980000B4FE0FF7E007C027D1812248974B32F68
:10299000F974063EFA900B697401F0A3EAF0A3E91A
:1029A000F07BFF7A317918121CEA900B4FE0FF7E22
:1029B000007C027D1812248974B32FF974063EFA44
:1029C0007B01E0FD123BC27E027F18C006C0077F7C
:1029D00000C007900B4FE0FF7E007C027D181224A0
:1029E0008974B32FF974063EFA7B01D005D007D065
:1029F000061225AF900B50E030E43C7BFF7A317932
:102A000026121CEA900B4FE0FF124219900585E058
:102A1000FF900B4FE0B5070D9005837401F0E4FFC4
:102A2000123A928012900586E0FF900B4FE0B507B6
:102A3000069005847401F0900B50E030E63A7BFF7D
:102A40007A317936121CEA900B4FE0FF124219904E
:102A50000585E0FF900B4FE0B5070B9005837401EF
:102A6000F0E4FF023A92900586E0FF900B4FE0B54C
:082A700007069005847401F0D3
:012A7800223B
:10385100124288900B43EEF0A3EFF030E0097B01B8
:103861007A0B7945123FE5900B44E030E21C7BFF77
:103871007A317942121CEA1245017E00EF6401702F
:10388100097BFF7A317966121CEA900B44E030E43F
:1038910005E4FF12287B900B44E030E5057F01121F
:1038A100287B900B44E030E6057F0212287B900BC9
:1038B10044E030E7057F0312287B900B43E030E0C2
:1038C100057F0412287B900B43E030E1057F051250
:1038D100287B900B43E030E2057F0612287B900B9A
:0A38E10043E030E3057F0712287B67
:0138EB0022BA
:1040FC007F65124522EF649A60037FFA227B017A76
:10410C000B791F1242A97B017A0B79231242C97BCE
:0B411C00017A0B79271242E91240756E
:014127002275
:10435D0075985075878075CAFA75CCFA75CBFF754F
:08436D00CDFF75C834D299227E
:10446400900B63E0FF900B68ECF0A3EDF0023DF8D5
:05379B00900B53EFF05C
:1037A0007BFF7A31797B121CEA900B53E0FF75F0B6
:1037B0001CA424F6F582E4340AF583E0FCA3E0645B
:1037C000154C702D900583E0D3940150187402F0CD
:1037D000900585EFF07BFF7A317989900B69E4F0F1
:1037E000A3EFF080091240D07BFF7A31799D121C43
:1037F000EA900B53E075F01CA424F6F582E4340A39
:10380000F583E0FEA3E0FF64144E6013900B42E0EA
:103810002400FDE43405FCEF6D7002EE6C70319015
:103820000584E0D39401501C7402F0900B53E0FF28
:10383000900586F07BFF7A3179CD900B69E4F0A397
:10384000EFF080091240D07BFF7A3179E1121CEA57
:013850002255
:1035F8007B017A0579787E007F0F7D001225AF90D8
:10360800058674FFF0900585F0122A797E007F11F7
:103618007D007B017A0B79A51225AFE4FFFE74A12A
:103628002EF582E4340BF583E075F06484603B2466
:1036380030FDAC070F74A52CF582E4340BF583ED4F
:10364800F074A12EF582E4340BF583E075F0648400
:10365800E5F075F00A842430FDAC070F74A52CF54D
:1036680082E4340BF583EDF0802574A12EF582E415
:10367800340BF583E075F00A8460142430FDAC0740
:103688000F74A52CF582E4340BF583EDF0800074FB
:10369800A12EF582E4340BF583E075F00A84E5F099
:1036A8002430FDAC070F74A52CF582E4340BF583A8
:1036B800EDF0AD070F74A52DF582E4340BF5837496
:0B36C8002EF00EEE64046003023626B4
:0136D30022D4
:103F41007F6412443212435D1235F87BFF7A327975
:103F51000E121CEA12452C123DB01240FC1240DB3D
:103F6100124501BF01077FC812443280F37BFF7AFB
:0B3F710032791D121CEAE4FF023A92B4
:1015C900436D64506F727449503A2025642E256426
:1015D9002E25642E25640A004E756D506F72742095
:1015E9003D20253038640A004E616D653A20257327
:1015F9000A005553455200504153530068617665BE
:10160900206D6F726520617574686F726974790AEB
:1016190000504F5254004C49535400300053544F1A
:10162900520025732025732E0D0A0052455452008D
:101639002573A3A82573292E0D0A00515549540075
:10164900545950450025732025632E0D0A007379DE
:10165900737400505744004357440025732E0D0AF4
:1016690000504153560025732573253032642E25C9
:10167900303264292E0D0A0053495A450025732535
:10168900640D0A0044454C45006E6F6F7000524E60
:10169900465200524E544F003031323334353637CA
:1016A90038396162636465666768696A6B6C6D6E17
:1016B9006F707172737475767778797A00636835AB
:1016C90036332046545020736572766572206465FE
:1016D9006D6F007777772E7763682E636E203230CF
:1016E90031332D30342D32310030342D31382D3114
:1016F900332031303A3130504D2020202020202015
:1017090020200030342D31302D31332031313A3021
:1017190030504D20203C4449523E2020202020209A
:101729002000257325346420412E7478740D0A2510
:101739007325346420422E7478740D0A2573555329
:1017490045520D0A00257325346420482E74787497
:101759000D0A00555345520D0A00412E7478742321
:1017690030422E7478742331007046696C654E617D
:101779006D653A0A25730A0025732573004E616D5C
:101789006546696C653A0A25730A00257325732530
:1017990034642025730D0A002573257325730D0AFA
:1017A900000D0A0025732025346420257300257354
:1017B90025732573004C697374526F6F743A0A2547
:1017C900730A004E616D654C6973743A0A25730A90
:1017D9000025732534642025730D0A004C69737440
:1017E900557365723A0A25730A002573006F6E6C8A
:1017F9007920737570706F727420746865207369CD
:101809007A65206F662066696C65206C6573732044
:101819007468616E203634206279746573002330F0
:1018290000233100233200233300323230204D6946
:1018390063726F736F6674204654502053657276D5
:101849006963650D0A000000000000000000000047
:10185900000000000000000000000000000000007F
:10186900000000000000323236205472616E736647
:10187900657220636F6D706C6574650D0A000000F8
:10188900000000000000000000000000000000004F
:10189900000000000000000000000000000000003F
:1018A90000003333312061636365737320616C6CAD
:1018B9006F7765642073656E64206964656E746909
:1018C90074792061732070617373776F72642E0D60
:1018D9000A00000000000000000000000000323390
:1018E900302075736572206C6F6767656420696E57
:1018F9002E0D0A000000000000000000000000009A
:1019090000000000000000000000000000000000CE
:10191900000000000000000000003533302075731E
:1019290065722063616E6E6F74206C6F6720696EDB
:101939002E0D0A0000000000000000000000000059
:10194900000000000000000000000000000000008E
:1019590000000000000032303020504F5254206304
:101969006F6D6D616E6420737563636573736675FE
:101979006C2E0D0A000000000000000000000000AD
:10198900000000000000000000000000000000004E
:101999000000313235204461746120636F6E6E65D9
:1019A9006374696F6E20616C7265616479206F7010
:1019B900656E3B5472616E736665722073746172F1
:1019C90074696E670D0A00000000000000003135DF
:1019D90030204F70656E696E672041534349492035
:1019E9006D6F6465206461746120636F6E6E6563F9
:1019F90074696F6E20666F720000000000000000BD
:101A09000000000000000000000035353020546857
:101A1900652063683536332063616E6E6F742066A6
:101A2900696E64207468652066696C6520737065E9
:101A39006369666965640000000000000000000039
:101A490000000000000032323120476F6F64627974
:101A5900650D0A0000000000000000000000000001
:101A6900000000000000000000000000000000006D
:101A7900000000000000000000000000000000005D
:101A890000003230302054797065207365742074F9
:101A99006F000000000000000000000000000000CE
:101AA90000000000000000000000323135205769B5
:101AB9006E646F77735F4E540D0A000000000000DA
:101AC900000000000000000000000000000000000D
:101AD900000032353720222F222069732063757266
:101AE90072656E74206469726563746F72792E0D04
:101AF9000A00000000000000000032353020636F4A
:101B09006D6D616E64207375636365737366756C5F
:101B19002E0D0A0000000000000000000000000077
:101B2900000032323720456E746572696E67205045
:101B3900617373697665204D6F6465280000000044
:101B490000000000000000000000323133200000D6
:101B5900000000000000000000000000000000007C
:101B6900000000000000000000000000000000006C
:101B790000003235302044454C4520636F6D6D615E
:101B89006E6420737563636573730D0A000000004A
:101B990000000000000000000000353530204163DE
:101BA900636573732069732064656E6965642E0DBE
:101BB9000A00000000000000000000000000000012
:101BC9000000323030206E6F6F7020636F6D6D6171
:101BD9006E6420737563636573732E0D0A000000CC
:101BE9000000000000000000000035303020636F65
:101BF9006D6D616E64206E6F7420756E64657273AD
:101C0900746F6F640D0A00000000000000000000FE
:101C190000003335302046696C6520657869737436
:101C2900732C726561647920666F722064657374C0
:101C3900696E6174696F6E206E616D650D0A0000D1
:101C49000000000032353020524E544F20636F6D32
:101C59006D616E64207375636365737366756C0D6E
:101C69000A00000000000000000000000000000061
:061C790000000000000065
:103E8300430000FF16A1430003FF16C643006AFF69
:0E3E930016DC4305A0FF16F243006DFF170C6E
:0B263700900B5EEBF0A3EAF0A3E9F0CB
:10264200E4900B62F0FE7F04FD7B017A057987122C
:1026520025AFE4900B61F0900B5EE0FBA3E0FAA3E0
:10266200E0F91243E3900B61E0C39FEE6480F874DB
:102672008098400302283A900B5EE0FBA3E0FAA3A5
:10268200E0F9A3E0F582758300122428FFC3648079
:1026920094B05003022831D3EF648094B94003020E
:1026A2002831900B62E0C394044003022738E4907F
:1026B200014AF0A3F0900B5EE0FBA3E0FAA3E0F97D
:1026C200A3E0F582758300122428FF642C6038EFA2
:1026D2003395E0FEEF24D0FFEE34FFFE90014BE095
:1026E2002FF090014AE03EF0900B61E004F090017F
:1026F2004AE0FEA3E0FF7C007D0A12248990014A91
:10270200EEF0A3EFF080AE90014AE0FEA3E0FF7C82
:10271200007D0A12249B90014AEEF0A3EFF0900B89
:1027220062E02487F582E43405F583EFF0900B62D2
:10273200E004F0022831E490058BF0A3F0900B5EE8
:10274200E0FBA3E0FAA3E0F9A3E0F58275830012AF
:102752002428FF642C6032EF24D0FFEFFE90058C1A
:10276200E02400F090058BE03EF0900B61E004F075
:1027720090058BE0FEA3E0FF7C007D0A1224899085
:10278200058BEEF0A3EFF080B490058BE0FEA3E0A2
:10279200FF7C007D0A12249B90058BEEF0A3EFF0E4
:1027A200900B61E004F0E490014AF0A3F0900B5E1C
:1027B200E0FBA3E0FAA3E0F9A3E0F582758300123F
:1027C2002428FFC3648094B04040D3EF648094B95E
:1027D2005038EF3395E0FEEF24D0FFEE34FFFE9049
:1027E200014BE02FF090014AE03EF0900B61E004D3
:1027F200F090014AE0FEA3E0FF7C007D0A122489EA
:1028020090014AEEF0A3EFF080A390014AE0FEA30C
:10281200E0FF7C007D0A12249B90014AEEF0A3EFB8
:10282200F090058CE02FF090058BE03EF08009904F
:102832000B61E004F00226597BFF7A1579C99005F5
:1028420087E0900B69F0900588E0900B6AF09005A4
:1028520089E0900B6BF090058AE0900B6CF0121CF3
:10286200EA7BFF7A1579E190058BE0FFA3E0900BFC
:0928720069CFF0A3EFF0021CEAAB
:103235007E017FF4FD7B017A01794C1225AF900B5D
:10324500617401F0A37401F0744CA3F0900B57E086
:07325500FBA3E0FAA3E0F97E
:0B325C00900B5EEBF0A3EAF0A3E9F09A
:10326700E4900B64F0900B5EE0FBA3E0FAA3E0F9B7
:10327700900B64E0F5827583001224286420601D9A
:10328700900B5EA3A3E01243E3900B64E0C39FEEB1
:103297006480F87480985005E004F080C8900B644F
:1032A700E004F0E4A3F0900B5EE0FBA3E0FAA3E0F8
:1032B700F9900B64E0F582758300122428640D6091
:1032C7005D900B5EA3A3E01243E3900B64E0C39F02
:1032D700EE6480F87480985045A3E0FF940E505C2C
:1032E700900B5EE0FBA3E0FAA3E0F9900B64E0F536
:1032F70082758300122428FE642F601A900B61E008
:10330700FBA3E0FAA3E0F98F82758300EE1224672E
:10331700900B65E004F0900B64E004F08088900B5C
:1033270061E0F9A3E0FAA3E0900B69C9F0A3EAF022
:0C333700A3E9F07BFF7A1579F1121CEA83
:013343002267
:0B0B4100900B57EBF0A3EAF0A3E9F0E3
:100B4C00900B57E0F9A3E0FAA3E0900B6CC9F0A36B
:100B5C00EAF0A3E9F0A3E4F0A37404F07BFF7A15A8
:100B6C0079FB123A0BEF7032FE7F10FD7B017A0B92
:100B7C00798E1225AF900B617401F0A3740BF07495
:100B8C008E12324F7BFF7A1879AB1243E3AC06AD71
:100B9C00077BFF7A1879AB021137900B57E0F9A35A
:100BAC00E0FAA3E0900B6CC9F0A3EAF0A3E9F0A380
:100BBC00E4F0A37404F07BFF7A167900123A0BEF81
:100BCC006003020C547BFF7A1879E71243E3AC06FE
:100BDC00AD077BFF7A1879E7900585E0900B63F001
:100BEC001244647E007F107D007B017A0B798E129B
:100BFC0025AF900B617401F0A3740BF0A3748E12EB
:100C0C003250900B9EE0FBA3E0FAA3E0F91243E311
:100C1C00900B6FEEF0A3EFF0900B6C7401F0A374DB
:100C2C000BF0A3748EF0900B9EE0FBA3E0FAA3E014
:100C3C00F9123A0BEF60030215C890057B04F07BA8
:100C4C00FF7A167905021CEA900B57E0F9A3E0FA3B
:100C5C00A3E0900B6CC9F0A3EAF0A3E9F0A3E4F0D5
:100C6C00A37404F07BFF7A16791A123A0BEF703FDB
:100C7C00900B57E0FBA3E0FAA3E0F91226377BFFB9
:100C8C007A19795F1243E3AC06AD077BFF7A1979C9
:100C9C005F900585E0900B63F012446490058BE047
:100CAC00FCA3E0FD7B017A0579877F010235179063
:100CBC000B57E0F9A3E0FAA3E0900B6CC9F0A3EAA0
:100CCC00F0A3E9F0A3E4F0A37404F07BFF7A1679A7
:100CDC001F123A0BEF70277BFF7A19799B1243E3B3
:100CEC00AC06AD077BFF7A19799B900585E0900BDC
:100CFC0063F01244647BFF7A167924020EE1900BA8
:100D0C0057E0F9A3E0FAA3E0900B6CC9F0A3EAF06A
:100D1C00A3E9F0A3E4F0A37404F07BFF7A16792620
:100D2C00123A0BEF6003020DDD90057BE06401705D
:100D3C007A90057E04F0E4900579F0FE7F10FD7B3F
:100D4C00017A0579E31225AF900B617401F0A3745D
:100D5C0005F0A374E31232507E017FF47D007B0119
:100D6C007A01794C1225AF900B6974FFF0A37416BD
:100D7C00F0A3742BF0A374FFF0A37419F0A374D731
:100D8C00F0A37401F0A37405F0A374E3F07B017A73
:100D9C0001794C121CE47B017A01794C1243E3ACCF
:100DAC0006AD077B017A01794C8023900586E0FF24
:100DBC00124219900585E0FF1242197BFF7A1B79CC
:100DCC00A31243E3AC06AD077BFF7A1B79A3021198
:100DDC0037900B57E0F9A3E0FAA3E0900B6CC9F045
:100DEC00A3EAF0A3E9F0A3E4F0A37404F07BFF7A88
:100DFC00167934123A0BEF6003020F45900B57E053
:100E0C00FBA3E0FAA3E0F9900005122428642F70EC
:100E1C00311232357B017A0179381243E3900B5B46
:100E2C00EFF07E00244CF9EE3401FA900B6974015A
:100E3C00F0A3EAF0A3E9F07B017A05798D121CE4AA
:100E4C00801F7E007F107D007B017A05798D122535
:100E5C00AF900B617401F0A37405F0A3748D123282
:100E6C00507E017FF47D007B017A01794C1225AF15
:100E7C007B017A05798D7D01122DD8900B5AEFF0FC
:100E8C00900B69605374FFF0A37416F0A3742BF0ED
:100E9C00A374FFF0A37419F0A374D7F0A37401F03A
:100EAC00A37405F0A3748DF07B017A01794C121CAC
:100EBC00E47B017A01794C1243E3AC06AD077B016C
:100ECC007A01794C900585E0900B63F01244647BB9
:100EDC00017A05798D02453574FFF0A37416F0A3E1
:100EEC007439F0A374FFF0A3741AF0A37413F0A375
:100EFC007401F0A37405F0A3748DF07B017A017971
:100F0C004C121CE47B017A01794C1243E3AC06AD24
:100F1C00077B017A01794C900585E0900B63F01208
:100F2C004464900586E0FF124219900B5AEFF012C0
:100F3C0040DB90058674FFF022900B57E0F9A3E09C
:100F4C00FAA3E0900B6CC9F0A3EAF0A3E9F0A3E4D8
:100F5C00F0A37404F07BFF7A167944123A0BEF700D
:100F6C00167BFF7A1A794F1243E3AC06AD077BFF71
:100F7C007A1A794F021137900B57E0F9A3E0FAA3D4
:100F8C00E0900B6CC9F0A3EAF0A3E9F0A3E4F0A3A2
:100F9C007404F07BFF7A167949123A0BEF705C7E81
:100FAC00017FF4FD7B017A01794C1225AF900B691E
:100FBC0074FFF0A37416F0A3744EF0A374FFF0A3A7
:100FCC00741AF0A3748BF0900B57E0FBA3E0FAA318
:100FDC00E0F9900005122428900B6FF07B017A0148
:100FEC00794C121CE47B017A01794C1243E3AC0678
:100FFC00AD077B017A01794C021137900B57E0F960
:10100C00A3E0FAA3E0900B6CC9F0A3EAF0A3E9F01B
:10101C00A3E4F0A37404F07BFF7A167957123A0B11
:10102C00EF70167BFF7A1A79B31243E3AC06AD0767
:10103C007BFF7A1A79B30215BD900B57E0F9A3E048
:10104C00FAA3E0900B6CC9F0A3EAF0A3E9F0A3E4D7
:10105C00F0A37403F07BFF7A16795C123A0BEF70F5
:10106C00167BFF7A1A79DB1243E3AC06AD077BFFE4
:10107C007A1A79DB0215BD900B57E0F9A3E0FAA3BD
:10108C00E0900B6CC9F0A3EAF0A3E9F0A3E4F0A3A1
:10109C007403F07BFF7A167960123A0BEF6003024F
:1010AC00113AFE7F10FD7B017A0179381225AF9041
:1010BC000B617401F0A37401F0A374381232507BED
:1010CC00017A017938E4FD122DD8900B5AEFF060BB
:1010DC00157BFF7A1B79031243E3AC06AD077BFF4C
:1010EC007A1B790380457E017FF47D007B017A01B8
:1010FC00794C1225AF900B6974FFF0A37416F0A312
:10110C007464F0A374FFF0A3741AF0A37413F07B4F
:10111C00017A01794C121CE47B017A01794C12435F
:10112C00E3AC06AD077B017A01794C0215BD900B3F
:10113C0057E0F9A3E0FAA3E0900B6CC9F0A3EAF036
:10114C00A3E9F0A3E4F0A37404F07BFF7A16796AA8
:10115C00123A0BEF70797B017A0B795C7F011236B6
:10116C00D47E017FF47D007B017A01794C1225AF8E
:10117C00900B6974FFF0A37416F0A3746FF0A37452
:10118C00FFF0A3741BF0A3742BF0A37401F0A374F1
:10119C000BF0A374A5F0900B5CE0FCA3E0FDECFF5E
:1011AC00900B72E4F0A3EFF0AF05A3E4F0A3EFF023
:1011BC007B017A01794C121CE47B017A01794C1287
:1011CC0043E3AC06AD077B017A01794C0215BD9067
:1011DC000B57E0F9A3E0FAA3E0900B6CC9F0A3EA7B
:1011EC00F0A3E9F0A3E4F0A37404F07BFF7A167982
:1011FC0081123A0BEF60030212D6900B57E0FBA35F
:10120C00E0FAA3E0F9900005122428642F70311243
:10121C0032357B017A0179381243E3900B5BEFF0A6
:10122C007E00244CF9EE3401FA900B697401F0A3A2
:10123C00EAF0A3E9F07B017A05798D121CE4801F9A
:10124C007E007F107D007B017A0579E31225AF903B
:10125C000B617401F0A37405F0A3748D1232507EEF
:10126C00017FF47D007B017A01794C1225AF7B0163
:10127C007A05798D122C49900574122572900B69A0
:10128C0074FFF0A37416F0A37486F0A374FFF0A39C
:10129C00741BF0A37453F0900574E0FCA3E0FDA361
:1012AC00E0FEA3E0FF900B6F1225727B017A0179AF
:1012BC004C121CE47B017A01794C1243E3AC06AD71
:1012CC00077B017A01794C0215BD900B57E0F9A30D
:1012DC00E0FAA3E0900B6CC9F0A3EAF0A3E9F0A349
:1012EC00E4F0A37404F07BFF7A16798D123A0BEFBD
:1012FC0060030213A790057BE06401600302139165
:10130C00900B57E0FBA3E0FAA3E0F9900005122440
:10131C0028642F70311232357B017A0179381243EF
:10132C00E3900B5BEFF07E00244CF9EE3401FA9065
:10133C000B697401F0A3EAF0A3E9F07B017A05795B
:10134C00E3121CE4801F7E007F107D007B017A0578
:10135C0079E31225AF900B617401F0A37405F0A32F
:10136C0074E312325090057C7402F0FF1200037B80
:10137C00FF7A1B797B1243E3AC06AD077BFF7A1B2C
:10138C00797B0215BD7BFF7A1B79A31243E3AC0674
:10139C00AD077BFF7A1B79A30215BD900B57E0F9C3
:1013AC00A3E0FAA3E0900B6CC9F0A3EAF0A3E9F078
:1013BC00A3E4F0A37404F07BFF7A167992123A0B33
:1013CC00EF70167BFF7A1B79CB1243E3AC06AD07AB
:1013DC007BFF7A1B79CB0215BD900B57E0F9A3E08C
:1013EC00FAA3E0900B6CC9F0A3EAF0A3E9F0A3E434
:1013FC00F0A37404F07BFF7A167997123A0BEF6026
:10140C00030214D490057BE0640160030214BE90C7
:10141C000582E060030214BE7E017FF4FD7B017A3D
:10142C0001794C1225AF900B57E0FBA3E0FAA3E037
:10143C00F9900005122428642F7042C003900B61B0
:10144C0004F0A37401F0A3744CF0D00312325C7B53
:10145C00017A0179381243E3900B5BEFF07E0024A4
:10146C004CF9EE3401FA900B697401F0A3EAF0A385
:10147C00E9F07B017A0579E3121CE4801F7E007F82
:10148C00107D007B017A0579E31225AF900B617416
:10149C0001F0A37405F0A374E31232507BFF7A1CA5
:1014AC00791B1243E3AC06AD077BFF7A1C791B0258
:1014BC0015BD7BFF7A1B79A31243E3AC06AD077B0A
:1014CC00FF7A1B79A30215BD900B57E0F9A3E0FA44
:1014DC00A3E0900B6CC9F0A3EAF0A3E9F0A3E4F04D
:1014EC00A37404F07BFF7A16799C123A0BEF60031D
:1014FC000215AA90057BE064016003021595900526
:10150C0082E06003021595FE7F10FD7B017A057960
:10151C008D1225AF900B57E0FBA3E0FAA3E0F990F6
:10152C000005122428642F70311232357B017A01A8
:10153C0079381243E3900B5BEFF07E00244CF9EE0C
:10154C003401FA900B697401F0A3EAF0A3E9F07B83
:10155C00017A05798D121CE48010900B617401F0F6
:10156C00A37405F0A3748D12325090057C7405F0B1
:10157C00FF1200037BFF7A1C794D1243E3AC06ADDE
:10158C00077BFF7A1C794D80287BFF7A1B79A3128D
:10159C0043E3AC06AD077BFF7A1B79A380137BFF7B
:1015AC007A1B79F31243E3AC06AD077BFF7A1B7908
:0C15BC00F3900585E0900B63F01244648E
:0115C8002200
:102A79007E007F407D007B017A0579A31225AF9006
:102A89000000E0F9A3E0FAA3E0900B69C9F0A3EA1A
:102A9900F0A3E9F07B017A0579A3121CE47E007F9B
:102AA900407D007B017A0579F31225AF900003E0A0
:102AB900F9A3E0FAA3E0900B69C9F0A3EAF0A3E94E
:102AC900F07B017A0579F3121CE47E007F407D00DA
:102AD9007B017A0679331225AF7E007F407D007B2A
:102AE900017A0679731225AF7E007F407D007B0154
:102AF9007A0379721225AF90006AE0F9A3E0FAA38C
:102B0900E0900B69C9F0A3EAF0A3E9F07B017A032D
:102B19007972121CE47E017FC27D007B017A037900
:102B2900B21225AF7B017A0579A31243E3C007C02E
:102B3900067B017A0579A31243E3900B74EEF0A3A7
:102B4900EFF0900B6FD0E0F0A3D0E0F0900B697438
:102B5900FFF0A37417F0A3742BF09005A0E0F9A37C
:102B6900E0FAA3E0900B6CC9F0A3EAF0A3E9F090B6
:102B790005A0E0F9A3A3E0900B71C9F0A3EAF0A3C3
:102B8900E9F090006DE0F9A3E0FAA3E0900B76C9B3
:102B9900F0A3EAF0A3E9F07B017A0379B2121CE40D
:102BA9007E007F327D007B017A0379401225AF7B5D
:102BB900017A0379721243E3900B6FEEF0A3EFF001
:102BC900900B6974FFF0A37417F0A3744EF090058D
:102BD900A0E0F9A3E0FAA3E0900B6CC9F0A3EAF036
:102BE900A3E9F07B017A037940121CE47E007F643B
:102BF9007D007B017A0079061225AF900B6974FF7D
:102C0900F0A37417F0A3745CF07B017A00790612C3
:102C19001CE47E007FC87D007B017A007970122553
:102C2900AF900B6974FFF0A37417F0A37463F07B82
:102C3900017A007970121CE490057AE04403F022CD
:05000300900B5EEFF020
:10000800900B697401F0A37405F0A374E3F07BFF0F
:100018007A177972121CEA900582E060030209538C
:10002800900B5EE0FF64026008EF64046003020363
:10003800B9E4900B5FF07B017A0579E31243E39012
:100048000B6FEEF0A3EFF0900B5FE07E0024B2F9A7
:10005800EE3403FA900B6C7401F0A3EAF0A3E9F014
:100068007B017A0579E3123A0BEF601D7B017A0375
:1000780079B21243E3900B5FE0C39FEE6480F8749B
:1000880080985005E004F080AD7B017A0379B212C4
:1000980043E3900B5FE0FDC39FEE6480F8748098A3
:1000A8004003020B40900B60EDF0900B60E024B22F
:1000B800F582E43403F583E0640A601D7B017A036A
:1000C80079B21243E3900B60E0C39FEE6480F8744A
:1000D80080985005E004F080D17B017A0379B21250
:1000E80043E3900B60E0C39FEE6480F8748098400F
:1000F80003020B40900B60E004F0900B5FE0FF24DC
:10010800B2F582E43403F583E0640A600AEF60071D
:10011800900B5F14F080E3900B5FE0FF600924B35D
:10012800F582E43403800874B22FF582E43403F5D1
:1001380083E4F07E017FF47D007B017A01794C1223
:1001480025AF900B6974FFF0A37417F0A37481F0C6
:10015800A37401F0A37403F0A374B2F0900B60E0F1
:100168007E0024B2F9EE3403FA900B6F7401F0A309
:10017800EAF0A3E9F07B017A01794C121CE47E01D4
:100188007FC27D007B017A0379B21225AF900B699B
:100198007401F0A37401F0A3744CF07B017A037925
:1001A800B2121CE4900B5EE0640260030202AEA38C
:1001B800F07B017A0579E31243E3900B6FEEF0A32D
:1001C800EFF0900B5FE02470F9E43400FA900B6CC8
:1001D8007401F0A3EAF0A3E9F07B017A0579E31250
:1001E8003A0BEF601D7B017A0079701243E3900BA4
:1001F8005FE0C39FEE6480F87480985005E004F0D7
:1002080080AF7B017A0079701243E3900B5FE0FDC9
:10021800C39FEE6480F87480984003020B407470AA
:100228002DF582E43400F583E4F07B017A0579E367
:100238001243E3900B5FE02FF0E02471F582E43481
:1002480000F583E024CF601314601914601F2403A1
:10025800702290057AE054FEF0801990057AE054F7
:10026800FDF0801090057AE054FBF0800790057A45
:10027800E054F7F0900B5FE02402F0900B6974FFF4
:10028800F0A37417F0A37481F0A37401F0A37400B1
:10029800F0A37470F0900B5FE02470F9E43400FA76
:1002A800900B6F0207CCE4900B5FF07B017A057925
:1002B800E31243E3900B6FEEF0A3EFF0900B5FE0D7
:1002C8002406F9E43400FA900B6C7401F0A3EAF008
:1002D800A3E9F07B017A0579E3123A0BEF601D7B05
:1002E800017A0079061243E3900B5FE0C39FEE6446
:1002F80080F87480985005E004F080AF7B017A00A4
:1003080079061243E3900B5FE0FDC39FEE6480F82B
:100318007480984003020B4074062DF582E4340083
:10032800F583E4F07B017A0579E31243E3900B5FF0
:10033800E02FF0E02402F0900B6974FFF0A374172B
:10034800F0A37481F0A37401F0A37400F0A3740601
:10035800F0900B5FE02406F9E43400FA900B6F7418
:1003680001F0A3EAF0A3E9F07B017A01794C121CB1
:10037800E47E007F647D007B017A0079061225AF58
:10038800900B697401F0A37401F0A3744CF07B0125
:100398007A007906121CE4900B697401F0A37400CA
:1003A800F0A37406F07BFF7A177986121CEA02091B
:1003B8000E900B5EE0FF64016008EF6403600302C7
:1003C80004A97E017FF47D007B017A01794C122516
:1003D800AF900B5EE06401900B69705374FFF0A35B
:1003E8007417F0A37494F0A37401F0A37403F0A33A
:1003F80074B2F09005A0E0F9A3E0FAA3E0900B6FC7
:10040800C9F0A3EAF0A3E9F0900148E0FFA3E09067
:100418000B72CFF0A3EFF0A37401F0A37405F0A35F
:1004280074E3F07B017A01794C121CE40205C5746F
:10043800FFF0A37417F0A374A1F0A37401F0A374E0
:1004480003F0A374B2F090006DE0F9A3E0FAA3E022
:10045800900B6FC9F0A3EAF0A3E9F0A37401F0A32D
:100468007405F0A374E3F07B017A01794C121CE463
:10047800900B647401F0A37405F0A374E3F07B019E
:100488007A007906123B00900B6474FFF0A374178E
:10049800F0A374AAF07B017A007906123B000205EA
:1004A800C5900B5EE0FF600764056003020B40E443
:1004B800900B5FF07B017A0579E31243E3900B6FB1
:1004C800EEF0A3EFF0900B5FE07E0024B2F9EE347B
:1004D80003FA900B6C7401F0A3EAF0A3E9F07B0136
:1004E8007A0579E3123A0BEF601D7B017A0379B242
:1004F8001243E3900B5FE0C39FEE6480F87480982A
:100508005005E004F080AD7B017A0379B21243E331
:10051800900B5FE0FDC39FEE6480F8748098400301
:10052800020B40900B5EE060030205EB900B60ED60
:10053800F0900B5FE024FEF0900B5FE0FF24B2F533
:1005480082E43403F583E06420600D900B5FE014CF
:10055800F0E0C3940250E12274B22FF582E4340330
:10056800F583E4F07E017FF4FD7B017A01794C127A
:1005780025AF900B6974FFF0A37417F0A374ADF066
:10058800A37401F0A37403F0A374B2F0900148E0DF
:10059800FFA3E0900B6FCFF0A3EFF0900B60E07E2D
:1005A8000024B2F9EE3403FA900B717401F0A3EA57
:1005B800F0A3E9F07B017A01794C121CE47E017FFB
:1005C800C27D007B017A0379B21225AF900B697462
:1005D80001F0A37401F0A3744CF07B017A0379B2A3
:1005E80002090B900B5FE0A3F0900B60E024B2F5DA
:1005F80082E43403F583E0640D601F900B60E0042F
:10060800F07B017A0379B21243E3900B60E0C39F59
:10061800EE6480F874809840D022900B5FE024B29A
:10062800F582E43403F583E4F07E017FF4FD7B0179
:100638007A01794C1225AF900B6974FFF0A37417F7
:10064800F0A374B7F0A37401F0A37403F0A374B219
:10065800F0A37401F0A37405F0A3748DF0900B60FF
:10066800E07E0024B2F9EE3403FA900B727401F0C4
:10067800A3EAF0A3E9F07B017A01794C121CE47E2D
:10068800017FC27D007B017A0379B21225AF900BFE
:10069800697401F0A37401F0A3744CF07B017A0330
:1006A80079B2121CE4E4900B5FF0900B5FE024E356
:1006B800F582E43405F583E0642E601E900B5FE05C
:1006C80004F07B017A0579E31243E3900B5FE0C302
:1006D8009FEE6480F874809840D07B017A0579E3B6
:1006E8001243E3900B5FE0C39FEE6480F874809838
:1006F8004003020804E4F07B017A0579E31243E33E
:10070800900B6FEEF0A3EFF0900B5FE02470F9E42C
:100718003400FA900B6C7401F0A3EAF0A3E9F07BC3
:10072800017A0579E3123A0BEF601F900B5FE00442
:10073800F07B017A0079701243E3900B5FE0C39F6E
:10074800EE6480F874809840AE22900B5FE0A3F0CE
:10075800900B60E02470F582E43400F583E06423B4
:10076800601F900B60E004F07B017A0079701243FF
:10077800E3900B60E0C39FEE6480F874809840D0EB
:1007880022900B5FE02470F582E43400F583E4F0F6
:10079800900B6974FFF0A37417F0A374B7F0A374F7
:1007A80001F0A37400F0A37470F0A37401F0A374B3
:1007B80005F0A3748DF0900B60E02470F9E4340028
:1007C800FA900B727401F0A3EAF0A3E9F07B017AC6
:1007D80001794C121CE47E007FC87D007B017A0001
:1007E80079701225AF900B697401F0A37401F0A31E
:1007F800744CF07B017A00797002090BE4900B5F6E
:10080800F07B017A0579E31243E3900B6FEEF0A3D6
:10081800EFF0900B5FE02406F9E43400FA900B6CDB
:100828007401F0A3EAF0A3E9F07B017A0579E312F9
:100838003A0BEF601F900B5FE004F07B017A0079C0
:10084800061243E3900B5FE0C39FEE6480F8748068
:100858009840AE22900B5FE0A3F0900B60E0240676
:10086800F582E43400F583E0640D601F900B60E0CE
:1008780004F07B017A0079061243E3900B60E0C331
:100888009FEE6480F874809840D022900B5FE0243B
:1008980006F582E43400F583E4F0900B6974FFF008
:1008A800A37417F0A374B7F0A37401F0A37400F055
:1008B800A37406F0A37401F0A37405F0A3748DF07B
:1008C800900B60E02406F9E43400FA900B7274018E
:1008D800F0A3EAF0A3E9F07B017A01794C121CE459
:1008E8007E007F647D007B017A0079061225AF9037
:1008F8000B697401F0A37401F0A3744CF07B017AC6
:10090800007906121CE4900B697401F0A37403F0DB
:10091800A374B2F07BFF7A1779BE121CEA900B69B8
:100928007401F0A37400F0A37470F07BFF7A177958
:10093800CC121CEA900B697401F0A37400F0A37444
:1009480006F07BFF7A177986020B3D900582E064FA
:10095800016003020B40900B5EE064026003020A30
:10096800CDA3F07B017A0579E31243E3900B6FEE98
:10097800F0A3EFF0900B5FE02440F9E43403FA9021
:100988000B6C7401F0A3EAF0A3E9F07B017A057916
:10099800E3123A0BEF601D7B017A0379401243E3BF
:1009A800900B5FE0C39FEE6480F87480985005E078
:1009B80004F080AF7B017A0379401243E3900B5F28
:1009C800E0FDC39FEE6480F87480984003020B40FA
:1009D800900B60EDF0900B60E02440F582E4340366
:1009E800F583E0640A601D7B017A0379401243E3D2
:1009F800900B60E0C39FEE6480F87480985005E027
:100A080004F080D17B017A0379401243E3900B60B4
:100A1800E0C39FEE6480F87480984003020B409016
:100A28000B60E004F0900B5FE0FF2440F582E434B3
:100A380003F583E0640A600AEF6007900B5F14F027
:100A480080E3900B5FE0FF60092441F582E4340302
:100A5800800874402FF582E43403F583E4F07E01C6
:100A68007FF47D007B017A01794C1225AF900B69E8
:100A780074FFF0A37417F0A37481F0A37401F0A3BA
:100A88007403F0A37440F0900B60E02440F9E43460
:100A980003FA900B6F7401F0A3EAF0A3E9F07B016D
:100AA8007A01794C121CE47E007F327D007B017A4A
:100AB8000379401225AF900B697401F0A37401F01B
:100AC800A3744C8052900B5EE06401706BFE7F3221
:100AD800FD7B017A0379401225AF900B6974FFF012
:100AE800A37417F0A374DAF09005A0E0F9A3E0FA74
:100AF800A3E0900B6CC9F0A3EAF0A3E9F0900148D9
:100B0800E0FFA3E0900B6FCFF0A3EFF0A37401F028
:100B1800A37405F0A374E3F07B017A037940121CF7
:100B2800E4900B697401F0A37403F0A37440F07BA4
:080B3800FF7A1779E5121CEAAF
:010B40002292
:0B2C4900900B65EBF0A3EAF0A3E9F0AC
:102C5400E4A3F0900582E06003022D53900B65E03D
:102C6400FBA3E0FAA3E0F91243E3900B6FEEF0A3A9
:102C7400EFF0900B68E02470F9E43400FA900B6CE8
:102C84007401F0A3EAF0A3E9F0900B65E0FBA3E084
:102C9400FAA3E0F9123A0BEF6021900B68E004F01C
:102CA4007B017A0079701243E3900B68E0C39FEED6
:102CB4006480F874809840A4022DAF900B68E024DF
:102CC40070F582E43400F583E064236021900B689E
:102CD400E004F07B017A0079701243E3900B68E022
:102CE400C39FEE6480F874809840D0022DAF900B9F
:102CF40068E02471F582E43400F583E024CF601B9E
:102D04001460291460372403704390059D7401F006
:102D1400A37405F0A374A3F0022DC390059D740160
:102D2400F0A37405F0A374F3F0022DC390059D7411
:102D340001F0A37406F0A37433F0022DC390059D33
:102D44007401F0A37406F0A37473F08072805C9035
:102D54000B65E0FBA3E0FAA3E0F91243E3900B6FE9
:102D6400EEF0A3EFF0900B68E02440F9E43403FAAA
:102D7400900B6C7401F0A3EAF0A3E9F0900B65E00A
:102D8400FBA3E0FAA3E0F9123A0BEF6024900B687E
:102D9400E004F07B017A0379401243E3900B68E08E
:102DA400C39FEE6480F874809840A4E4FFFEFDFCA9
:102DB4002290059D7401F0A37403F0A37472F09043
:102DC400059DE0FBA3E0FAA3E0F91243E3EE33959B
:032DD400E0FDFC23
:012DD70022D9
:0E2DD800900B5EEBF0A3EAF0A3E9F0A3EDF0A0
:102DE6006003022EB4900B5EE0FBA3E0FAA3E0F9C9
:102DF6001243E3EF4E7006900582022EB0900B5EF2
:102E0600E0FBA3E0FAA3E0F91243E3900B6FEEF0C8
:102E1600A3EFF0900B5EE0F9A3E0FAA3E0900B6C51
:102E2600C9F0A3EAF0A3E9F07BFF7A1579FB123A21
:102E36000BEF700790058204F0FF22E4900B62F01E
:102E4600900B5EE0FBA3E0FAA3E0F91243E3900BDC
:102E56006FEEF0A3EFF0900B62E02406F9E4340085
:102E6600FA900B6C7401F0A3EAF0A3E9F0900B5E04
:102E7600E0FBA3E0FAA3E0F9123A0BEF6027900B10
:102E860062E004F07B017A0079061243E3900B625C
:102E9600E0C39FEE6480F874809840A49005827425
:102EA600FFF07F00229005827402F07F0122900BD2
:102EB60061E064016003022F5C900582E0700F9070
:102EC6000B6304F0A37400F0A37470F0800E900BF3
:102ED600637401F0A37403F0A37440F0E4900B62F2
:102EE600F0900B63E0FBA3E0FAA3E0F91243E39052
:102EF6000B62E0C39FEE6480F87480985055900B87
:102F06005EE0FBA3E0FAA3E0F91243E3900B6FEE59
:102F1600F0A3EFF0900B63E0FBA3E0FAA3E0F990D7
:102F26000B62E0FF7E00E92FF9EE3AFA900B6CEBAC
:102F3600F0A3EAF0A3E9F0900B5EE0FBA3E0FAA3AE
:102F4600E0F9123A0BEF70037F0122900B62E00466
:082F5600F0808E7F00227F0055
:012F5E002250
:0B343100900B5EEBF0A3EAF0A3E9F0C3
:10343C007E017FF47D007B017A01794C1225AF90DF
:10344C000B5EE0FBA3E0FAA3E0F912240F643070EA
:10345C005D900582E0702190057F04F0900B6974FB
:10346C00FFF0A37417F0A374F3F0A37401F0A3742A
:10347C0003F0A374B202350C900582E0B4012190E4
:10348C00057F7401F0900B6974FFF0A37417F0A31F
:10349C0074F3F0A37401F0A37403F0A37440806080
:1034AC00900582E06402706290057F04F022900B1C
:1034BC005EE0FBA3E0FAA3E0F9122C49900B611239
:1034CC002572E47FF47E01FDFC900B61E0F8A3E033
:1034DC00F9A3E0FAA3E0FBC312253B502D7E017F3C
:1034EC00F47D007B017A01794C1225AF90059DE0AB
:1034FC00F9A3E0FAA3E0900B69C9F0A3EAF0A3E901
:0A350C00F07B017A01794C121CE4F7
:013516002292
:0B1FE400900B57EBF0A3EAF0A3E9F02C
:101FEF00AF05900148ECF0A3EFF0E4900B5AF0909E
:101FFF000579E06003022318D3900149E0944090E3
:10200F000148E0940040569005797401F0900B5709
:10201F00E0FBA3E0FAA3E0F91243E37D00900B5736
:10202F00E0FBA3E0FAA3E0F91225AF900B6974FF70
:10203F00F0A37417F0A374F6F0900B57E0FBA3E036
:10204F00FAA3E0F9121CE4900B57E0FBA3E0FAA30C
:10205F00E0F91243E3900148EEF0A3EFF090058210
:10206F00E060030222E67B017A0579E31243E390F5
:10207F000B6FEEF0A3EFF0900B5AE02470F9E434FD
:10208F0000FA900B6C7401F0A3EAF0A3E9F07B0166
:10209F007A0579E3123A0BEF601D7B017A007970B4
:1020AF001243E3900B5AE0C39FEE6480F87480985C
:1020BF005005E004F080AF7B017A0079701243E3A2
:1020CF00900B5AE0C39FEE6480F8748098402E9076
:1020DF00057C7401F0E4900B5BF0900B5BE0FFC3A9
:1020EF009404503F90057AE0FEA807088002C313BE
:1020FF00D8FC30E02E900B5BE004F080DDE490051F
:10210F007CF07B017A0579E31243E3900B5AE02FC1
:10211F0004F0E02470F582E43400F583E024D090DD
:10212F000B5BF0900B5BE0146077147003022214CA
:10213F00147003022277240360030222DF7E007FE4
:10214F00407D007B017A0579A31225AF900B57E0F4
:10215F00F9A3E0FAA3E0900B69C9F0A3EAF0A3E9B1
:10216F00F07B017A0579A3121CE490057AE0440113
:10217F00F090057CE07003022318900B647401F05B
:10218F00A37405F0A374E3F07B017A007970123B1E
:10219F0000900B6474FFF0A37418F0A3742702224D
:1021AF00D57E007F407D007B017A0579F31225AF44
:1021BF00900B57E0F9A3E0FAA3E0900B69C9F0A3E5
:1021CF00EAF0A3E9F07B017A0579F3121CE490059C
:1021DF007AE04402F090057CE07003022318900B24
:1021EF00647401F0A37405F0A374E3F07B017A002B
:1021FF007970123B00900B6474FFF0A37418F0A376
:10220F00742A0222D57E007F407D007B017A0679F9
:10221F00331225AF900B57E0F9A3E0FAA3E0900B30
:10222F0069C9F0A3EAF0A3E9F07B017A06793312CA
:10223F001CE490057AE04404F090057CE070030202
:10224F002318900B647401F0A37405F0A374E3F0EA
:10225F007B017A007970123B00900B6474FFF0A33E
:10226F007418F0A3742D805E7E007F407D007B018B
:10227F007A0679731225AF900B57E0F9A3E0FAA312
:10228F00E0900B69C9F0A3EAF0A3E9F07B017A06AD
:10229F007973121CE490057AE04408F090057CE015
:1022AF006067900B647401F0A37405F0A374E3F0FE
:1022BF007B017A007970123B00900B6474FFF0A3DE
:1022CF007418F0A37430F07B017A007970023B0030
:1022DF0090057C74FFF02290057C7401F07E007FE6
:1022EF00407D00FB7A0379721225AF900B57E0F90E
:1022FF00A3E0FAA3E0900B69C9F0A3EAF0A3E9F019
:09230F007B017A037972121CE4CF
:0123180022A2
:0945350090057D7401F00234319F
:103BC200900B53EBF0A3EAF0A3E9F0A3EDF090051C
:103BD20086E0B5052790057DE0B40220900B53E006
:103BE200FBA3E0FAA3E0F91243E3AD07AC06900BA6
:103BF20053E0FBA3E0FAA3E0F9121FE4900585E08D
:103C0200FF900B56E0B5070E900B53E0FBA3E0FAD2
:073C1200A3E0F9120B4122AF
:10334400900583E0B402217404F07BFF7A1879338A
:103354001243E3AC06AD077BFF7A187933900585F9
:10336400E0900B63F0124464900584E064027032D0
:10337400900580E0B40122E4F07BFF7A19795F12B2
:1033840043E3AC06AD077BFF7A19795F900585E0CE
:10339400900B63F01244648009900581E0B401024B
:1033A400E4F0900584E0B4011290057DE0B4020BD2
:1033B4007404F090057CE0FF12000390057DE0B4F6
:1033C40004217408F07BFF7A18796F1243E3AC068A
:1033D400AD077BFF7A18796F900585E0900B63F059
:1033E40012446490057DE064017041900584E0C35B
:1033F400940240387404F07B017A01794C1243E35F
:10340400AC06AD077B017A01794C900586E0900B00
:1034140063F012446490057FE0601190057D7404AC
:0C342400F0900586E0FF1242191240DB18
:013430002279
:08454E004945557365724000F8
:103EA100460BBE020304050607440BA1C0A801642A
:103EB100440BBAC0A80101440BB6FFFFFF00430B3E
:043EC1009EFF454ECD
:0E44DB00123F4120B30312385112334480F5D2
:0300000002397F43
:0C397F00787FE4F6D8FD7581210239C67E
:10231900E709F608DFFA8046E709F208DFFA803EA6
:1023290088828C83E709F0A3DFFA8032E309F60893
:10233900DFFA8078E309F208DFFA807088828C83FB
:10234900E309F0A3DFFA806489828A83E0A3F608AF
:10235900DFFA805889828A83E0A3F208DFFA804C89
:1023690080D280FA80C680D4806980F28033801060
:1023790080A680EA809A80A880DA80E280CA8033C9
:1023890089828A83ECFAE493A3C8C582C8CCC58341
:10239900CCF0A3C8C582C8CCC583CCDFE9DEE78011
:1023A9000D89828A83E493A3F608DFF9ECFAA9F090
:1023B900EDFB2289828A83ECFAE0A3C8C582C8CCE6
:1023C900C583CCF0A3C8C582C8CCC583CCDFEADEFF
:1023D900E880DB89828A83E493A3F208DFF980CC61
:1023E90088F0EF60010E4E60C388F0ED2402B4045A
:1023F9000050B9F582EB2402B4040050AF23234501
:0624090082239023697399
:10240F00BB010689828A83E0225002E722BBFE02CB
:09241F00E32289828A83E49322FE
:10242800BB010CE58229F582E5833AF583E0225069
:1024380006E92582F8E622BBFE06E92582F8E222B3
:0D244800E58229F582E5833AF583E49322CD
:10245500BB010689828A83F0225002F722BBFE0166
:02246500F32260
:10246700F8BB010DE58229F582E5833AF583E8F0AB
:10247700225006E92582C8F622BBFE05E92582C857
:02248700F2223F
:10248900EF8DF0A4A8F0CF8CF0A428CE8DF0A42E67
:02249900FE2221
:10249B00BC000BBE0029EF8DF084FFADF022E4CC25
:1024AB00F875F008EF2FFFEE33FEEC33FCEE9DECEE
:1024BB00984005FCEE9DFE0FD5F0E9E4CEFD22ED34
:1024CB00F8F5F0EE8420D21CFEADF075F008EF2F7E
:1024DB00FFED33FD4007985006D5F0F222C398FD6F
:0524EB000FD5F0EA220C
:1024F000A3F8E0C5F025F0F0E5821582700215839F
:06250000E0C838F0E822FB
:10250600BB010A89828A83F0E5F0A3F0225006F720
:0F25160009A7F01922BBFE06F3E5F009F319221D
:10252500EB9FF5F0EA9E42F0E99D42F0EC6480C82D
:0625350064809845F022CD
:10253B00EB9FF5F0EA9E42F0E99D42F0E89C45F0F6
:01254B00226D
:10254C00E8600FECC313FCED13FDEE13FEEF13FF6D
:03255C00D8F12291
:10255F00E8600FEFC333FFEE33FEED33FDEC33FCDA
:03256F00D8F1227E
:0C257200ECF0A3EDF0A3EEF0A3EFF022DC
:10257E00A8828583F0D083D08212259512259512DC
:10258E002595122595E473E493A3C583C5F0C58301
:10259E00C8C582C8F0A3C583C5F0C583C8C582C8A7
:0125AE00220A
:101C7F00E5082469F582E4340BF583E0050822902A
:101C8F000B66300703900B69E475F0011225F10222
:101C9F00240F2000E97F2ED2008018EF540F2490DC
:101CAF00D43440D4FF30040BEF24BFB41A005003D8
:101CBF002461FFE50960021509050CE50C700205AA
:101CCF000B30070E900B66E475F0011225F1EF0251
:101CDF0024550241CC7403D2078003E4C207F508F0
:101CEF00900B66122608E4F509F50BF50CE5096073
:101CFF00077F20121CC280F5750AFFC201C200C205
:101D0F0002C203C205C206C208121C8EFF700D303C
:101D1F0007057F00121CD3AF0CAE0B22B4255FC298
:101D2F00D5C204121C8EFF24D0B40A00501A75F0CD
:101D3F000A780930D50508B6FF0106C6A426F62095
:101D4F00D5047002D20380D924CFB41A00EF500407
:101D5F00C2E5D204021ED4D20180C6D20080C0D206
:101D6F000280BCD2D580BAD20580B47F20121CC2AB
:101D7F002002077401B5090040F1121C7FFF121CED
:101D8F00C2021CFCD208D2068095121C7FFB121CCB
:101D9F007FFA121C7FF94A4B700679A57A1F7BFFD9
:101DAF0020022EE509602A7E008E827583001224A0
:101DBF002860060EEE650A70F0C2D5EBC0E0EAC0EF
:101DCF00E0E9C0E0EE121F1BD0E0F9D0E0FAD0E05E
:101DDF00FB12240FFF60AAEBC0E0EAC0E0E9C0E00D
:101DEF00121CC2D0E02401F9D0E03400FAD0E0FB9D
:101DFF00E50A0460DCD50AD980877BFF7A1F791743
:101E0F00D202809C791080027908C206C20880082D
:101E1F00D2D5790A8004790AC2D5E50A047002F591
:101E2F000AE4FAFDFEFF121C7FFC7B08200113124F
:101E3F001C7FFD7B1030000A121C7FFE121C7FFFDF
:101E4F007B20EC3382D592D55013C3E43000069F2C
:101E5F00FFE49EFEE42001039DFDE49CFCE4CBF82F
:101E6F00C201EC700CCFCECDCCE824F8F870F38023
:101E7F0017C3EF33FFEE33FEED33FDEC33FCEB33E3
:101E8F00FB994002FB0FD8E9EB300105F8D0E0C415
:101E9F0048B201C0E00AEC4D4E4F78207B0070C273
:101EAF00EAB50A0040BCC0E0121F1DD0F0D0E02000
:101EBF000104C4C0E0C4B201C0F0121CABD0F0D515
:101ECF00F0EB021CFC1226111D99531E13581D6AAC
:101EDF004C1D66421E174F1E1F441E1F491D7F4378
:081EEF001E25551E09461E09BF
:101EF700451E09471FC5501D6E2D1D722E1D952BA2
:101F07001D76231D93201FAE2A1D2E4800001D8D10
:101F17003F3F3F00790AA2D5200314300509B910C5
:101F2700020404B9080104A2D520060250010420C6
:101F370002689202B509005034C0E07F20300319CF
:101F47007F30A20272067205500F121F74C202C2BE
:101F570006C205C2087F30800F300503E9C0E012D2
:101F67001CC2300503D0E0F9D0E0B509CC30051725
:101F77007F30B9100C121CC27F583004077F78805D
:101F870003B90803121CC23002057F2D021CC27F51
:101F9700202008F87F2B2006F322920280CF286E9C
:101FA700756C6C2900D201121C7F3001F8C20178D0
:101FB7000930D50108F6021D2E2D50434958121C31
:101FC7007F2403B405004001E4901FC093121CB3A3
:0D1FD700743A121CB3D203750904021E13E4
:103B0000900B61EBF0A3EAF0A3E9F0900B67EBF008
:103B1000A3EAF0A3E9F0900B61E0FBA3E475F001E8
:103B20001224F0A9F0FA12240F70EB900B6274FFCC
:103B3000F5F01225DB900B64E0FBA3E475F00112B5
:103B400024F0A9F0FA12240FFF900B61E0FBA3E42C
:103B500075F0011224F0A9F0FAEF12245570D690F6
:0B3B60000B67E0FBA3E0FAA3E0F922F2
:103A0B00900B69EBF0A3EAF0A3E9F0900B6CE0FBF1
:103A1B00A3E0FAA3E0F912240FFE900B69E0FBA3DD
:103A2B00E0FAA3E0F912240FFF6E702AEF600E90FC
:103A3B000B6F74FFF5F01225DB45F070037F00224E
:103A4B00900B6AE475F0011225DB900B6DE475F0B9
:103A5B00011225DB80B5900B69E0FBA3E0FAA3E034
:103A6B00F912240FFDD3EE6480F8ED6480984003C7
:103A7B007F0122900B6CE0FBA3E0FAA3E0F9122488
:073A8B000FFFC3ED9FFF22B6
:1043E300E4FFFE12240F600C0FEF70010E09E97059
:0543F300F20A80EF2238
:1025AF00EF4E6012EF60010EEDBB010B89828A8343
:1025BF00F0A3DFFCDEFA2289F05007F709DFFCA950
:0C25CF00F022BBFEFCF309DFFCA9F022A7
:10398B000244DBE493A3F8E493A34003F68001F233
:10399B0008DFF48029E493A3F85407240CC8C3333D
:1039AB00C4540F4420C8834004F456800146F6DF0C
:1039BB00E4800B0102040810204080903E83E47EDB
:1039CB00019360BCA3FF543F30E509541FFEE49301
:1039DB00A360010ECF54C025E060A840B8E493A3C8
:1039EB00FAE493A3F8E493A3C8C582C8CAC583CAF3
:1039FB00F0A3C8C582C8CAC583CADFE9DEE780BEAB
:013EC50000FC
:1025DB00C5F0F8A3E028F0C5F0F8E582158270028B
:0625EB001583E038F02228
:1025F100F8E0FBA3A3E0F925F0F0E5821582700273
:072601001583E0FA38F02216
:09260800EBF0A3EAF0A3E9F022D3
:10261100D083D082F8E4937012740193700DA3A358
:1026210093F8740193F5828883E47374029368606C
:06263100EFA3A3A380DF6C
:1041CC00EFB40A07740D1241D7740A309811A899EC
:1041DC00B8130CC2983098FDA899C298B811F63053
:0741EC0099FDC299F599222B
:00000001FF
