:100761004572726F723A20253032580A0072656301
:1007710065697665206C656E203D2025640A004917
:100781006E697420737461747573203A2047494E01
:10079100545F535441545F5048595F4348414E4759
:1007A100450A005465737420454550524F4D0A0067
:1007B100454550524F4D204572617365203D2025BE
:1007C1003032780A007C2D2D2D2D2D456570726FEC
:1007D1006D4E756D3A202564202D2D2D2D2D2D2D3D
:1007E1002D2D7C0A00577269746520454550726F42
:1007F1006D3A2E2E2E2E2E2E2E2020005753203DC8
:10080100202530327820202020202000526561648C
:1008110020454550726F6D3A2E2E2E2E2E2E2E0A09
:10082100002530327820000A002A2A2A2A2A2A2A78
:100831002A2A2A2A2A2A2A2A2A2A2A2A2A454550BB
:10084100524F4D204552524F522A2A2A2A2A2A2AE9
:100851002A2A2A2A2A2A2A2A2A2A0A007C2A2A2AEF
:100861002A2A2A2A2A2A2A2A2A2A2A2A2A2A2A2AE7
:100871004750494F20546573542A2A2A2A2A2A2A82
:100881002A2A2A2A2A2A2A2A2A2A2A2A2A2A2A2AC7
:100891002A2A2A2A2A2A2A2A7C0D0A007C2A2A2A7A
:1008A1002A2A2A2A2A2A2A2A2A4750494F204F75BA
:1008B1007450757454657374202A2A2A2A2A2A2AA4
:1008C1002A2A2A2A2A2A2A2A2A2A2A2A2A2A2A2A87
:1008D1007C0D0A007C2A2A2A2A2A2A2A2A2A2A2A3A
:1008E1002A2A5477696E6B6C6520352074696D65B1
:1008F100732A2A2A2A2A2A2A2A2A2A2A2A2A2A2A0E
:100901002A2A2A2A2A2A2A2A2A2A7C0D0A007C2A09
:100911002A2A2A2A2A2A2A2A2A2A2A4750494F20B9
:10092100496E50757454657374202A2A2A2A2A2A1A
:100931002A2A2A2A2A2A2A2A2A2A2A2A2A2A2A2A16
:100941002A7C0D0A0043757272656E74537461746A
:100951007573203A20253278200D0A004348333937
:100961003545565420546573742044656D6F0A00F3
:10097100434833393520436F6E6E65637420457487
:080981006865726E65740A00DE
:1015970044021CC0A8010A44024DC0A8010144022C
:1015A70047FFFFFF00440243C0A8016442024B0308
:0615B700E8420251138816
:0718B5007FFA1218BC7FFA54
:0718BC00AE071FEE70FA22D7
:071764007F821218387FC8D4
:10176B00AD07AF051DEF60081218B51218B580F262
:01177B00224B
:09191400D29475D55C43AA0822A7
:0D18D1008F86E5AA30E7FB53AA7FAF862281
:03186A00E4FCFBA0
:0C186D00D294C2941218D17F020218BC61
:10149700900338E0FBA3E475F001120124A9F0FAE8
:1014A7001200F9FF1214C2900338E0FBA3E475F0B1
:0B14B70001120124A9F0FA1200F9FF55
:0314C2000218D13C
:0818C30012186DAF051214C2EA
:0518CB007FFF1218D19F
:0118D00022F5
:08191D007F0512186DD294221F
:081925007F0312186DD2942219
:0A18DE007F0112186D1218CBD2948E
:0118E80022DD
:02190A00AD0727
:07190C007F061218C3D294FC
:0119130022B1
:0F187900AD077F2012186DAF051214C2D2942252
:0A18E9007F2612186D1218CBD2945E
:0118F30022D2
:0A18F4007F2912186D1218CBD29450
:0118FE0022C7
:1014C500E4900253F0FD7F2712186DD2947F0A1223
:1014D500176B12185FAD07EDB41010900253E0FFC3
:0D14E50004F0EFD394C840E57FFA22AF0574
:0114F20022D7
:1013910090032B1201767F0212186D90032BA3A3E9
:1013A100A3E0FF1214C290032BA3A3E0FEEEFF12F1
:1013B10014C290032BE0FCA3E0FDA3E0FEA3E0FF39
:0B13C10078101201501214C2D29422C6
:05185A007F0512176B71
:0A185F007F2C12186D1218CBD294E2
:01186900225C
:0B169700900253EBF0A3EAF0A3E9F08F
:1016A2007F2212186DE4FE9002531214B10EEEB4B2
:0416B20004F5D294D5
:0116B6002211
:0B16B700900253EBF0A3EAF0A3E9F06F
:1016C2007F2312186DE4FE9002531214B10EEEB491
:0416D20004F5D294B5
:0116D60022F1
:0B16D700900253EBF0A3EAF0A3E9F04F
:1016E2007F2412186DE4FE9002531214B10EEEB470
:0416F20004F5D29495
:0116F60022D1
:0B16310090032FEBF0A3EAF0A3E9F018
:10163C007F2112186DE4FE90032F1214B10EEEB43C
:09164C0006F5D2947F6402176BCD
:0B140400900332EBF0A3EAF0A3E9F044
:10140F007F4012186DE4FE1218CB900332E0FBA35D
:10141F00E475F001120124A9F0FAEF1201120EEE99
:05142F00B406E4D294B4
:011434002295
:100E7D00AD077F2512186DAF051214C2900323A381
:100E8D00A3A3E0FF1214C2900323A3A3E0FEEEFF81
:100E9D001214C2900323E0FCA3E0FDA3E0FEA3E047
:100EAD00FF78101201501214C2900323E0FCA3E04E
:100EBD00FDA3E0FEA3E0FF78181201501214C2A3A7
:100ECD00A3A3A3E0FF1214C2900327A3A3E0FEEE99
:100EDD00FF1214C2900327E0FCA3E0FDA3E0FEA3E4
:100EED00E0FF78101201501214C2900327E0FCA30A
:100EFD00E0FDA3E0FEA3E0FF78181201501214C22A
:030F0D00D2942259
:0B14350090025FEBF0A3EAF0A3E9F0E7
:101440007F2812186DE4FE1218CB90025FE0FBA318
:10145000E475F001120124A9F0FAEF1201120EEE68
:05146000B408E4D29481
:011465002264
:0D13CC00900335EBF0A3EAF0A3E9F0AD07C4
:1013D9007F2D12186DAF051214C2E4FE1218CB90BE
:1013E9000335E0FBA3E475F001120124A9F0FAEF3B
:0A13F9001201120EEEB406E4D294C5
:0114030022C6
:1016F700900338EBF0A3EAF0A3E9F0AD077F3112CE
:10170700186DAF051214C2121497121497D29422AF
:1017EA00AC077F3412186DAF041214C2AF0512147D
:0417FA00C2D29422A1
:10173200AB077F3212186DAF031214C2AF05121439
:09174200C2ECFF1214C2D2942281
:10174B00AB077F3312186DAF031214C2AF0512141F
:09175B00C2ECFF1214C2D2942268
:1017FE00AC077F3E12186DAF041214C2AF0512145F
:04180E00C2D294228C
:0F188800AD077F3F12186DAF051214C2D2942224
:0D125100900265EBF0A3EAF0A3E9F0AD0711
:10125E007F3912186DAF051214C2A3A3E0FF12144A
:10126E00C2900268E0FF1214C2E4FDFCD390026942
:10127E00E09D900268E09C400D9002651214B10D45
:08128E00BD00010C80E6D294C2
:011296002235
:02171700AD071C
:101719007F3B1218C3AD077C001218CBEFFEE42DF6
:08172900FDEC3ED294FEAF0579
:011731002295
:0F189700AD077F2E12186DAF051214C2D2942226
:0B102400900264EFF0A3ECF0A3EDF0ED
:10102F004C60487F3C12186D900264E0FF1214C2AE
:10103F00A3A3E0FF1214C2900265E0FF1214C27F57
:10104F00011218BCE4FDFCD3900266E09D9002658E
:10105F00E09C40151218CBEF120112740129F9E42C
:0B106F003AFA0DBD00010C80DED294A7
:01107A002253
:0F18A600AD077F2A12186DAF051214C2D294221B
:10179300AD07AC067F2A12186DAF051214C2ECFF19
:0617A3001214C2D29422D0
:1012D80090033BEBF0A3EAF0A3E9F0AD077F2F12F0
:1012E80018C390033BE0FBA3E475F001120124A9A5
:1012F800F0FAEF1201121218CB90033BE0FBA3E4C3
:1013080075F001120124A9F0FAEF120112D2942209
:0215E500AD0750
:1015E7007F3512186AAF051214C2D29412185AAB7B
:1015F70007EBB4100CAF040CEFD394C840EE7FFA9E
:0316070022AF030C
:01160A0022BD
:02160B00AD0729
:10160D007F3D12186AAF051214C2D29412185AAB4C
:10161D0007EBB4100CAF040CEFD394C840EE7FFA77
:03162D0022AF03E6
:011630002297
:0214F300AD0743
:1014F500E4FCFB7F3712186DAF051214C2D29412AB
:10150500185AAB07EBB4100CAF040CEFD394C840DA
:06151500EE7FFA22AF0395
:01151B0022AD
:02151C00AD0719
:10151E00E4FCFB7F3612186DAF051214C2D2941282
:10152E00185AAB07EBB4100CAF040CEFD394C840B1
:06153E00EE7FFA22AF036C
:011544002284
:02154500AD07F0
:10154700E4FCFB7F3812186DAF051214C2D2941257
:10155700185AAB07EBB4100CAF040CEFD394C84088
:06156700EE7FFA22AF0343
:01156D00225B
:02177C00AD07B7
:10177E007F3012186DAF051214C27F021218BC1200
:04178E0018CBD2940E
:011792002234
:0B0B7B00900301EBF0A3EAF0A3E9F007
:100B860090030C12018204C11DB79003101201825A
:100B9600FFFFFFFF90030412018200000000E47FC4
:100BA60006FEFDFC900304E0F8A3E0F9A3E0FAA337
:100BB600E0FBC312013A4003020CCE900301E0FBB6
:100BC600A3E475F001120124A9F0FA1200F99003CA
:100BD60014F090030812018200000000E47F08FE72
:100BE600FDFC900308E0F8A3E0F9A3E0FAA3E0FB1C
:100BF600C312013A4003020CA6900310E0FCA3E0E6
:100C0600FDA3E0FEA3E0FF781F120150A905AA0686
:100C1600AB07A3E0FFEB6FFFEF5401FFEF60189007
:100C2600030CE0FCA3E0FDA3E0FEA3E0FFC004C0CC
:100C360005C006C007800DE4FBFAF9F8C000C00144
:100C4600C002C003900310E0FCA3E0FDA3E0FEA3F6
:100C5600E0FF7801120163D003D002D001D000EF8B
:100C66006BFFEE6AFEED69FDEC68FC900310120165
:100C760076900314E0C313F0900308E0FCA3E0FDB4
:100C8600A3E0FEA3E0FFE4FAF9F8EF2401FFEA3E51
:100C9600FEE93DFDE83CFC900308120176020BE2FA
:100CA600900304E0FCA3E0FDA3E0FEA3E0FFE4FA6A
:100CB600F9F8EF2401FFEA3EFEE93DFDE83CFC9031
:100CC6000304120176020BA4900310E0FCA3E0FDDE
:100CD600A3E0FEA3E0FF781A120150900310120160
:090CE60076900310A3A3A3E0FF24
:010CEF0022E2
:02156E00AD07C7
:10157000E4FC7F4112186DAF051214C2D2947F149F
:1015800012176B12185FEFB4100CAE040CEED3946C
:06159000C840EB7FFA22C7
:011596002232
:0A18FF007F4212186D1218CBD2942C
:0119090022BB
:0B14660090033EEBF0A3EAF0A3E9F0D6
:101471007F4312186DE4FE1218CB90033EE0FBA3EC
:10148100E475F001120124A9F0FAEF1201120EEE37
:05149100B414E4D29444
:011496002233
:10183800AC077FED12186DAF041214C2AF05021485
:01184800C2DD
:0217D500AD075E
:1017D7007FEC12186DAF051214C27F0112176B123E
:0217E70018CB1D
:0117E90022DD
:101812007FE912186D7F1412176B12185FEF6410B4
:0218220060F371
:0118240022A1
:0F10CF009002DBEBF0A3EAF0A3E9F0AD07AC066B
:1010DE007FEA12186DAF051214C2ECFF1214C2A3F0
:1010EE00E0801D9002DEE0FF14F0EF60199002DB4D
:1010FE00E0FBA3E475F001120124A9F0FA1200F945
:10110E00FF1214C280DD7F1412176B12185FEF648A
:03111E001060F36B
:0111210022AB
:101170009002DBEBF0A3EAF0A3E9F0AD07AC067F49
:10118000EB12186DAF051214C2ECFF1214C2A3E0EB
:10119000FF1214C27F0112176B9002DEE0FF14F001
:1011A000EF60191218CB9002DBE0FBA3E475F001AD
:0D11B000120124A9F0FAEF12011280DD22D5
:10182500AD07AC067F5012186DAF051214C2ECFF60
:031835000214C2D8
:1017A900AC077F5212186DAF041214C2AF051214A0
:0617B900C2AF030214C2DE
:1017BF00AC077F5312186DAF041214C2AF05121489
:0617CF00C2AF030214C2C8
:10107B00900315EBF0A3EAF0A3E9F0A3120176902D
:10108B000321E0FF90031CE0FBA3E0FAA3E0F912BD
:10109B0016F7900321E0FF90031FE0FCA3E0FD1285
:1010AB001732900315E0FBA3E0FAA3E0F9A3A3A387
:1010BB00E0FFA3E0900268CFF0A3EFF0900321E0F4
:0410CB00FF021251BD
:101122009002531201767F5512186D900253A3A3B9
:10113200A3E0FF1214C2900253A3A3E0FEEEFF123B
:1011420014C2900253E0FCA3E0FDA3E0FEA3E0FF83
:1011520078101201501214C2900253E0FCA3E0FD79
:0E116200A3E0FEA3E0FF78181201500214C2B1
:101655007F1912186D7F021218BC1218CBAD077CCA
:10166500001218CBEFFEE42DFDEC3ED294FEAF0543
:011675002252
:10167600EF601D7BFF7A0779619002DCE4F0A3EF4F
:10168600F01204677FC812176B7FC812176B80F4BD
:011696002231
:101209007E007F237D007B017A02792012035D78BD
:10121900207C027D017B017A02791C7E007F041209
:1012290000D378247C027D017B017A02794D7E000E
:101239007F041200D378287C027D017B017A027930
:08124900477E007F040200D380
:1011BD007E007F1C7D007B017A02790012035D7831
:1011CD00007C027D017B017A0279437E007F04124F
:1011DD0000D390024BE0FFA3E0900211CFF0A3EFFC
:1011ED00F0900251E0FFA3E0900213CFF0A3EFF0D7
:0C11FD0090020A7403F0E490020CF0224F
:101318007B017A027900E4FF1216F790020AE0FDD9
:10132800E4FF1217EA900211E0FCA3E0FDE4FF12CB
:101338001732A3E0FCA3E0FDE4FF12174BE4FF1211
:0D13480015E5121676E4FF1214F302167676
:050CF00090025FEFF02F
:100CF50012177CA3EFF0900260E020E203020DA939
:100D050090025FE0FF121717900262EEF0A3EFF07A
:100D15007BFF7A07796E9002DCEEF0A3EFF0120408
:100D250067900262E0FEA3E0FF4E7003020DDBD385
:100D3500EF9400EE940240099002627402F0A3E47D
:100D4500F090025FE0FF900262E0FCA3E0FD7B0112
:100D55007A007900121024E4FFFED3900263E09F2D
:100D6500900262E09E402074002FF58274003EF5EB
:100D750083E0F4FD74002FF58274003EF583EDF0F9
:100D85000FBF00010E80D390025FE0FF7B017A0068
:100D95007900900262E0FDA3E0900268CDF0A3ED3A
:100DA500F0121251900260E030E62B90020CE070D8
:100DB500257FC812176B90025FE0FF1215E59002C0
:100DC50061EFF012167690025FE0FF1214F39002C5
:060DD50061E0FF1216763A
:010DDB0022F5
:100F9C00121655900253EEF0A3EFF030E0097B01EE
:100FAC007A027955121435900254E030E2097BFF35
:100FBC007A077980120467900254E030E405E4FF6C
:100FCC00120CF0900254E030E5057F01120CF09009
:100FDC000254E030E6057F02120CF0900254E0302F
:100FEC00E7057F03120CF0900253E030E0057F041C
:100FFC00120CF0900253E030E1057F05120CF090DA
:10100C000253E030E2057F06120CF0900253E03000
:07101C00E3057F07120CF051
:0110230022AA
:101355007F6512190AEF649A60037FFA227B017A8E
:101365000279201216977B017A0279241216B77B2F
:10137500017A0279281216D77F047E007D007C0051
:0B1385001211227F6412176B1214C5B6
:01139000223A
:10184900759850758780758921758DF3D28ED299D7
:01185900226C
:10098900E49002D4F0A3F0A3F0A3F0A3F07BFF7AE4
:100999000779A4120467121812900253EFF07BFF33
:1009A9007A0779B19002DCE4F0A3EFF0120467E46E
:1009B900900253F09002D7E475F0011201249002DD
:1009C90053E0FE2454F582E43402F583E5F0F07433
:1009D900542EF582E43402F583E0FF74942EF582F7
:1009E900E43402F583EFF0900253E004F0E0B44000
:1009F900C39002D4E0FF6008641F6004EFB43F1A9B
:100A09007BFF7A0779C69002DCE4F0A3EFF01204C9
:100A1900677BFF7A0779E61204679002D5E0FEA3A7
:100A2900E0FF7B017A0279549002DE7440F01210E3
:100A3900CF9002D4E0FE6009641F6005EE643F7048
:100A49003D7BFF7A0779FD9002DCE4F0A3EFF01219
:100A590004677BFF7A08790D120467E4900253F06A
:100A6900900253E0FFC39440501474542FF582E46C
:100A79003402F583E4F0900253E004F080E290023E
:100A8900D5E0FEA3E0FF7B017A0279549002DE747F
:100A990040F01211709002D4E0FF6009641F6005F4
:100AA900EF643F707AE4900253F0900253E0FFC381
:100AB900942050257BFF7A08792274542FF582E41B
:100AC9003402F583E0FF9002DCE4F0A3EFF01204B6
:100AD90067900253E004F080D17BFF7A08792812ED
:100AE9000467E4900253F0900253E0FFC39420504E
:100AF900257BFF7A08792274942FF582E43402F574
:100B090083E0FF9002DCE4F0A3EFF01204679002A7
:100B190053E004F080D17BFF7A08792812046778C2
:100B2900547C027D017B017A0279947E007F401218
:100B39000339EF60097BFF7A08792A12046790026A
:100B4900D6E02440F09002D5E03400F09002D4E0E1
:100B590004F0D39002D8E094FF9002D7E0940040CB
:100B690004E4F0A3F0C39002D5E094105003020905
:020B7900B822A0
:100DDC007BFF7A08795D1204677BFF7A08799D1294
:100DEC0004677DFF7F801218387F84121838E4FD69
:100DFC007F821218387BFF7A0879D5120467E49049
:100E0C000253F0E4FD1217647D551217647DAA128B
:100E1C0017647DFF121764900253E004F0E0C39452
:100E2C000540E07BFF7A09790F120467E4FD7F80AF
:100E3C001218387DFF7F841218387FF412176BE478
:100E4C00900254F07F811217D5900253EFF07BFF84
:100E5C007A0979469002DCE4F0A3EFF01204677F84
:100E6C00E812176B900254E004F0E0C3943240D4C3
:010E7C002253
:101297007F6412176B1218497BFF7A09795D120474
:1012A70067121914121209121355121676120989A8
:1012B700120DDC1218E9BF01077FC812176B80F304
:1012C7007BFF7A09797112046720B3FD120F9C80A6
:0112D700F81E
:03000000020F10DC
:0C0F1000787FE4F6D8FD758121020F57B0
:10000300E709F608DFFA8046E709F208DFFA803EDF
:1000130088828C83E709F0A3DFFA8032E309F608CC
:10002300DFFA8078E309F208DFFA807088828C8334
:10003300E309F0A3DFFA806489828A83E0A3F608E8
:10004300DFFA805889828A83E0A3F208DFFA804CC2
:1000530080D280FA80C680D4806980F28033801099
:1000630080A680EA809A80A880DA80E280CA803302
:1000730089828A83ECFAE493A3C8C582C8CCC5837A
:10008300CCF0A3C8C582C8CCC583CCDFE9DEE7804A
:100093000D89828A83E493A3F608DFF9ECFAA9F0C9
:1000A300EDFB2289828A83ECFAE0A3C8C582C8CC1F
:1000B300C583CCF0A3C8C582C8CCC583CCDFEADE38
:1000C300E880DB89828A83E493A3F208DFF980CC9A
:1000D30088F0EF60010E4E60C388F0ED2402B40493
:1000E3000050B9F582EB2402B4040050AF2323453A
:0600F3008223900053730C
:1000F900BB010689828A83E0225002E722BBFE0205
:09010900E32289828A83E4932237
:10011200BB010689828A83F0225002F722BBFE01CC
:02012200F322C6
:10012400A3F8E0C5F025F0F0E5821582700215838E
:06013400E0C838F0E822EB
:10013A00EB9FF5F0EA9E42F0E99D42F0EC6480C83C
:06014A0064809845F022DC
:10015000E8600FECC313FCED13FDEE13FEEF13FF8D
:03016000D8F122B1
:10016300E8600FEFC333FFEE33FEED33FDEC33FCFA
:03017300D8F1229E
:0C017600ECF0A3EDF0A3EEF0A3EFF022FC
:10018200A8828583F0D083D082120199120199123C
:100192000199120199E473E493A3C583C5F0C58361
:1001A200C8C582C8F0A3C583C5F0C583C8C582C8C7
:0101B200222A
:1003FC00E50824DCF582E43402F583E0050822905C
:10040C0002D93007039002DCE475F0011203B60246
:10041C0000F92000E97F2ED2008018EF540F2490B1
:10042C00D43440D4FF30040BEF24BFB41A00500373
:10043C002461FFE50960021509050CE50C70020545
:10044C000B30070E9002D9E475F0011203B6EF02DF
:10045C0001120215BE7403D2078003E4C207F5082B
:10046C009002D91203CDE4F509F50BF50CE5096002
:10047C00077F2012043F80F5750AFFC201C200C23B
:10048C0002C203C205C206C20812040BFF700D3073
:10049C0007057F00120450AF0CAE0B22B4255FC2CF
:1004AC00D5C20412040BFF24D0B40A00501A75F004
:1004BC000A780930D50508B6FF0106C6A426F62031
:1004CC00D5047002D20380D924CFB41A00EF5004A3
:1004DC00C2E5D204020651D20180C6D20080C0D23D
:1004EC000280BCD2D580BAD20580B47F2012043FE2
:1004FC002002077401B5090040F11203FCFF12043D
:10050C003F020479D208D20680951203FCFB120339
:10051C00FCFA1203FCF94A4B700679227A077BFF2E
:10052C0020022EE509602A7E008E8275830012035C
:10053C008960060EEE650A70F0C2D5EBC0E0EAC029
:10054C00E0E9C0E0EE120698D0E0F9D0E0FAD0E095
:10055C00FB1200F9FF60AAEBC0E0EAC0E0E9C0E0E2
:10056C0012043FD0E02401F9D0E03400FAD0E0FBD3
:10057C00E50A0460DCD50AD980877BFF7A0679947A
:10058C00D202809C791080027908C206C2088008C9
:10059C00D2D5790A8004790AC2D5E50A047002F52D
:1005AC000AE4FAFDFEFF1203FCFC7B082001131287
:1005BC0003FCFD7B1030000A1203FCFE1203FCFF4F
:1005CC007B20EC3382D592D55013C3E43000069FC8
:1005DC00FFE49EFEE42001039DFDE49CFCE4CBF8CB
:1005EC00C201EC700CCFCECDCCE824F8F870F380BF
:1005FC0017C3EF33FFEE33FEED33FDEC33FCEB337F
:10060C00FB994002FB0FD8E9EB300105F8D0E0C4B0
:10061C0048B201C0E00AEC4D4E4F78207B0070C20E
:10062C00EAB50A0040BCC0E012069AD0F0D0E02037
:10063C000104C4C0E0C4B201C0F0120428D0F0D54B
:10064C00F0EB0204791203D605165305905804E713
:10065C004C04E34205944F059C44059C4904FC431F
:08066C0005A25505864605862E
:100674004505864707425004EB2D04EF2E05122B47
:1006840004F323051020072B2A04AB480000050AB5
:100694003F3F3F00790AA2D5200314300509B91061
:1006A400020404B9080104A2D52006025001042062
:1006B40002689202B509005034C0E07F203003196B
:1006C4007F30A20272067205500F1206F1C202C2F6
:1006D40006C205C2087F30800F300503E9C0E0126E
:1006E400043F300503D0E0F9D0E0B509CC3005175C
:1006F4007F30B9100C12043F7F583004077F788094
:1007040003B9080312043F3002057F2D02043F7F22
:10071400202008F87F2B2006F322920280CF286E37
:10072400756C6C2900D2011203FC3001F8C2017807
:100734000930D50108F60204AB2D50434958120381
:10074400FC2403B405004001E490073D93120430F7
:0D075400743A120430D203750904020590B6
:1001B300E3F5F009E208B5F06BDFF58067E3F5F0EE
:1001C30009E608B5F05EDFF5805A87F009E608B561
:1001D300F052DFF6804E87F009E208B5F046DFF60D
:1001E300804288828C8387F009E0A3B5F036DFF67E
:1001F300803288828C8387F009E493A3B5F025DFEE
:10020300F5802188828C83E3F5F009E0A3B5F0142F
:10021300DFF5801088828C83E3F5F009E493A3B5BE
:10022300F002DFF40202E2808780E9809080D480CC
:100233003E8015806E807E809D80B7808D80A380F8
:10024300518074803C0202EE89828A83ECFAE49343
:10025300F5F0A3C8C582C8CCC583CCE493A3C8C5B5
:1002630082C8CCC583CCB5F076DFE3DEE18070894C
:10027300828A83E493F5F0A3E208B5F062DFF480A9
:100283005E89828A83E0F5F0A3E608B5F051DFF5D5
:10029300804D89828A83E0F5F0A3E208B5F040DF60
:1002A300F5803C89828A83E493F5F0A3E608B5F0F0
:1002B3002EDFF4802A8002805789828A83ECFAE455
:1002C30093F5F0A3C8C582C8CCC583CCE0A3C8C549
:1002D30082C8CCC583CCB5F006DFE4DEE280007FC4
:1002E300FFB5F0020F2240027F012289828A83EC4C
:1002F300FAE0F5F0A3C8C582C8CCC583CCE0A3C897
:10030300C582C8CCC583CCB5F0D5DFE5DEE380CFAD
:1003130089828A83ECFAE0F5F0A3C8C582C8CCC50C
:1003230083CCE493A3C8C582C8CCC583CCB5F0AF56
:10033300DFE4DEE280A988F0EF60010E4E60ABEDF2
:100343002402B404005098F582EB2402B404005054
:0A0353008E232345822390022A73B3
:10035D00EF4E6012EF60010EEDBB010B89828A83B7
:10036D00F0A3DFFCDEFA2289F05007F709DFFCA9C4
:0C037D00F022BBFEFCF309DFFCA9F0221B
:100F1C00021297E493A3F8E493A34003F68001F242
:100F2C0008DFF48029E493A3F85407240CC8C333D6
:100F3C00C4540F4420C8834004F456800146F6DFA5
:100F4C00E4800B0102040810204080901597E47E89
:100F5C00019360BCA3FF543F30E509541FFEE4939A
:100F6C00A360010ECF54C025E060A840B8E493A361
:100F7C00FAE493A3F8E493A3C8C582C8CAC583CA8C
:100F8C00F0A3C8C582C8CAC583CADFE9DEE780BE44
:0115BD00002D
:10038900BB010CE58229F582E5833AF583E0225029
:1003990006E92582F8E622BBFE06E92582F8E22273
:0D03A900E58229F582E5833AF583E493228D
:1003B600F8E0FBA3A3E0F925F0F0E58215827002D0
:0703C6001583E0FA38F02274
:0903CD00EBF0A3EAF0A3E9F02231
:1003D600D083D082F8E4937012740193700DA3A3B6
:1003E60093F8740193F5828883E4737402936860CA
:0603F600EFA3A3A380DFCA
:1015BE00EFB40A07740D1215C9740A309811A89960
:1015CE00B8130CC2983098FDA899C298B811F6308D
:0715DE0099FDC299F5992265
:00000001FF
