:100B090044021CC0A8010A44024DC0A801014402C4
:100B190047FFFFFF00440243C0A8016442024B03A0
:060B2900E84202511388AE
:070DE8007FFA120DEF7FFA04
:070DEF00AE071FEE70FA22AF
:100D4A00AD07AF051DEF6008120DE8120DE880F23D
:010D5A002276
:090E4700D29475D55C43AA08227F
:0D0E04008F86E5AA30E7FB53AA7FAF862258
:030D9D00E4FCFB78
:0C0DA000D294C294120E047F02020DEFE8
:1009DD00900253E0FBA3E475F001120124A9F0FA93
:1009ED001200F9FF120A08900253E0FBA3E475F020
:0B09FD0001120124A9F0FA1200F9FF1A
:030A0800020E04D7
:080DF600120DA0AF05120A085E
:050DFE007FFF120E044E
:010E030022CC
:080E50007F05120DA0D29422CF
:080E58007F03120DA0D29422C9
:0A0E11007F01120DA0120DFED29415
:010E1B0022B4
:020E3D00AD07FF
:070E3F007F06120DF6D294AC
:010E46002289
:0F0DAC00AD077F20120DA0AF05120A08D29422C6
:0A0E1C007F26120DA0120DFED294E5
:010E260022A9
:0A0E27007F29120DA0120DFED294D7
:010E3100229E
:100A0B00E4900253F0FD7F27120DA0D2947F0A12BF
:100A1B000D4A120D82AD07EDB41010900253E0FF9A
:0D0A2B0004F0EFD394C840E57FFA22AF0538
:010A3800229B
:1008A80090029F1201767F02120DA090029FA3A3CF
:1008B800A3E0FF120A0890029FA3A3E0FEEEFF1236
:1008C8000A0890029FE0FCA3E0FDA3E0FEA3E0FF7E
:0B08D8007810120150120A08D294227E
:050D7D007F05120D4A84
:0A0D82007F2C120DA0120DFED2947A
:010D8C002244
:0B0BC100900253EBF0A3EAF0A3E9F070
:100BCC007F22120DA0E4FE9002531209F70EEEB430
:040BDC0004F5D294B6
:010BE00022F2
:0B0BE100900253EBF0A3EAF0A3E9F050
:100BEC007F23120DA0E4FE9002531209F70EEEB40F
:040BFC0004F5D29496
:010C000022D1
:0B0C0100900253EBF0A3EAF0A3E9F02F
:100C0C007F24120DA0E4FE9002531209F70EEEB4ED
:040C1C0004F5D29475
:010C200022B1
:0B0B7C009002A7EBF0A3EAF0A3E9F061
:100B87007F21120DA0E4FE9002A71209F70EEEB422
:090B970006F5D2947F64020D4AB8
:0B091B009002AAEBF0A3EAF0A3E9F0C1
:100926007F40120DA0E4FE120DFE9002AAE0FBA38A
:10093600E475F001120124A9F0FAEF1201120EEE8D
:05094600B406E4D294A8
:01094B002289
:10042100AD077F25120DA0AF05120A0890028BA31C
:10043100A3A3E0FF120A0890028BA3A3E0FEEEFF44
:10044100120A0890028BE0FCA3E0FDA3E0FEA3E00A
:10045100FF7810120150120A0890028BE0FCA3E011
:10046100FDA3E0FEA3E0FF7818120150120A08A3D1
:10047100A3A3A3E0FF120A0890028FA3A3E0FEEE5C
:10048100FF120A0890028FE0FCA3E0FDA3E0FEA3A7
:10049100E0FF7810120150120A0890028FE0FCA3CD
:1004A100E0FDA3E0FEA3E0FF7818120150120A0854
:0304B100D29422C0
:0B094C0090025FEBF0A3EAF0A3E9F0DB
:100957007F28120DA0E4FE120DFE90025FE0FBA3BC
:10096700E475F001120124A9F0FAEF1201120EEE5C
:05097700B408E4D29475
:01097C002258
:0D08E3009002ADEBF0A3EAF0A3E9F0AD0741
:1008F0007F2D120DA0AF05120A08E4FE120DFE9026
:1009000002ADE0FBA3E475F001120124A9F0FAEFB7
:0A0910001201120EEEB406E4D294B8
:01091A0022BA
:100C2100900253EBF0A3EAF0A3E9F0AD077F311294
:100C31000DA0AF05120A081209DD1209DDD29422B6
:100CFC00AC077F34120DA0AF04120A08AF05120A1C
:040D0C0008D2942253
:100C5C00AB077F32120DA0AF03120A08AF05120AC0
:090C6C0008ECFF120A08D29422E0
:100C7500AB077F33120DA0AF03120A08AF05120AA6
:090C850008ECFF120A08D29422C7
:100D1000AC077F3E120DA0AF04120A08AF05120AFD
:040D200008D294223F
:0F0DBB00AD077F3F120DA0AF05120A08D2942298
:0D07E500900264EBF0A3EAF0A3E9F0AD0789
:1007F2007F39120DA0AF05120A08A3A3E0FF120A67
:1008020008900267E0FF120A08E4FDFCD390026838
:10081200E09D900267E09C400D9002641209F70D82
:08082200BD00010C80E6D29438
:01082A0022AB
:020C4100AD07FD
:100C43007F3B120DF6AD077C00120DFEEFFEE42D87
:080C5300FDEC3ED294FEAF055A
:010C5B002276
:0F0DCA00AD077F2E120DA0AF05120A08D294229A
:0B05B800900263EFF0A3ECF0A3EDF065
:1005C3004C60487F3C120DA0900263E0FF120A08C2
:1005D300A3A3E0FF120A08900264E0FF120A087F57
:1005E30001120DEFE4FDFCD3900265E09D900264DF
:1005F300E09C4015120DFEEF120112740129F9E47B
:0B0603003AFA0DBD00010C80DED2941D
:01060E0022C9
:0F0DD900AD077F2A120DA0AF05120A08D294228F
:100CA500AD07AC067F2A120DA0AF05120A08ECFFAE
:060CB500120A08D294228D
:10082B009002B0EBF0A3EAF0A3E9F0AD077F2F1233
:10083B000DF69002B0E0FBA3E475F001120124A9C0
:10084B00F0FAEF120112120DFE9002B0E0FBA3E4DE
:10085B0075F001120124A9F0FAEF120112D29422C1
:020B3000AD070F
:100B32007F35120D9DAF05120A08D294120D7DABBE
:100B420007EBB4100CAF040CEFD394C840EE7FFA5D
:030B520022AF03CC
:010B5500227D
:020B5600AD07E9
:100B58007F3D120D9DAF05120A08D294120D7DAB90
:100B680007EBB4100CAF040CEFD394C840EE7FFA37
:030B780022AF03A6
:010B7B002257
:020A6500AD07DB
:100A6700E4FCFB7F37120DA0AF05120A08D29412DF
:100A77000D7DAB07EBB4100CAF040CEFD394C8405B
:060A8700EE7FFA22AF032E
:010A8D002246
:020A8E00AD07B2
:100A9000E4FCFB7F36120DA0AF05120A08D29412B7
:100AA0000D7DAB07EBB4100CAF040CEFD394C84032
:060AB000EE7FFA22AF0305
:010AB600221D
:020AB700AD0789
:100AB900E4FCFB7F38120DA0AF05120A08D294128C
:100AC9000D7DAB07EBB4100CAF040CEFD394C84009
:060AD900EE7FFA22AF03DC
:010ADF0022F4
:020C8E00AD07B0
:100C90007F30120DA0AF05120A087F02120DEF126D
:040CA0000DFED294DF
:010CA400222D
:0B01DF00900269EBF0A3EAF0A3E9F046
:1001EA0090027412018204C11DB790027812018232
:1001FA00FFFFFFFF90026C12018200000000E47F03
:10020A0006FEFDFC90026CE0F8A3E0F9A3E0FAA375
:10021A00E0FBC312013A4003020332900269E0FB99
:10022A00A3E475F001120124A9F0FA1200F9900270
:10023A007CF090027012018200000000E47F08FE48
:10024A00FDFC900270E0F8A3E0F9A3E0FAA3E0FB5A
:10025A00C312013A400302030A900278E0FCA3E0C9
:10026A00FDA3E0FEA3E0FF781F120150A905AA062C
:10027A00AB07A3E0FFEB6FFFEF5401FFEF601890AD
:10028A000274E0FCA3E0FDA3E0FEA3E0FFC004C00B
:10029A0005C006C007800DE4FBFAF9F8C000C001EA
:1002AA00C002C003900278E0FCA3E0FDA3E0FEA335
:1002BA00E0FF7801120163D003D002D001D000EF31
:1002CA006BFFEE6AFEED69FDEC68FC9002781201A4
:1002DA007690027CE0C313F0900270E0FCA3E0FD8C
:1002EA00A3E0FEA3E0FFE4FAF9F8EF2401FFEA3EF7
:1002FA00FEE93DFDE83CFC900270120176020246DE
:10030A0090026CE0FCA3E0FDA3E0FEA3E0FFE4FAA8
:10031A00F9F8EF2401FFEA3EFEE93DFDE83CFC90D6
:10032A00026C120176020208900278E0FCA3E0FD5A
:10033A00A3E0FEA3E0FF781A12015090027812019E
:09034A0076900278A3A3A3E0FF62
:010353002287
:020AE000AD0760
:100AE200E4FC7F41120DA0AF05120A08D2947F14D4
:100AF200120D4A120D82EFB4100CAE040CEED39418
:060B0200C840EB7FFA225F
:010B080022CA
:0A0E32007F42120DA0120DFED294B3
:010E3C002293
:0B097D009002B3EBF0A3EAF0A3E9F056
:100988007F43120DA0E4FE120DFE9002B3E0FBA31C
:10099800E475F001120124A9F0FAEF1201120EEE2B
:0509A800B414E4D29438
:0109AD002227
:100D5B00AC077FED120DA0AF04120A08AF05020A13
:010D6B00087F
:020CE700AD0757
:100CE9007FEC120DA0AF05120A087F01120D4A12FE
:020CF9000DFEEE
:010CFB0022D6
:100D24007FE9120DA07F14120D4A120D82EF641098
:020D340060F36A
:010D3600229A
:0F066300900295EBF0A3EAF0A3E9F0AD07AC0627
:100672007FEA120DA0AF05120A08ECFF120A08A3C6
:10068200E0801D900298E0FF14F0EF60199002954F
:10069200E0FBA3E475F001120124A9F0FA1200F9BB
:1006A200FF120A0880DD7F14120D4A120D82EF64D8
:0306B2001060F3E2
:0106B5002222
:1007040090029BEBF0A3EAF0A3E9F0AD07AC067FFF
:10071400EB120DA0AF05120A08ECFF120A08A3E0C1
:10072400FF120A087F01120D4A90029EE0FF14F0A6
:10073400EF6019120DFE90029BE0FBA3E475F0013B
:0D074400120124A9F0FAEF12011280DD224B
:100D3700AD07AC067F50120DA0AF05120A08ECFFF5
:030D4700020A0895
:100CBB00AC077F52120DA0AF04120A08AF05120A3F
:060CCB0008AF03020A0855
:100CD100AC077F53120DA0AF04120A08AF05120A28
:060CE10008AF03020A083F
:10060F0090027DEBF0A3EAF0A3E9F0A3120176903C
:10061F000289E0FF900284E0FBA3E0FAA3E0F91265
:10062F000C21900289E0FF900287E0FCA3E0FD120D
:10063F000C5C90027DE0FBA3E0FAA3E0F9A3A3A377
:10064F00E0FFA3E0900267CFF0A3EFF0900289E004
:04065F00FF0207E5AA
:1006B6009002A31201767F55120DA09002A3A3A368
:1006C600A3E0FF120A089002A3A3A3E0FEEEFF1226
:1006D6000A089002A3E0FCA3E0FDA3E0FEA3E0FF6E
:1006E6007810120150120A089002A3E0FCA3E0FD64
:0E06F600A3E0FEA3E0FF7818120150020A08EC
:100BA0007F19120DA07F02120DEF120DFEAD077C12
:100BB00000120DFEEFFEE42DFDEC3ED294FEAF05DB
:010BC0002212
:100D8D00EF600C7FC8120D4A7FC8120D4A80F42205
:10079D007E007F237D007B017A0279201201B378E0
:1007AD00207C027D017B017A02791C7E007F041280
:1007BD0000D378247C027D017B017A02794D7E0085
:1007CD007F041200D378287C027D017B017A0279A7
:0807DD00477E007F040200D3F7
:100751007E007F1C7D007B017A0279001201B37853
:10076100007C027D017B017A0279437E007F0412C5
:1007710000D390024BE0FFA3E0900211CFF0A3EF72
:10078100F0900251E0FFA3E0900213CFF0A3EFF04D
:0C07910090020A7403F0E490020CF022C5
:10086B007B017A027900E4FF120C2190020AE0FD71
:10087B00E4FF120CFC900211E0FCA3E0FDE4FF127C
:10088B000C5CA3E0FCA3E0FDE4FF120C75E4FF128B
:0D089B000B30120D8DE4FF120A65020D8D69
:0503540090025FEFF0D4
:10035900120C8EA3EFF0900260E020E2030203F793
:1003690090025FE0FF120C41900261EEF0A3EFF002
:100379004E7003020420D3900262E094009002615F
:10038900E0940240067402F0A3E4F090025FE0FFFB
:10039900900261E0FCA3E0FD7B017A00790012057F
:1003A900B8E4FFFED3900262E09F900261E09E40B4
:1003B9002074002FF58274003EF583E0F4FD74008B
:1003C9002FF58274003EF583EDF00FBF00010E801A
:1003D900D390025FE0FF7B017A007900900261E02F
:1003E900FDA3E0900267CDF0A3EDF01207E59002BE
:1003F90060E030E62290020CE0701C7FC8120D4AC2
:1004090090025FE0FF120B30AA07120D8DE0FF1278
:070419000A65AF02120D8D10
:0104200022B9
:10054000120BA0900253EEF0A3EFF030E0097B0114
:100550007A02795512094C900254E030E405E4FF28
:10056000120354900254E030E5057F0112035490C9
:100570000254E030E6057F02120354900254E0304A
:10058000E7057F03120354900253E030E0057F0437
:10059000120354900253E030E1057F05120354909A
:1005A0000253E030E2057F06120354900253E0301C
:0705B000E3057F071203546D
:0105B7002221
:100A39007F65120E3DEF649A60037FFA227B017A8B
:100A4900027920120BC17B017A027924120BE17B16
:0B0A5900017A027928120C01120A0B2E
:010A6400226F
:100D6C00759850758780758921758DF3D28ED299BF
:010D7C002254
:1009AE007F64120D4A120D6C120E4712079D120A29
:1009BE0039120D8D120E1CBF01077FC8120D4A8011
:0F09CE00F312075112086B20B3FD12054080F899
:030000000204B443
:0C04B400787FE4F6D8FD7581070204FB98
:10000300E709F608DFFA8046E709F208DFFA803EDF
:1000130088828C83E709F0A3DFFA8032E309F608CC
:10002300DFFA8078E309F208DFFA807088828C8334
:10003300E309F0A3DFFA806489828A83E0A3F608E8
:10004300DFFA805889828A83E0A3F208DFFA804CC2
:1000530080D280FA80C680D4806980F28033801099
:1000630080A680EA809A80A880DA80E280CA803302
:1000730089828A83ECFAE493A3C8C582C8CCC5837A
:10008300CCF0A3C8C582C8CCC583CCDFE9DEE7804A
:100093000D89828A83E493A3F608DFF9ECFAA9F0C9
:1000A300EDFB2289828A83ECFAE0A3C8C582C8CC1F
:1000B300C583CCF0A3C8C582C8CCC583CCDFEADE38
:1000C300E880DB89828A83E493A3F208DFF980CC9A
:1000D30088F0EF60010E4E60C388F0ED2402B40493
:1000E3000050B9F582EB2402B4040050AF2323453A
:0600F3008223900053730C
:1000F900BB010689828A83E0225002E722BBFE0205
:09010900E32289828A83E4932237
:10011200BB010689828A83F0225002F722BBFE01CC
:02012200F322C6
:10012400A3F8E0C5F025F0F0E5821582700215838E
:06013400E0C838F0E822EB
:10013A00EB9FF5F0EA9E42F0E99D42F0EC6480C83C
:06014A0064809845F022DC
:10015000E8600FECC313FCED13FDEE13FEEF13FF8D
:03016000D8F122B1
:10016300E8600FEFC333FFEE33FEED33FDEC33FCFA
:03017300D8F1229E
:0C017600ECF0A3EDF0A3EEF0A3EFF022FC
:10018200A8828583F0D083D082120199120199123C
:100192000199120199E473E493A3C583C5F0C58361
:1001A200C8C582C8F0A3C583C5F0C583C8C582C8C7
:0101B200222A
:1001B300EF4E6012EF60010EEDBB010B89828A8363
:1001C300F0A3DFFCDEFA2289F05007F709DFFCA970
:0C01D300F022BBFEFCF309DFFCA9F022C7
:1004C0000209AEE493A3F8E493A34003F68001F29B
:1004D00008DFF48029E493A3F85407240CC8C3333D
:1004E000C4540F4420C8834004F456800146F6DF0C
:1004F000E4800B0102040810204080900B09E47E88
:10050000019360BCA3FF543F30E509541FFEE49300
:10051000A360010ECF54C025E060A840B8E493A3C7
:10052000FAE493A3F8E493A3C8C582C8CAC583CAF2
:10053000F0A3C8C582C8CAC583CADFE9DEE780BEAA
:010B2F0000C5
:00000001FF
