:101287004D61634372633332203A202532780A0076
:100B7500440234C0A8010A440265C0A80101440228
:100B85005FFFFFFF0046026B0203040506074402F0
:100B950026FFFFFFFF420263138842026913884460
:100BA500025BEA05060746000401005E0506074AE2
:100BB500022A526563766461746121004400000075
:030BC50000000A23
:0712E2007FFA1212E97FFA06
:0712E900AE071FEE70FA22B0
:071181007FC81211887FC82E
:10118800AD07AF051DEF60081212E21212E280F2FD
:011198002234
:09134100D29475D55C43AA082280
:0D12FE008F86E5AA30E7FB53AA7FAF86225A
:03129700E4FCFB79
:0C129A00D294C2941212FE7F020212E9EC
:100EFC00900298E0FBA3E475F001120489A9F0FAC2
:100F0C0012045EFF120F27900298E0FBA3E475F029
:0B0F1C0001120489A9F0FA12045EFF24
:030F27000212FEB5
:0812F00012129AAF05120F273C
:0512F8007FFF1212FE51
:0112FD0022CE
:081353007F0512129AD29422C8
:08135B007F0312129AD29422C2
:0A130B007F0112129A1212F8D29418
:0113150022B5
:02133700AD0700
:071339007F061212F0D294AE
:01134000228A
:0F12A600AD077F2012129AAF05120F27D29422A4
:0A1316007F2612129A1212F8D294E8
:0113200022AA
:0A1321007F2912129A1212F8D294DA
:01132B00229F
:100F2A00E490027AF0FD7F2712129AD2947F0A1275
:100F3A00118812127CAD07EDB4101090027AE0FF0E
:0D0F4A0004F0EFD394C840E57FFA22AF0514
:010F57002277
:100DC1009002AE1204DB7F0212129A9002AEA3A32C
:100DD100A3E0FF120F279002AEA3A3E0FEEEFF12E5
:100DE1000F279002AEE0FCA3E0FDA3E0FEA3E0FF2D
:0B0DF10078101204B5120F27D29422D4
:051277007F0512118843
:0A127C007F2C12129A1212F8D2947D
:011286002245
:0B10B40090027AEBF0A3EAF0A3E9F051
:1010BF007F2212129AE4FE90027A120F160EEEB4ED
:0410CF0004F5D294BE
:0110D30022FA
:0B10D40090027AEBF0A3EAF0A3E9F031
:1010DF007F2312129AE4FE90027A120F160EEEB4CC
:0410EF0004F5D2949E
:0110F30022DA
:0B10F40090027AEBF0A3EAF0A3E9F011
:1010FF007F2412129AE4FE90027A120F160EEEB4AB
:04110F0004F5D2947D
:0111130022B9
:0B106F0090027AEBF0A3EAF0A3E9F096
:10107A007F2112129AE4FE90027A120F160EEEB433
:09108A0006F5D2947F640211887E
:0B0E69009002B6EBF0A3EAF0A3E9F062
:100E74007F4012129AE4FE1212F89002B6E0FBA32D
:100E8400E475F001120489A9F0FAEF1204770EEE6A
:050E9400B406E4D29455
:010E99002236
:1008D800AD077F2512129AAF05120F2790027BA34E
:1008E800A3A3E0FF120F2790027BA3A3E0FEEEFF75
:1008F800120F2790027BE0FCA3E0FDA3E0FEA3E03B
:10090800FF78101204B5120F2790027BE0FCA3E0D9
:10091800FDA3E0FEA3E0FF78181204B5120F27A389
:10092800A3A3A3E0FF120F2790027FA3A3E0FEEE8C
:10093800FF120F2790027FE0FCA3E0FDA3E0FEA3D7
:10094800E0FF78101204B5120F2790027FE0FCA395
:10095800E0FDA3E0FEA3E0FF78181204B5120F270C
:03096800D2942204
:0B0E9A00900286EBF0A3EAF0A3E9F061
:100EA5007F2812129AE4FE1212F8900286E0FBA344
:100EB500E475F001120489A9F0FAEF1204770EEE39
:050EC500B408E4D29422
:010ECA002205
:0D0DFC009002B9EBF0A3EAF0A3E9F0AD0717
:100E09007F2D12129AAF05120F27E4FE1212F890E5
:100E190002B9E0FBA3E475F001120489A9F0FAEF25
:0A0E29001204770EEEB406E4D29432
:010E3300229C
:10111400900298EBF0A3EAF0A3E9F0AD077F311257
:10112400129AAF05120F27120EFC120EFCD2942253
:10120700AC077F3412129AAF04120F27AF05120FE3
:0412170027D2942224
:10114F00AB077F3212129AAF03120F27AF05120FA0
:09115F0027ECFF120F27D29422A5
:10116800AB077F3312129AAF03120F27AF05120F86
:0911780027ECFF120F27D294228C
:10121B00AC077F3E12129AAF04120F27AF05120FC5
:04122B0027D2942210
:0F12B500AD077F3F12129AAF05120F27D2942276
:0D0CFE00900299EBF0A3EAF0A3E9F0AD0736
:100D0B007F3912129AAF05120F27A3A3E0FF120F20
:100D1B002790029CE0FF120F27E4FDFCD390029D6D
:100D2B00E09D90029CE09C400D900299120F160DD5
:080D3B00BD00010C80E6D2941A
:010D4300228D
:02113400AD0705
:101136007F3B1212F0AD077C001212F8EFFEE42D91
:08114600FDEC3ED294FEAF0562
:01114E00227E
:0F12C400AD077F2E12129AAF05120F27D2942278
:0B0ACA0090028BEFF0A3ECF0A3EDF026
:100AD5004C60487F3C12129A90028BE0FF120F2760
:100AE500A3A3E0FF120F2790028CE0FF120F277FD0
:100AF500011212E9E4FDFCD390028DE09D90028C79
:100B0500E09C40151212F8EF120477740129F9E4FC
:0B0B15003AFA0DBD00010C80DED29406
:010B200022B2
:0F12D300AD077F2A12129AAF05120F27D294226D
:1011B000AD07AC067F2A12129AAF05120F27ECFF7B
:0611C000120F27D2942259
:100D44009002BCEBF0A3EAF0A3E9F0AD077F2F1209
:100D540012F09002BCE0FBA3E475F001120489A92F
:100D6400F0FAEF1204771212F89002BCE0FBA3E44D
:100D740075F001120489A9F0FAEF120477D29422D3
:02102300AD0717
:101025007F35121297AF05120F27D294121277ABA4
:1010350007EBB4100CAF040CEFD394C840EE7FFA65
:0310450022AF03D4
:011048002285
:02104900AD07F1
:10104B007F3D121297AF05120F27D294121277AB76
:10105B0007EBB4100CAF040CEFD394C840EE7FFA3F
:03106B0022AF03AE
:01106E00225F
:020F5800AD07E3
:100F5A00E4FCFB7F3712129AAF05120F27D29412C4
:100F6A001277AB07EBB4100CAF040CEFD394C84064
:060F7A00EE7FFA22AF0336
:010F8000224E
:020F8100AD07BA
:100F8300E4FCFB7F3612129AAF05120F27D294129C
:100F93001277AB07EBB4100CAF040CEFD394C8403B
:060FA300EE7FFA22AF030D
:010FA9002225
:020FAA00AD0791
:100FAC00E4FCFB7F3812129AAF05120F27D2941271
:100FBC001277AB07EBB4100CAF040CEFD394C84012
:060FCC00EE7FFA22AF03E4
:010FD20022FC
:02119900AD07A0
:10119B007F3012129AAF05120F277F021212E9123B
:0411AB0012F8D294D0
:0111AF00221D
:0B05B70090027AEBF0A3EAF0A3E9F059
:1005C2009002851204E704C11DB79002891204E764
:1005D200FFFFFFFF90027D1204E700000000E47FAE
:1005E20006FEFDFC90027DE0F8A3E0F9A3E0FAA389
:1005F200E0FBC312049F400302070A90027AE0FB69
:10060200A3E475F001120489A9F0FA12045E9002C3
:100612008DF09002811204E700000000E47F08FEE2
:10062200FDFC900281E0F8A3E0F9A3E0FAA3E0FB6D
:10063200C312049F40030206E2900289E0FCA3E099
:10064200FDA3E0FEA3E0FF781F1204B5A905AA06E8
:10065200AB07A3E0FFEB6FFFEF5401FFEF601890D1
:100662000285E0FCA3E0FDA3E0FEA3E0FFC004C01E
:1006720005C006C007800DE4FBFAF9F8C000C0010E
:10068200C002C003900289E0FCA3E0FDA3E0FEA348
:10069200E0FF78011204C8D003D002D001D000EFED
:1006A2006BFFEE6AFEED69FDEC68FC9002891204B4
:1006B200DB90028DE0C313F0900281E0FCA3E0FD29
:1006C200A3E0FEA3E0FFE4FAF9F8EF2401FFEA3E1B
:1006D200FEE93DFDE83CFC9002811204DB02061EAD
:1006E20090027DE0FCA3E0FDA3E0FEA3E0FFE4FABC
:1006F200F9F8EF2401FFEA3EFEE93DFDE83CFC90FB
:10070200027D1204DB0205E0900289E0FCA3E0FD19
:10071200A3E0FEA3E0FF781A1204B5900289120446
:09072200DB900289A3A3A3E0FF10
:01072B0022AB
:020FD300AD0768
:100FD500E4FC7F4112129AAF05120F27D2947F14B9
:100FE50012118812127CEFB4100CAE040CEED394DF
:060FF500C840EB7FFA2268
:010FFB0022D3
:0A132C007F4212129A1212F8D294B6
:011336002294
:0B0ECB009002BFEBF0A3EAF0A3E9F0F7
:100ED6007F4312129AE4FE1212F89002BFE0FBA3BF
:100EE600E475F001120489A9F0FAEF1204770EEE08
:050EF600B414E4D294E5
:010EFB0022D4
:10125500AC077FED12129AAF04120F27AF05020FEC
:011265002761
:0211F200AD0747
:1011F4007FEC12129AAF05120F277F011211881289
:0212040012F8DE
:0112060022C5
:10122F007FE912129A7F1412118812127CEF641048
:02123F0060F35A
:01124100228A
:0F0BC9009002A4EBF0A3EAF0A3E9F0AD07AC06AD
:100BD8007FEA12129AAF05120F27ECFF120F27A314
:100BE800E0801D9002A7E0FF14F0EF60199002A4C6
:100BF800E0FBA3E475F001120489A9F0FA12045E7F
:100C0800FF120F2780DD7F1412118812127CEF6407
:030C18001060F376
:010C1B0022B6
:100C6A009002AAEBF0A3EAF0A3E9F0AD07AC067F85
:100C7A00EB12129AAF05120F27ECFF120F27A3E00F
:100C8A00FF120F277F011211889002ADE0FF14F0C6
:100C9A00EF60191212F89002AAE0FBA3E475F001C2
:0D0CAA00120489A9F0FAEF12047780DD2210
:10124200AD07AC067F5012129AAF05120F27ECFFC2
:03125200020F2761
:1011C600AC077F5212129AAF04120F27AF05120F07
:0611D60027AF03020F2702
:1011DC00AC077F5312129AAF04120F27AF05120FF0
:0611EC0027AF03020F27EC
:100B210090028BEBF0A3EAF0A3E9F0A31204DB90AF
:100B31000297E0FF900292E0FBA3E0FAA3E0F91232
:100B41001114900297E0FF900295E0FCA3E0FD12E2
:100B5100114F90028BE0FBA3E0FAA3E0F9A3A3A35A
:100B6100E0FFA3E090029CCFF0A3EFF0900297E0AA
:040B7100FF020CFE75
:100C1C009002B21204DB7F5512129A9002B2A3A377
:100C2C00A3E0FF120F279002B2A3A3E0FEEEFF1287
:100C3C000F279002B2E0FCA3E0FDA3E0FEA3E0FFCF
:100C4C0078101204B5120F279002B2E0FCA3E0FD5D
:0E0C5C00A3E0FEA3E0FF78181204B5020F27F4
:101093007F1912129A7F021212E91212F8AD077C1D
:1010A300001212F8EFFEE42DFDEC3ED294FEAF05E4
:0110B300221A
:09134A00EF600512118180FB2205
:100A6F007E007F237D007B017A027938120518788A
:100A7F00387C027D017B017A0279347E007F04127B
:100A8F000438783C7C027D017B017A0279657E0017
:100A9F007F0412043878407C027D017B017A027951
:100AAF005F7E007F0412043878447C027D017B0155
:0B0ABF007A02796B7E007F060204388B
:100CB7007E007F1C7D007B017A02790A1205187875
:100CC7000A7C027D017B017A0279267E007F04126D
:100CD7000438900263E0FFA3E090021BCFF0A3EF7C
:100CE700F0900269E0FFA3E090021DCFF0A3EFF0C0
:070CF7009002147402F022C8
:100E34007B017A02790AE4FF121114900214E0FD96
:100E4400E4FF12120790021BE0FCA3E0FDE4FF1292
:100E5400114FA3E0FCA3E0FDE4FF121168E4FF12CC
:050E6400102302134AF7
:05083300900286EFF0C9
:10083800121199EF20E2030208D7900286E0FF1216
:100848001134AD07AC06ED4C70030208D7D3ED9414
:1008580000EC940240047C027D00900286E0FF7B5D
:10086800017A00790A120ACA90000BE0FE90000A89
:10087800E07C002400FFEC3E900287F0A3EFF090AC
:10088800000DE0FE90000CE02400FFEC3E90028991
:10089800F0A3EFF0900000E0FCA3E0FDA3E0FEA3CE
:1008A800E0FF900292EBF0A37402F0A3745BF09067
:1008B8000263E0FBA3E0900295CBF0A3EBF090027B
:0F08C80086E0900297F07B017A02792A120B21C9
:0108D70022FE
:1009F70012109390027AEEF0A3EFF030E0097B013A
:100A07007A02797C120E9A90027BE030E405E4FFCB
:100A170012083390027BE030E5057F01120833901E
:100A2700027BE030E6057F0212083390027BE0305C
:100A3700E7057F0312083390027AE030E0057F0470
:100A470012083390027AE030E1057F0512083390EF
:100A5700027AE030E2057F0612083390027AE0302E
:070A6700E3057F07120833CD
:010A6E002265
:100D84007F65121337EF649A60037FFA227B017A3E
:100D94000279381210B47B017A02793C1210D47BA8
:100DA400017A0279401210F47B017A02794412101C
:0C0DB4006F1211817FC8121188120F2AE3
:010DC0002210
:10126600759850758780758921758DF3D28ED299C0
:011276002255
:10072C009002721204E7000000009002761204E7B7
:10073C00000000007F64121188121266121341121D
:10074C000A6F120D8412134A7B017A007904120588
:10075C00B7900271EFF07BFF7A12798790027DE4FB
:10076C00F0A3EFF012006E900271E0D3941F403AA8
:10077C00E024E1F0900276E0F8A3E0F9A3E0FAA31C
:10078C00E0FBC000C001E47F01FEFDFC900271E0C3
:10079C00F9F81204C8D001D000EB4FFFEA4EFEE985
:1007AC004DFDE84CFC9002768032900272E0F8A38A
:1007BC00E0F9A3E0FAA3E0FBC000C001E47F01FE76
:1007CC00FDFC900271E0F9F81204C8D001D000EBE6
:1007DC004FFFEA4EFEE94DFDE84CFCA31204DB9002
:1007EC000272E0FCA3E0FDA3E0FEA3E0FF90027B1D
:1007FC001204DB900276E0FCA3E0FDA3E0FEA3E094
:10080C00FF90027F1204DB7F1D1208D8121316BF53
:10081C0001077FC812118880F3120CB7120E342016
:07082C00B3FD1209F780F88B
:0300000002096B87
:0C096B00787FE4F6D8FD7581210209B206
:10036800E709F608DFFA8046E709F208DFFA803E77
:1003780088828C83E709F0A3DFFA8032E309F60864
:10038800DFFA8078E309F208DFFA807088828C83CC
:10039800E309F0A3DFFA806489828A83E0A3F60880
:1003A800DFFA805889828A83E0A3F208DFFA804C5A
:1003B80080D280FA80C680D4806980F28033801031
:1003C80080A680EA809A80A880DA80E280CA80339A
:1003D80089828A83ECFAE493A3C8C582C8CCC58312
:1003E800CCF0A3C8C582C8CCC583CCDFE9DEE780E2
:1003F8000D89828A83E493A3F608DFF9ECFAA9F061
:10040800EDFB2289828A83ECFAE0A3C8C582C8CCB6
:10041800C583CCF0A3C8C582C8CCC583CCDFEADECF
:10042800E880DB89828A83E493A3F208DFF980CC31
:1004380088F0EF60010E4E60C388F0ED2402B4042A
:100448000050B9F582EB2402B4040050AF232345D1
:0604580082239003B8733B
:10045E00BB010689828A83E0225002E722BBFE029C
:09046E00E32289828A83E49322CF
:10047700BB010689828A83F0225002F722BBFE0164
:02048700F3225E
:10048900A3F8E0C5F025F0F0E58215827002158326
:06049900E0C838F0E82283
:10049F00EB9FF5F0EA9E42F0E99D42F0EC6480C8D4
:0604AF0064809845F02274
:1004B500E8600FECC313FCED13FDEE13FEEF13FF25
:0304C500D8F12249
:1004C800E8600FEFC333FFEE33FEED33FDEC33FC92
:0304D800D8F12236
:0C04DB00ECF0A3EDF0A3EEF0A3EFF02294
:1004E700A8828583F0D083D0821204FE1204FE1204
:1004F70004FE1204FEE473E493A3C583C5F0C58329
:10050700C8C582C8F0A3C583C5F0C583C8C582C85E
:0105170022C1
:10000300E508247DF582E43402F583E005082290B7
:10001300027A30070390027DE475F0011205710244
:10002300045E2000E97F2ED2008018EF540F249045
:10003300D43440D4FF30040BEF24BFB41A00500370
:100043002461FFE50960021509050CE50C70020542
:100053000B30070E90027AE475F001120571EF027E
:100063000477020FFC7403D2078003E4C207F50888
:1000730090027A120588E4F509F50BF50CE50960A1
:10008300077F2012004680F5750AFFC201C200C235
:1000930002C203C205C206C208120012FF700D306D
:1000A30007057F00120057AF0CAE0B22B4255FC2C9
:1000B300D5C204120012FF24D0B40A00501A75F0FE
:1000C3000A780930D50508B6FF0106C6A426F6202E
:1000D300D5047002D20380D924CFB41A00EF5004A0
:1000E300C2E5D204020258D20180C6D20080C0D237
:1000F3000280BCD2D580BAD20580B47F20120046DC
:100103002002077401B5090040F1120003FF120039
:1001130046020080D208D2068095120003FB12002B
:1001230003FA120003F94A4B700679297A037BFF1D
:1001330020022EE509602A7E008E82758300120557
:100143004460060EEE650A70F0C2D5EBC0E0EAC06B
:10015300E0E9C0E0EE12029FD0E0F9D0E0FAD0E08F
:10016300FB12045EFF60AAEBC0E0EAC0E0E9C0E076
:10017300120046D0E02401F9D0E03400FAD0E0FBCD
:10018300E50A0460DCD50AD980877BFF7A02799B74
:10019300D202809C791080027908C206C2088008C6
:1001A300D2D5790A8004790AC2D5E50A047002F52A
:1001B3000AE4FAFDFEFF120003FC7B082001131280
:1001C3000003FD7B1030000A120003FE120003FF40
:1001D3007B20EC3382D592D55013C3E43000069FC5
:1001E300FFE49EFEE42001039DFDE49CFCE4CBF8C8
:1001F300C201EC700CCFCECDCCE824F8F870F380BC
:1002030017C3EF33FFEE33FEED33FDEC33FCEB337B
:10021300FB994002FB0FD8E9EB300105F8D0E0C4AD
:1002230048B201C0E00AEC4D4E4F78207B0070C20B
:10023300EAB50A0040BCC0E01202A1D0F0D0E02031
:100243000104C4C0E0C4B201C0F012002FD0F0D545
:10025300F0EB020080120591011D5301975800EE47
:100263004C00EA42019B4F01A34401A3490103430C
:0802730001A955018D46018D22
:10027B0045018D4703495000F22D00F62E01192B35
:10028B0000FA2301172003322A00B24800000111A3
:10029B003F3F3F00790AA2D5200314300509B9105E
:1002AB00020404B9080104A2D5200602500104205F
:1002BB0002689202B509005034C0E07F2030031968
:1002CB007F30A20272067205500F1202F8C202C2F0
:1002DB0006C205C2087F30800F300503E9C0E0126B
:1002EB000046300503D0E0F9D0E0B509CC30051756
:1002FB007F30B9100C1200467F583004077F78808E
:10030B0003B908031200463002057F2D0200467F19
:10031B00202008F87F2B2006F322920280CF286E34
:10032B00756C6C2900D2011200033001F8C2017800
:10033B000930D50108F60200B22D5043495812007E
:10034B00032403B405004001E490034493120037E7
:0D035B00743A120037D203750904020197AD
:10051800EF4E6012EF60010EEDBB010B89828A83FA
:10052800F0A3DFFCDEFA2289F05007F709DFFCA907
:0C053800F022BBFEFCF309DFFCA9F0225E
:1009770002072CE493A3F8E493A34003F68001F263
:1009870008DFF48029E493A3F85407240CC8C33381
:10099700C4540F4420C8834004F456800146F6DF50
:1009A700E4800B0102040810204080900B75E47E60
:1009B700019360BCA3FF543F30E509541FFEE49345
:1009C700A360010ECF54C025E060A840B8E493A30C
:1009D700FAE493A3F8E493A3C8C582C8CAC583CA37
:1009E700F0A3C8C582C8CAC583CADFE9DEE780BEEF
:010BC800002C
:10054400BB010CE58229F582E5833AF583E022506C
:1005540006E92582F8E622BBFE06E92582F8E222B6
:0D056400E58229F582E5833AF583E49322D0
:10057100F8E0FBA3A3E0F925F0F0E5821582700213
:070581001583E0FA38F022B7
:09058800EBF0A3EAF0A3E9F02274
:10059100D083D082F8E4937012740193700DA3A3F9
:1005A10093F8740193F5828883E47374029368600D
:0605B100EFA3A3A380DF0D
:100FFC00EFB40A07740D121007740A309811A899EF
:10100C00B8130CC2983098FDA899C298B811F63054
:07101C0099FDC299F599222C
:00000001FF
