:100866004572726F723A20253032580A00726563FB
:1008760065697665206C656E203D2025640A004416
:10088600617461204C656E203D2025640A00506F1E
:100896007274203D2025640A004950203D202532EF
:1008A600642E2532642E2532642E2532642E0A00EB
:1008B600496E697420737461747573203A204749D0
:1008C6004E545F535441545F5048595F4348414E1C
:1008D60047450A0043483339354556542054657315
:1008E600742044656D6F0A00434833393520436FE1
:1008F6006E6E6563742045746865726E65740A0071
:10100300440220C0A8010A44024DC0A801014402C1
:1010130047FFFFFF0044021CFFFFFFFF42024B0399
:06102300E84202511388AF
:07131A007FFA1213217FFA94
:07132100AE071FEE70FA2277
:10128C00AD07AF051DEF600812131A12131A80F286
:01129C00222F
:09137900D29475D55C43AA082248
:0D1336008F86E5AA30E7FB53AA7FAF862221
:0312CF00E4FCFB41
:0C12D200D294C2941213367F0202132142
:100ED700900273E0FBA3E475F001120489A9F0FA0C
:100EE70012045EFF120F02900273E0FBA3E475F099
:0B0EF70001120489A9F0FA12045EFF4A
:030F0200021336A1
:081328001212D2AF05120F02F0
:051330007FFF121336DF
:011335002295
:081382007F051212D2D2942261
:08138A007F031212D2D294225B
:0A1343007F011212D2121330D2946F
:01134D00227D
:02136F00AD07C8
:071371007F06121328D2943D
:011378002252
:0F12DE00AD077F201212D2AF05120F02D2942259
:0A134E007F261212D2121330D2943F
:011358002272
:0A1359007F291212D2121330D29431
:011363002267
:100F0500E4900253F0FD7F271212D2D2947F0A1289
:100F1500128C1212C4AD07EDB41010900253E0FF0D
:0D0F250004F0EFD394C840E57FFA22AF0539
:010F3200229C
:100D9C009002B71204DB7F021212D29002B7A3A307
:100DAC00A3E0FF120F029002B7A3A3E0FEEEFF1226
:100DBC000F029002B7E0FCA3E0FDA3E0FEA3E0FF6E
:0B0DCC0078101204B5120F02D294221E
:0512BF007F0512128CF6
:0A12C4007F2C1212D2121330D294C4
:0112CE0022FD
:0B110300900253EBF0A3EAF0A3E9F028
:10110E007F221212D2E4FE900253120EF10EEEB4B2
:04111E0004F5D2946E
:0111220022AA
:0B112300900253EBF0A3EAF0A3E9F008
:10112E007F231212D2E4FE900253120EF10EEEB491
:04113E0004F5D2944E
:01114200228A
:0B114300900253EBF0A3EAF0A3E9F0E8
:10114E007F241212D2E4FE900253120EF10EEEB470
:04115E0004F5D2942E
:01116200226A
:0B109D009002BFEBF0A3EAF0A3E9F023
:1010A8007F211212D2E4FE9002BF120EF10EEEB4AE
:0910B80006F5D2947F6402128C4B
:0B0E44009002C2EBF0A3EAF0A3E9F07B
:100E4F007F401212D2E4FE1213309002C2E0FBA3D5
:100E5F00E475F001120489A9F0FAEF1204770EEE8F
:050E6F00B406E4D2947A
:010E7400225B
:10090600AD077F251212D2AF05120F029002A3A3E4
:10091600A3A3E0FF120F029002A3A3A3E0FEEEFF43
:10092600120F029002A3E0FCA3E0FDA3E0FEA3E009
:10093600FF78101204B5120F029002A3E0FCA3E0A8
:10094600FDA3E0FEA3E0FF78181204B5120F02A380
:10095600A3A3A3E0FF120F029002A7A3A3E0FEEE5B
:10096600FF120F029002A7E0FCA3E0FDA3E0FEA3A6
:10097600E0FF78101204B5120F029002A7E0FCA364
:10098600E0FDA3E0FEA3E0FF78181204B5120F0203
:03099600D29422D6
:0B0E750090025FEBF0A3EAF0A3E9F0AD
:100E80007F281212D2E4FE12133090025FE0FBA31F
:100E9000E475F001120489A9F0FAEF1204770EEE5E
:050EA000B408E4D29447
:010EA500222A
:0D0DD7009002C5EBF0A3EAF0A3E9F0AD0730
:100DE4007F2D1212D2AF05120F02E4FE12133090BF
:100DF40002C5E0FBA3E475F001120489A9F0FAEF3F
:0A0E04001204770EEEB406E4D29457
:010E0E0022C1
:10116300900273EBF0A3EAF0A3E9F0AD077F31122D
:1011730012D2AF05120F02120ED7120ED7D294223B
:10123E00AC077F341212D2AF04120F02AF05120F99
:04124E0002D2942212
:10119E00AB077F321212D2AF03120F02AF05120F3E
:0911AE0002ECFF120F02D29422A0
:1011B700AB077F331212D2AF03120F02AF05120F24
:0911C70002ECFF120F02D2942287
:10125200AC077F3E1212D2AF04120F02AF05120F7B
:0412620002D29422FE
:0F12ED00AD077F3F1212D2AF05120F02D294222B
:0D0CD500900274EBF0A3EAF0A3E9F0AD0784
:100CE2007F391212D2AF05120F02A3A3E0FF120F37
:100CF20002900277E0FF120F02E4FDFCD39002782B
:100D0200E09D900277E09C400D900274120EF10D6E
:080D1200BD00010C80E6D29443
:010D1A0022B6
:02118300AD07B6
:101185007F3B121328AD077C00121330EFFEE42DD0
:08119500FDEC3ED294FEAF0513
:01119D00222F
:0F12FC00AD077F2E1212D2AF05120F02D294222D
:0B0AAD00900266EFF0A3ECF0A3EDF068
:100AB8004C60487F3C1212D2900266E0FF120F028F
:100AC800A3A3E0FF120F02900267E0FF120F027F5C
:100AD80001121321E4FDFCD3900268E09D900267A7
:100AE800E09C4015121330EF120477740129F9E4E1
:0B0AF8003AFA0DBD00010C80DED29424
:010B030022CF
:0F130B00AD077F2A1212D2AF05120F02D2942221
:1011E700AD07AC067F2A1212D2AF05120F02ECFF31
:0611F700120F02D2942247
:100D5C009002C8EBF0A3EAF0A3E9F0AD077F2F12E5
:100D6C0013289002C8E0FBA3E475F001120489A9D2
:100D7C00F0FAEF1204771213309002C8E0FBA3E4F0
:100D8C0075F001120489A9F0FAEF120477D29422BB
:02105100AD07E9
:101053007F351212CFAF05120F02D2941212BFAB1B
:1010630007EBB4100CAF040CEFD394C840EE7FFA37
:0310730022AF03A6
:011076002257
:02107700AD07C3
:101079007F3D1212CFAF05120F02D2941212BFABED
:1010890007EBB4100CAF040CEFD394C840EE7FFA11
:0310990022AF0380
:01109C002231
:020F5F00AD07DC
:100F6100E4FCFB7F371212D2AF05120F02D29412AA
:100F710012BFAB07EBB4100CAF040CEFD394C84015
:060F8100EE7FFA22AF032F
:010F87002247
:020F8800AD07B3
:100F8A00E4FCFB7F361212D2AF05120F02D2941282
:100F9A0012BFAB07EBB4100CAF040CEFD394C840EC
:060FAA00EE7FFA22AF0306
:010FB000221E
:020FB100AD078A
:100FB300E4FCFB7F381212D2AF05120F02D2941257
:100FC30012BFAB07EBB4100CAF040CEFD394C840C3
:060FD300EE7FFA22AF03DD
:010FD90022F5
:0211D000AD0769
:1011D2007F301212D2AF05120F027F0212132112B8
:0411E2001330D29460
:0111E60022E6
:0B05B70090028EEBF0A3EAF0A3E9F045
:1005C2009002991204E704C11DB790029D1204E73C
:1005D200FFFFFFFF9002911204E700000000E47F9A
:1005E20006FEFDFC900291E0F8A3E0F9A3E0FAA375
:1005F200E0FBC312049F400302070A90028EE0FB55
:10060200A3E475F001120489A9F0FA12045E9002C3
:10061200A1F09002951204E700000000E47F08FEBA
:10062200FDFC900295E0F8A3E0F9A3E0FAA3E0FB59
:10063200C312049F40030206E290029DE0FCA3E085
:10064200FDA3E0FEA3E0FF781F1204B5A905AA06E8
:10065200AB07A3E0FFEB6FFFEF5401FFEF601890D1
:100662000299E0FCA3E0FDA3E0FEA3E0FFC004C00A
:1006720005C006C007800DE4FBFAF9F8C000C0010E
:10068200C002C00390029DE0FCA3E0FDA3E0FEA334
:10069200E0FF78011204C8D003D002D001D000EFED
:1006A2006BFFEE6AFEED69FDEC68FC90029D1204A0
:1006B200DB9002A1E0C313F0900295E0FCA3E0FD01
:1006C200A3E0FEA3E0FFE4FAF9F8EF2401FFEA3E1B
:1006D200FEE93DFDE83CFC9002951204DB02061E99
:1006E200900291E0FCA3E0FDA3E0FEA3E0FFE4FAA8
:1006F200F9F8EF2401FFEA3EFEE93DFDE83CFC90FB
:1007020002911204DB0205E090029DE0FCA3E0FDF1
:10071200A3E0FEA3E0FF781A1204B590029D120432
:09072200DB90029DA3A3A3E0FFFC
:01072B0022AB
:020FDA00AD0761
:100FDC00E4FC7F411212D2AF05120F02D2947F149F
:100FEC0012128C1212C4EFB4100CAE040CEED3948B
:060FFC00C840EB7FFA2261
:0110020022CB
:0A1364007F421212D2121330D2940D
:01136E00225C
:0B0EA6009002CBEBF0A3EAF0A3E9F010
:100EB1007F431212D2E4FE1213309002CBE0FBA367
:100EC100E475F001120489A9F0FAEF1204770EEE2D
:050ED100B414E4D2940A
:010ED60022F9
:10129D00AC077FED1212D2AF04120F02AF05020F91
:0112AD00023E
:02122900AD070F
:10122B007FEC1212D2AF05120F027F0112128C1239
:02123B0013306E
:01123D00228E
:101266007FE91212D27F1412128C1212C4EF64108C
:0212760060F323
:011278002253
:0F0B58009002ADEBF0A3EAF0A3E9F0AD07AC0615
:100B67007FEA1212D2AF05120F02ECFF120F02A397
:100B7700E0801D9002B0E0FF14F0EF60199002AD25
:100B8700E0FBA3E475F001120489A9F0FA12045EF0
:100B9700FF120F0280DD7F1412128C1212C4EF6451
:030BA7001060F3E8
:010BAA002228
:100BF9009002B3EBF0A3EAF0A3E9F0AD07AC067FEE
:100C0900EB1212D2AF05120F02ECFF120F02A3E092
:100C1900FF120F027F0112128C9002B6E0FF14F04E
:100C2900EF60191213309002B3E0FBA3E475F001F1
:0D0C3900120489A9F0FAEF12047780DD2281
:10127900AD07AC067F501212D2AF05120F02ECFF78
:03128900020F024F
:1011FD00AC077F521212D2AF04120F02AF05120FBD
:06120D0002AF03020F0214
:10121300AC077F531212D2AF04120F02AF05120FA5
:0612230002AF03020F02FE
:100B0400900266EBF0A3EAF0A3E9F0A31204DB90F1
:100B14000272E0FF90026DE0FBA3E0FAA3E0F91299
:100B24001163900272E0FF900270E0FCA3E0FD12FA
:100B3400119E900266E0FBA3E0FAA3E0F9A3A3A34D
:100B4400E0FFA3E0900277CFF0A3EFF0900272E011
:040B5400FF020CD5BB
:100BAB009002BB1204DB7F551212D29002BBA3A39F
:100BBB00A3E0FF120F029002BBA3A3E0FEEEFF1215
:100BCB000F029002BBE0FCA3E0FDA3E0FEA3E0FF5D
:100BDB0078101204B5120F029002BBE0FCA3E0FDEB
:0E0BEB00A3E0FEA3E0FF78181204B5020F028B
:1010C1007F191212D27F02121321121330AD077C45
:1010D10000121330EFFEE42DFDEC3ED294FEAF057D
:0110E10022EC
:1010E200EF601D7BFF7A087966900269E4F0A3EF56
:1010F200F012006E7FC812128C7FC812128C80F41C
:0111020022CA
:100C46007E007F237D007B017A02792412051878C5
:100C5600247C027D017B017A0279207E007F0412CA
:100C6600043878287C027D017B017A02794D7E006A
:100C76007F04120438782C7C027D017B017A02798C
:080C8600477E007F04020438E0
:100C8E007E007F1C7D007B017A02790012051878A8
:100C9E00007C027D017B017A02791C7E007F0412AA
:100CAE00043890024BE0FFA3E0900211CFF0A3EFC7
:100CBE00F0900251E0FFA3E0900213CFF0A3EFF00B
:070CCE0090020A7402F022FB
:100E0F007B017A027900E4FF12116390020AE0FD80
:100E1F00E4FF12123E900211E0FCA3E0FDE4FF128A
:100E2F00119EA3E0FCA3E0FDE4FF1211B7E4FF1253
:050E3F0010510210E259
:05072C0090025FEFF0F8
:100731001211D0EF20E20302086590025FE0FF1280
:100741001183A3EEF0A3EFF07BFF7A087973900297
:1007510069EEF0A3EFF012006E900260E0FEA3E0FC
:10076100FF4E7003020865D3EF9400EE9402400936
:100771009002607402F0A3E4F090025FE0FFA3E056
:10078100FCA3E0FD7B017A007900120AAD90000123
:10079100E0FE900000E07C002400FFEC3E9002624D
:1007A100F0A3EFF0900003E0FE900002E02400FFD0
:1007B100EC3E900264F0A3EFF07BFF7A087985901C
:1007C1000262E0FFA3E0900269CFF0A3EFF0120014
:1007D1006E7BFF7A087994900264E0FFA3E09002B7
:1007E10069CFF0A3EFF012006E7BFF7A08799F903A
:1007F1000004E0FF900269E4F0A3EFF0900005E04F
:10080100FF90026BE4F0A3EFF0900006E0FF90028E
:100811006DE4F0A3EFF0900007E0FF90026FE4F0C9
:10082100A3EFF012006E900261E024F8FF900260E5
:10083100E034FFFEE4FCFD90026D04F0A37400F0CF
:10084100A37404F0900264E0FBA3E0900270CBF08B
:10085100A3EBF090025FE0900272F07B017A0079E5
:0408610008120B046A
:010865002270
:100A25001210C1900253EEF0A3EFF030E0097B0104
:100A35007A027955120E75900254E030E2097BFF77
:100A45007A0879B612006E900254E030E405E4FFAE
:100A550012072C900254E030E5057F0112072C9017
:100A65000254E030E6057F0212072C900254E03074
:100A7500E7057F0312072C900253E030E0057F0461
:100A850012072C900253E030E1057F0512072C90E8
:100A95000253E030E2057F0612072C900253E03046
:070AA500E3057F0712072C97
:010AAC002227
:100F33007F6512136FEF649A60037FFA227B017A55
:100F43000279241211037B017A0279281211237B7F
:0B0F5300017A02792C121143120F05E5
:010F5E002270
:1012AE00759850758780758921758DF3D28ED29978
:0112BE00220D
:100D1B007F6412128C1212AE7BFF7A0879DA120002
:100D2B006E121379120C46120F331210E212134E7D
:100D3B00BF01077FC812128C80F37BFF7A0879EE14
:100D4B0012006E120C8E120E0F20B3FD120A2580AC
:010D5B00F89F
:0300000002099959
:0C099900787FE4F6D8FD7581210209E0AA
:10036800E709F608DFFA8046E709F208DFFA803E77
:1003780088828C83E709F0A3DFFA8032E309F60864
:10038800DFFA8078E309F208DFFA807088828C83CC
:10039800E309F0A3DFFA806489828A83E0A3F60880
:1003A800DFFA805889828A83E0A3F208DFFA804C5A
:1003B80080D280FA80C680D4806980F28033801031
:1003C80080A680EA809A80A880DA80E280CA80339A
:1003D80089828A83ECFAE493A3C8C582C8CCC58312
:1003E800CCF0A3C8C582C8CCC583CCDFE9DEE780E2
:1003F8000D89828A83E493A3F608DFF9ECFAA9F061
:10040800EDFB2289828A83ECFAE0A3C8C582C8CCB6
:10041800C583CCF0A3C8C582C8CCC583CCDFEADECF
:10042800E880DB89828A83E493A3F208DFF980CC31
:1004380088F0EF60010E4E60C388F0ED2402B4042A
:100448000050B9F582EB2402B4040050AF232345D1
:0604580082239003B8733B
:10045E00BB010689828A83E0225002E722BBFE029C
:09046E00E32289828A83E49322CF
:10047700BB010689828A83F0225002F722BBFE0164
:02048700F3225E
:10048900A3F8E0C5F025F0F0E58215827002158326
:06049900E0C838F0E82283
:10049F00EB9FF5F0EA9E42F0E99D42F0EC6480C8D4
:0604AF0064809845F02274
:1004B500E8600FECC313FCED13FDEE13FEEF13FF25
:0304C500D8F12249
:1004C800E8600FEFC333FFEE33FEED33FDEC33FC92
:0304D800D8F12236
:0C04DB00ECF0A3EDF0A3EEF0A3EFF02294
:1004E700A8828583F0D083D0821204FE1204FE1204
:1004F70004FE1204FEE473E493A3C583C5F0C58329
:10050700C8C582C8F0A3C583C5F0C583C8C582C85E
:0105170022C1
:10000300E5082469F582E43402F583E005082290CB
:100013000266300703900269E475F001120571026C
:10002300045E2000E97F2ED2008018EF540F249045
:10003300D43440D4FF30040BEF24BFB41A00500370
:100043002461FFE50960021509050CE50C70020542
:100053000B30070E900266E475F001120571EF0292
:10006300047702102A7403D2078003E4C207F50859
:10007300900266120588E4F509F50BF50CE50960B5
:10008300077F2012004680F5750AFFC201C200C235
:1000930002C203C205C206C208120012FF700D306D
:1000A30007057F00120057AF0CAE0B22B4255FC2C9
:1000B300D5C204120012FF24D0B40A00501A75F0FE
:1000C3000A780930D50508B6FF0106C6A426F6202E
:1000D300D5047002D20380D924CFB41A00EF5004A0
:1000E300C2E5D204020258D20180C6D20080C0D237
:1000F3000280BCD2D580BAD20580B47F20120046DC
:100103002002077401B5090040F1120003FF120039
:1001130046020080D208D2068095120003FB12002B
:1001230003FA120003F94A4B700679297A037BFF1D
:1001330020022EE509602A7E008E82758300120557
:100143004460060EEE650A70F0C2D5EBC0E0EAC06B
:10015300E0E9C0E0EE12029FD0E0F9D0E0FAD0E08F
:10016300FB12045EFF60AAEBC0E0EAC0E0E9C0E076
:10017300120046D0E02401F9D0E03400FAD0E0FBCD
:10018300E50A0460DCD50AD980877BFF7A02799B74
:10019300D202809C791080027908C206C2088008C6
:1001A300D2D5790A8004790AC2D5E50A047002F52A
:1001B3000AE4FAFDFEFF120003FC7B082001131280
:1001C3000003FD7B1030000A120003FE120003FF40
:1001D3007B20EC3382D592D55013C3E43000069FC5
:1001E300FFE49EFEE42001039DFDE49CFCE4CBF8C8
:1001F300C201EC700CCFCECDCCE824F8F870F380BC
:1002030017C3EF33FFEE33FEED33FDEC33FCEB337B
:10021300FB994002FB0FD8E9EB300105F8D0E0C4AD
:1002230048B201C0E00AEC4D4E4F78207B0070C20B
:10023300EAB50A0040BCC0E01202A1D0F0D0E02031
:100243000104C4C0E0C4B201C0F012002FD0F0D545
:10025300F0EB020080120591011D5301975800EE47
:100263004C00EA42019B4F01A34401A3490103430C
:0802730001A955018D46018D22
:10027B0045018D4703495000F22D00F62E01192B35
:10028B0000FA2301172003322A00B24800000111A3
:10029B003F3F3F00790AA2D5200314300509B9105E
:1002AB00020404B9080104A2D5200602500104205F
:1002BB0002689202B509005034C0E07F2030031968
:1002CB007F30A20272067205500F1202F8C202C2F0
:1002DB0006C205C2087F30800F300503E9C0E0126B
:1002EB000046300503D0E0F9D0E0B509CC30051756
:1002FB007F30B9100C1200467F583004077F78808E
:10030B0003B908031200463002057F2D0200467F19
:10031B00202008F87F2B2006F322920280CF286E34
:10032B00756C6C2900D2011200033001F8C2017800
:10033B000930D50108F60200B22D5043495812007E
:10034B00032403B405004001E490034493120037E7
:0D035B00743A120037D203750904020197AD
:10051800EF4E6012EF60010EEDBB010B89828A83FA
:10052800F0A3DFFCDEFA2289F05007F709DFFCA907
:0C053800F022BBFEFCF309DFFCA9F0225E
:1009A500020D1BE493A3F8E493A34003F68001F240
:1009B50008DFF48029E493A3F85407240CC8C33353
:1009C500C4540F4420C8834004F456800146F6DF22
:1009D500E4800B0102040810204080901003E47E9F
:1009E500019360BCA3FF543F30E509541FFEE49317
:1009F500A360010ECF54C025E060A840B8E493A3DE
:100A0500FAE493A3F8E493A3C8C582C8CAC583CA08
:100A1500F0A3C8C582C8CAC583CADFE9DEE780BEC0
:0110290000C6
:10054400BB010CE58229F582E5833AF583E022506C
:1005540006E92582F8E622BBFE06E92582F8E222B6
:0D056400E58229F582E5833AF583E49322D0
:10057100F8E0FBA3A3E0F925F0F0E5821582700213
:070581001583E0FA38F022B7
:09058800EBF0A3EAF0A3E9F02274
:10059100D083D082F8E4937012740193700DA3A3F9
:1005A10093F8740193F5828883E47374029368600D
:0605B100EFA3A3A380DF0D
:10102A00EFB40A07740D121035740A309811A89992
:10103A00B8130CC2983098FDA899C298B811F63026
:07104A0099FDC299F59922FE
:00000001FF
