:10134F004572726F723A20253032580A00496E6921
:10135F007420737461747573203A2047494E545F3B
:10136F00535441545F554E52454143480A0049502A
:10137F0020636F6E666C6963740A00496E6974202E
:10138F00737461747573203A2047494E545F5354F8
:10139F0041545F5048595F4348414E47450A004307
:1013AF004833393545565420546573742044656D60
:1013BF006F0A00434833393520436F6E6E6563748F
:0B13CF002045746865726E65740A00AA
:1018CA00460244020304050607440214C0A8010A9A
:1018DA00440240C0A8010144023BFFFFFF0044014B
:0918EA00F4C0A8016441023F01B1
:071CC2007FFA121CC97FFA32
:071CC900AE071FEE70FA22C6
:101C3400AD07AF051DEF6008121CC2121CC280F272
:011C4400227D
:091D2D00D29475D55C43AA08228A
:0D1CDE008F86E5AA30E7FB53AA7FAF862270
:031C7700E4FCFB8F
:0C1C7A00D294C294121CDE7F02021CC92E
:101818009002CDE0FBA3E475F001120873A9F0FA79
:10182800120809FF1218439002CDE0FBA3E475F0FB
:0B18380001120873A9F0FA120809FF62
:03184300021CDEA6
:081CD000121C7AAF0512184343
:051CD8007FFF121CDE7D
:011CDD0022E4
:081D36007F05121C7AD29422F1
:081D3E007F03121C7AD29422EB
:0A1CF7007F01121C7A121CD8D2944F
:011D010022BF
:021D2300AD070A
:071D25007F06121CD0D294CE
:011D2C002294
:0F1C8600AD077F20121C7AAF05121843D29422AB
:0A1D02007F26121C7A121CD8D2941E
:011D0C0022B4
:0A1D0D007F29121C7A121CD8D29410
:011D170022A9
:10184600E49002CDF0FD7F27121C7AD2947F0A1213
:101856001C34121C6CAD07EDB410109002CDE0FFE5
:0D18660004F0EFD394C840E57FFA22AF05EF
:011873002252
:1016DC0090034A1208D67F02121C7A90034AA3A3E5
:1016EC00A3E0FF12184390034AA3A3E0FEEEFF12FF
:1016FC00184390034AE0FCA3E0FDA3E0FEA3E0FF47
:0B170C0078101208B0121843D294228B
:051C67007F05121C3492
:0A1C6C007F2C121C7A121CD8D294AF
:011C7600224B
:0B1A93009002CDEBF0A3EAF0A3E9F015
:101A9E007F22121C7AE4FE9002CD1218320EEEB4A2
:041AAE0004F5D294D5
:011AB2002211
:0B1AB3009002CDEBF0A3EAF0A3E9F0F5
:101ABE007F23121C7AE4FE9002CD1218320EEEB481
:041ACE0004F5D294B5
:011AD20022F1
:0B1AD3009002CDEBF0A3EAF0A3E9F0D5
:101ADE007F24121C7AE4FE9002CD1218320EEEB460
:041AEE0004F5D29495
:011AF20022D1
:0B1A0B00900352EBF0A3EAF0A3E9F017
:101A16007F21121C7AE4FE9003521218320EEEB4A5
:091A260006F5D2947F64021C3421
:0B178500900355EBF0A3EAF0A3E9F09D
:101790007F40121C7AE4FE121CD8900355E0FBA394
:1017A000E475F001120873A9F0FAEF12084F0EEE7B
:0517B000B406E4D29430
:0117B5002211
:10123000AD077F25121C7AAF05121843900336A321
:10124000A3A3E0FF121843900336A3A3E0FEEEFF32
:10125000121843900336E0FCA3E0FDA3E0FEA3E0F8
:10126000FF78101208B0121843900336E0FCA3E098
:10127000FDA3E0FEA3E0FF78181208B0121843A304
:10128000A3A3A3E0FF12184390033AA3A3E0FEEE4A
:10129000FF12184390033AE0FCA3E0FDA3E0FEA395
:1012A000E0FF78101208B012184390033AE0FCA354
:1012B000E0FDA3E0FEA3E0FF78181208B012184387
:0312C000D29422A3
:0B17B6009002D9EBF0A3EAF0A3E9F0E9
:1017C1007F28121C7AE4FE121CD89002D9E0FBA3F8
:1017D100E475F001120873A9F0FAEF12084F0EEE4A
:0517E100B408E4D294FD
:0117E60022E0
:0D171700900358EBF0A3EAF0A3E9F0AD0752
:101724007F2D121C7AAF05121843E4FE121CD890C8
:101734000358E0FBA3E475F001120873A9F0FAEF73
:0A17440012084F0EEEB406E4D29432
:01174E002278
:101AF3009002CDEBF0A3EAF0A3E9F0AD077F31123A
:101B03001C7AAF05121843121818121818D294220F
:101BE600AC077F34121C7AAF04121843AF051218E3
:041BF60043D2942220
:101B2E00AB077F32121C7AAF03121843AF0512189F
:091B3E0043ECFF121843D294227B
:101B4700AB077F33121C7AAF03121843AF05121885
:091B570043ECFF121843D2942262
:101BFA00AC077F3E121C7AAF04121843AF051218C5
:041C0A0043D294220B
:0F1C9500AD077F3F121C7AAF05121843D294227D
:0D1617009002CEEBF0A3EAF0A3E9F0AD07DE
:101624007F39121C7AAF05121843A3A3E0FF1218E6
:10163400439002D1E0FF121843E4FDFCD39002D2A0
:10164400E09D9002D1E09C400D9002CE1218320D24
:08165400BD00010C80E6D294F8
:01165C00226B
:021B1300AD071C
:101B15007F3B121CD0AD077C00121CD8EFFEE42DD4
:081B2500FDEC3ED294FEAF0579
:011B2D002295
:0F1CA400AD077F2E121C7AAF05121843D294227F
:0B1435009002DBEFF0A3ECF0A3EDF061
:101440004C60487F3C121C7A9002DBE0FF1218438C
:10145000A3A3E0FF1218439002DCE0FF1218437FC1
:1014600001121CC9E4FDFCD39002DDE09D9002DC7A
:10147000E09C4015121CD8EF12084F740129F9E4C2
:0B1480003AFA0DBD00010C80DED29492
:01148B00223E
:0F1CB300AD077F2A121C7AAF05121843D2942274
:101B8F00AD07AC067F2A121C7AAF05121843ECFF83
:061B9F00121843D294224B
:10165D0090035BEBF0A3EAF0A3E9F0AD077F2F1247
:10166D001CD090035BE0FBA3E475F001120873A995
:10167D00F0FAEF12084F121CD890035BE0FBA3E4C5
:10168D0075F001120873A9F0FAEF12084FD29422E7
:0219BF00AD0772
:1019C1007F35121C77AF05121843D294121C67ABF6
:1019D10007EBB4100CAF040CEFD394C840EE7FFAC0
:0319E10022AF032F
:0119E40022E0
:0219E500AD074C
:1019E7007F3D121C77AF05121843D294121C67ABC8
:1019F70007EBB4100CAF040CEFD394C840EE7FFA9A
:031A070022AF0308
:011A0A0022B9
:0218F400AD073E
:1018F600E4FCFB7F37121C7AAF05121843D2941210
:101906001C67AB07EBB4100CAF040CEFD394C840C4
:06191600EE7FFA22AF0390
:01191C0022A8
:02191D00AD0714
:10191F00E4FCFB7F36121C7AAF05121843D29412E7
:10192F001C67AB07EBB4100CAF040CEFD394C8409B
:06193F00EE7FFA22AF0367
:01194500227F
:02194600AD07EB
:10194800E4FCFB7F38121C7AAF05121843D29412BC
:101958001C67AB07EBB4100CAF040CEFD394C84072
:06196800EE7FFA22AF033E
:01196E002256
:021B7800AD07B7
:101B7A007F30121C7AAF051218437F02121CC91259
:041B8A001CD8D294FD
:011B8E002234
:0B0DB300900314EBF0A3EAF0A3E9F0BA
:100DBE0090031F1208E204C11DB79003231208E22C
:100DCE00FFFFFFFF9003171208E200000000E47F10
:100DDE0006FEFDFC900317E0F8A3E0F9A3E0FAA3EA
:100DEE00E0FBC31208894003020F06900314E0FBD8
:100DFE00A3E475F001120873A9F0FA120809900322
:100E0E0027F090031B1208E200000000E47F08FEAA
:100E1E00FDFC90031BE0F8A3E0F9A3E0FAA3E0FBCE
:100E2E00C31208894003020EDE900323E0FCA3E008
:100E3E00FDA3E0FEA3E0FF781F1208B0A905AA06E5
:100E4E00AB07A3E0FFEB6FFFEF5401FFEF601890CD
:100E5E00031FE0FCA3E0FDA3E0FEA3E0FFC004C07F
:100E6E0005C006C007800DE4FBFAF9F8C000C0010A
:100E7E00C002C003900323E0FCA3E0FDA3E0FEA3A9
:100E8E00E0FF78011208C3D003D002D001D000EFEA
:100E9E006BFFEE6AFEED69FDEC68FC900323120811
:100EAE00D6900327E0C313F090031BE0FCA3E0FDF4
:100EBE00A3E0FEA3E0FFE4FAF9F8EF2401FFEA3E17
:100ECE00FEE93DFDE83CFC90031B1208D6020E1A0B
:100EDE00900317E0FCA3E0FDA3E0FEA3E0FFE4FA1D
:100EEE00F9F8EF2401FFEA3EFEE93DFDE83CFC90F7
:100EFE0003171208D6020DDC900323E0FCA3E0FDDD
:100F0E00A3E0FEA3E0FF781A1208B09003231208A4
:090F1E00D6900323A3A3A3E0FF76
:010F270022A7
:02196F00AD07C2
:10197100E4FC7F41121C7AAF05121843D2947F1404
:10198100121C34121C6CEFB4100CAE040CEED39488
:06199100C840EB7FFA22C2
:01199700222D
:0A1D18007F42121C7A121CD8D294EC
:011D2200229E
:0B17E7009002CDEBF0A3EAF0A3E9F0C4
:1017F2007F43121C7AE4FE121CD89002CDE0FBA3B8
:10180200E475F001120873A9F0FAEF12084F0EEE18
:05181200B414E4D294BF
:0118170022AE
:101C4500AC077FED121C7AAF04121843AF050218DA
:011C5500434B
:021BD100AD075E
:101BD3007FEC121C7AAF051218437F01121C3412DA
:021BE3001CD80C
:011BE50022DD
:101C0E007FE9121C7A7F14121C34121C6CEF6410C4
:021C1E0060F371
:011C200022A1
:0F14E000900340EBF0A3EAF0A3E9F0AD07AC06F0
:1014EF007FEA121C7AAF05121843ECFF121843A3C0
:1014FF00E0801D900343E0FF14F0EF60199003406C
:10150F00E0FBA3E475F001120873A9F0FA120809C1
:10151F00FF12184380DD7F14121C34121C6CEF6411
:03152F001060F356
:011532002296
:10158100900346EBF0A3EAF0A3E9F0AD07AC067FC8
:10159100EB121C7AAF05121843ECFF121843A3E0BB
:1015A100FF1218437F01121C34900349E0FF14F02D
:1015B100EF6019121CD8900346E0FBA3E475F0011B
:0D15C100120873A9F0FAEF12084F80DD2226
:101C2100AD07AC067F50121C7AAF05121843ECFFCA
:031C310002184353
:101BA500AC077F52121C7AAF04121843AF05121806
:061BB50043AF03021843D8
:101BBB00AC077F53121C7AAF04121843AF051218EF
:061BCB0043AF03021843C2
:10148C00900328EBF0A3EAF0A3E9F0A31208D6909E
:10149C000334E0FF90032FE0FBA3E0FAA3E0F91282
:1014AC001AF3900334E0FF900332E0FCA3E0FD124A
:1014BC001B2E900328E0FBA3E0FAA3E0F9A3A3A35F
:1014CC00E0FFA3E09002D1CFF0A3EFF0900334E063
:0414DC00FF021617DE
:1015330090034E1208D67F55121C7A90034EA3A334
:10154300A3E0FF12184390034EA3A3E0FEEEFF12A5
:10155300184390034EE0FCA3E0FDA3E0FEA3E0FFED
:1015630078101208B012184390034EE0FCA3E0FD7C
:0E157300A3E0FEA3E0FF78181208B0021843B0
:101A51007F19121C7A7F02121CC9121CD8AD077C97
:101A610000121CD8EFFEE42DFDEC3ED294FEAF0532
:011A71002252
:101A7200EF601D7BFF7A13794F9002DCE4F0A3EF55
:101A8200F01204197FC8121C347FC8121C3480F46F
:011A92002231
:1013DA007E007F237D007B017A0279181209137837
:1013EA00187C027D017B017A0279147E007F041247
:1013FA0007E3781C7C027D017B017A0279407E003A
:10140A007F041207E378207C027D017B017A02794E
:10141A003B7E007F041207E378247C027D017B0176
:0B142A007A0279447E007F060207E38F
:10174F007E007F1C7D007B017A0179F812091378E6
:10175F00F87C017D017B017A0179F47E007F041210
:10176F0007E3E4900202F090023FE0FFE4FCFDFE8D
:06177F009002050208D6ED
:1018A0007B017A0179F8E4FF121AF3900202E0FD5D
:1018B000E4FF121BE6900205A3A3A3E0FDE4FF12E0
:0A18C0001BFAE4FF1219BF021A72AE
:0215CE00AB0769
:1015D000121B78EF30E106900251E004F0EF30E2A8
:1015E00035AF03121B139002D9EEF0A3EFF04E605B
:1015F00025AF039002D9E0FCA3E0FD7B017A0079DE
:10160000001214359002D9E0FEA3E0FFE4FCFD7A5D
:06161000007900121064D5
:0116160022B1
:10118F00121A519002CDEEF0A3EFF030E0127BFF78
:10119F007A13795C1204197B017A0279CF1217B690
:1011AF009002CEE030E1097BFF7A13797D120419AA
:1011BF009002CEE030E2097BFF7A13798A1204198C
:1011CF009002CEE030E405E4FF1215CE9002CEE09F
:1011DF0030E5057F011215CE9002CEE030E6057F97
:1011EF00021215CE9002CEE030E7057F031215CE26
:1011FF009002CDE030E0057F041215CE9002CDE0D5
:10120F0030E1057F051215CE9002CDE030E2057F6B
:10121F00061215CE9002CDE030E3057F071215CEF2
:01122F00229C
:101874007F65121D23EF649A60037FFA227B017A4D
:10188400027918121A937B017A02791C121AB37B1B
:0B189400017A027920121AD3121846C4
:01189F002226
:101B600075985075878075CAF375CCF375CBFF7582
:081B7000CDFF75C834D29922A3
:10169D007F64121C347BFF7A1379AE120419121D6C
:1016AD002D1213DA121874121A72121D02BF0107CD
:1016BD007FC8121C3480F37BFF7A1379C212041990
:0F16CD0012174F1218A0121A2F120BBE021CEB8D
:101C5600121B6012169D20B30312118F120003800F
:011C6600F588
:100F28000A50696E67696E672025642E25642E2530
:100F3800642E25642077697468202564206279749A
:100F48006573206F6620646174613A0A0D0A007344
:100F5800656E642064617461206661696C210A00B1
:100F6800526571756573742074696D65206F757449
:100F78002E0A000D0A50696E6720737461746973D4
:100F88007469637320666F722025642E25642E258C
:100F9800642E25643A0A202020205061636B657412
:100FA800733A2053656E74203D20342C5265636576
:100FB80069766564203D2025642C4C6F7374203D50
:100FC8002025643C25642525206C6F73733E2E0A0A
:100FD8000D0A007265636576696520646174612035
:100FE800756E6B6E6F772E0A0D0A005265706C79FC
:100FF8002066726F6D2025642E25642E25642E25AB
:10100800643A2062797465733D25642074696D655E
:101018003C346D730A005265706C792066726F6D8E
:101028002025642E25642E25642E25643A204465E7
:101038007374696E6174696F6E20686F737420755C
:101048006E726561636861626C652E0A0052657034
:0C1058006C792070696E672E0A0D0A008A
:0C1CEB00758901758A41758CE3D28C224A
:101A2F00E49002CCF0900266F090024AF090024FE0
:101A3F00F0A3F0A3F0900267F07B017A02795202D3
:021A4F0017E797
:060BB8009002517401F0EF
:100BBE009002F51208E20000000090024FE004F0EF
:100BCE00A3E0240AF09002CD7408F0E4A3F09002A2
:100BDE00D17402F0A3E4F0900250E02464FEE433FA
:100BEE009002D3F0A3CEF07E007F207D007B017AB1
:100BFE000279D5120913E49002F9F09002F9E0FFA0
:100C0E00C394204003020CA2EFC3941A5005E024B3
:100C1E006180079002F9E0FF2447FE74D52FF5821C
:100C2E00E43402F583EEF09002F9E09002F520E054
:100C3E002CE0F8A3E0F9A3E0FAA3E0FBA3E024D5AF
:100C4E00F582E43402F583E07F00FE3395E0FDFC8F
:100C5E00EF2BFFEA3EFEE93DFDE83C8027E0F8A3DE
:100C6E00E0F9A3E0FAA3E0FBA3E024D5F582E43497
:100C7E0002F583E0FFE4FCFDFEEB2FFFEE3AFEED06
:100C8E0039FDEC38FC9002F51208D69002F9E0041A
:100C9E00F0020C099002F5E0F8A3E0F9A3E0FAA344
:100CAE00E0FB9002CDE07F00FE3395E0FDFCEF2BE4
:100CBE00FFEA3EFEE93DFDE83CFC9002F51208D647
:100CCE009002F5E0F8A3E0F9A3E0FAA3E0FB9002AE
:100CDE00CEE0FFE4FCFDFEEB2FFFEE3AFEED39FD1C
:100CEE00EC38FC9002F51208D69002F5E0F8A3E07D
:100CFE00F9A3E0FAA3E0FB9002D1E0FEA3E0FFE44B
:100D0E00FCFDEB2FFFEA3EFEED39FDEC38FC9002C8
:100D1E00F51208D69002F5E0F8A3E0F9A3E0FAA3E5
:100D2E00E0FB9002D3E0FEA3E0FFE4FCFDEB2FFF1F
:100D3E00EA3EFEED39FDEC38FC9002F51208D69035
:100D4E0002F5E0FCA3E0FDA3E0FEA3E0FF781012A5
:100D5E0008B09002CFEEF0A3EFF09002F5E0FCA306
:100D6E00A3E0FEA3E0FF9002D0E02FF09002CFE0D0
:100D7E003EF0E0FEA3E0FFC374FF9FF074FF9E9071
:100D8E0002CFF07E007F647D007B017A02796812CB
:100D9E00091378687C027D017B017A0279CD7E0091
:050DAE007F280207E3AD
:0B0985009002E4EBF0A3EAF0A3E9F01D
:1009900090030F1208E200000000E49002E7F090DC
:1009A00002E4E0FBA3E0FAA3E0F9900001120822C0
:1009B0009002E8F0900004120822FF7E00900005EB
:1009C0001208222408FDEFA805088005C333CE33A2
:1009D000CED8F9FF9002EBEEF0A3EFF090000612F4
:1009E0000822FF7E009000071208222408FDEFA8CD
:1009F00005088005C333CE33CED8F9FF9002EDEE63
:100A0000F0A3EFF090030FE0F8A3E0F9A3E0FAA35E
:100A1000E0FB9002E7E07F00FE3395E0FDFCEF2B6A
:100A2000FFEA3EFEE93DFDE83CFC90030F1208D6CC
:100A300090030FE0F8A3E0F9A3E0FAA3E0FB900233
:100A4000E8E0FFE4FCFDFEEB2FFFEE3AFEED39FDA2
:100A5000EC38FC90030F1208D690030FE0F8A3E0E7
:100A6000F9A3E0FAA3E0FB9002EBE0FEA3E0FFE4D1
:100A7000FCFDEB2FFFEA3EFEED39FDEC38FC900368
:100A80000F1208D690030FE0F8A3E0F9A3E0FAA351
:100A9000E0FB9002EDE0FEA3E0FFE4FCFDEB2FFFA6
:100AA000EA3EFEED39FDEC38FC90030F1208D6E467
:100AB000900313F0900313E0FFC394204003020B54
:100AC00052E0FE2408FDE433FC9002E4E0FBA3E0E6
:100AD000FAA3E0F98D828C83120822FD74EF2EF5C3
:100AE00082E43402F583EDF0EF90030F20E02CE078
:100AF000F8A3E0F9A3E0FAA3E0FBA3E024EFF5827A
:100B0000E43402F583E07F00FE3395E0FDFCEF2B3B
:100B1000FFEA3EFEE93DFDE83C8027E0F8A3E0F96E
:100B2000A3E0FAA3E0FBA3E024EFF582E43402F5AE
:100B300083E0FFE4FCFDFEEB2FFFEE3AFEED39FD16
:100B4000EC38FC90030F1208D6900313E004F00277
:100B50000AB490030FE0FCA3E0FDA3E0FEA3E0FFD6
:100B600078101208B09002E9EEF0A3EFF090030FB6
:100B7000E0FCA3A3E0FEA3E0FF9002EAE02FF090E8
:100B800002E9E03EF0E0FEA3E0FFC374FF9FF074D3
:100B9000FF9E9002E9F07E007F647D007B017A0277
:100BA000796812091378687C027D017B017A0279E9
:080BB000E77E007F280207E345
:101064009002DB1208D69002DFEBF0A3EAF0A3E9CA
:01107400F08B
:10107500E4A3F0A3F0900251E0900267F0900251D2
:101085007403F0E47F28FEFDFC9002DBE0F8A3E0AA
:10109500F9A3E0FAA3E0FBC312089F600302116EF7
:1010A5009002DFE0FBA3E0FAA3E0F9120809600370
:1010B50002114A900001120822600302114A9000B1
:1010C50004120822FF9002E2E4F0A3EFF0E0F8E456
:1010D500F0E89002E2F0900005120822FF9002E38A
:1010E500E02FF09002E2E03400F0E064027002A329
:1010F500E070529002DFE0FBA3E0FAA3E0F9900074
:1011050006120822FF9002E2E4F0A3EFF0E0F8E413
:10111500F0E89002E2F0900007120822FF900250DA
:10112500E0FDC3EF9DFFE49400FE9002E3E02FF0A5
:101135009002E2E03EF0E07004A3E0646470069083
:1011450002517404F09002DFE0FBA3E0FAA3E0F99A
:1011550012080964087032900001120822702A12E0
:1011650009859002517406F0229002DFE0FBA3E0AE
:10117500FAA3E0F9120809B4030F9000011208223E
:09118500B401069002517405F05A
:01118E00223E
:10000300900251E0FFD3940A400302035DEFB40B67
:1000130000400302035D900020F82828730200418A
:100023000200A10200DD02019B0201A402026002A0
:10003300032902033F02035D02035D0203529002A0
:10004300517401F0FB7A0279689002D1E4F0A37451
:1000530028F0E4FF1216177BFF7A0F79289001F43A
:10006300E0FF9002DCE4F0A3EFF09001F5E0FF90F5
:1000730002DEE4F0A3EFF09001F6E0FF9002E0E48B
:10008300F0A3EFF09001F7E0FF9002E2E4F0A3EFBA
:10009300F0A3E4F0A37420F012041902012AE47F10
:1000A300FAFEFDFC90024BE0F8A3E0F9A3E0FAA30B
:1000B300E0FBD312089F500302035D7BFF7A0F79A5
:1000C300571204197B017A0279689002D1E4F0A3F4
:1000D3007428F0E4FF121617804DE47FD07E07FDED
:1000E300FC90024BE0F8A3E0F9A3E0FAA3E0FBD312
:1000F30012089F500302035D7BFF7A0F7968120495
:1001030019900266E004F090024FE0C39404502477
:10011300120BB87B017A0279689002D1E4F0A374E0
:1001230028F0E4FF12161790024B1208E2000000B9
:100133000002035D7BFF7A0F797B9001F4E0FF906F
:1001430002DCE4F0A3EFF09001F5E0FF9002DEE4BF
:10015300F0A3EFF09001F6E0FF9002E0E4F0A3EFEC
:10016300F09001F7E0FF9002E2E4F0A3EFF09002D9
:1001730066E0FF7E00C374049F9002E5F0E49E9066
:1001830002E4F09002E6EEF0A3EFF075F019A4FF9D
:100193009002E8E5F00202597BFF7A0F79DB020354
:1001A3001E7BFF7A0F79F39001F4E0FF9002DCE409
:1001B300F0A3EFF09001F5E0FF9002DEE4F0A3EF8F
:1001C300F09001F6E0FF9002E0E4F0A3EFF090017D
:1001D300F7E0FF9002E2E4F0A3EFF0A3E4F0A374EE
:1001E30020F012041990024AE004F090024FE0C399
:1001F300940450030202AC7BFF7A0F797B9001F4E5
:10020300E0FF9002DCE4F0A3EFF09001F5E0FF9053
:1002130002DEE4F0A3EFF09001F6E0FF9002E0E4E9
:10022300F0A3EFF09001F7E0FF9002E2E4F0A3EF18
:10023300F090024AE0FF7E009002E4EEF0A3EFF0BC
:10024300C374049FFFE49EFEA3F0A3EFF07C007D44
:1002530019120861A3EEF0A3EFF002031E7BFF7AED
:1002630010791E9001F4E0FF9002DCE4F0A3EFF0BC
:100273009001F5E0FF9002DEE4F0A3EFF09001F6C9
:10028300E0FF9002E0E4F0A3EFF09001F7E0FF90CD
:1002930002E2E4F0A3EFF01204199002CCE004F0C0
:1002A30090024FE0C39404500F120BB890024B120C
:1002B30008E200000000806E7BFF7A0F797B9001DB
:1002C300F4E0FF9002DCE4F0A3EFF09001F5E0FF2F
:1002D3009002DEE4F0A3EFF09001F6E0FF9002E07D
:1002E300E4F0A3EFF09001F7E0FF9002E2E4F0A363
:1002F300EFF09002CCE0FF7E009002E4EEF0A3EF7B
:10030300F0C374049FFFE49EFEA3F0A3EFF07C0010
:100313007D19120861A3EEF0A3EFF0120419900205
:1003230051740AF080347B017A0279689002D1E437
:10033300F0A37428F0E4FF121617801E7BFF7A10D7
:100343007955120419900267E0900251F0800BE492
:10035300FF1219E590025174FFF0308D4DC28D7577
:100363008A41758CE390024BE0FCA3E0FDA3E0FE21
:10037300A3E02401FFE43EFEE43DFDE43CFC9002E7
:100383004B1208D67FA07E867D017C0090024BE055
:10039300F8A3E0F9A3E0FAA3E0FBD312089F400A15
:0B03A30090024B1208E200002710221D
:030000000212C326
:0C12C300787FE4F6D8FD75812102130A43
:10071300E709F608DFFA8046E709F208DFFA803EC8
:1007230088828C83E709F0A3DFFA8032E309F608B5
:10073300DFFA8078E309F208DFFA807088828C831D
:10074300E309F0A3DFFA806489828A83E0A3F608D1
:10075300DFFA805889828A83E0A3F208DFFA804CAB
:1007630080D280FA80C680D4806980F28033801082
:1007730080A680EA809A80A880DA80E280CA8033EB
:1007830089828A83ECFAE493A3C8C582C8CCC58363
:10079300CCF0A3C8C582C8CCC583CCDFE9DEE78033
:1007A3000D89828A83E493A3F608DFF9ECFAA9F0B2
:1007B300EDFB2289828A83ECFAE0A3C8C582C8CC08
:1007C300C583CCF0A3C8C582C8CCC583CCDFEADE21
:1007D300E880DB89828A83E493A3F208DFF980CC83
:1007E30088F0EF60010E4E60C388F0ED2402B4047C
:1007F3000050B9F582EB2402B4040050AF23234523
:06080300822390076373DD
:10080900BB010689828A83E0225002E722BBFE02ED
:09081900E32289828A83E4932220
:10082200BB010CE58229F582E5833AF583E022508B
:1008320006E92582F8E622BBFE06E92582F8E222D5
:0D084200E58229F582E5833AF583E49322EF
:10084F00BB010689828A83F0225002F722BBFE0188
:02085F00F32282
:10086100EF8DF0A4A8F0CF8CF0A428CE8DF0A42EAB
:02087100FE2265
:10087300A3F8E0C5F025F0F0E58215827002158338
:06088300E0C838F0E82295
:10088900EB9FF5F0EA9E42F0E99D42F0EC6480C8E6
:0608990064809845F02286
:10089F00EB9FF5F0EA9E42F0E99D42F0E89C45F0AF
:0108AF002226
:1008B000E8600FECC313FCED13FDEE13FEEF13FF26
:0308C000D8F1224A
:1008C300E8600FEFC333FFEE33FEED33FDEC33FC93
:0308D300D8F12237
:0C08D600ECF0A3EDF0A3EEF0A3EFF02295
:1008E200A8828583F0D083D0821208F91208F91207
:1008F20008F91208F9E473E493A3C583C5F0C5832C
:10090200C8C582C8F0A3C583C5F0C583C8C582C85F
:0109120022C2
:1003AE00E50824DCF582E43402F583E005082290AA
:1003BE0002D93007039002DCE475F00112093F0206
:1003CE0008092000E97F2ED2008018EF540F2490E8
:1003DE00D43440D4FF30040BEF24BFB41A005003C2
:1003EE002461FFE50960021509050CE50C70020594
:1003FE000B30070E9002D9E475F00112093FEF029F
:10040E00084F0219987403D2078003E4C207F50857
:10041E009002D9120956E4F509F50BF50CE50960C1
:10042E00077F201203F180F5750AFFC201C200C2D8
:10043E0002C203C205C206C2081203BDFF700D3010
:10044E0007057F00120402AF0CAE0B22B4255FC26B
:10045E00D5C2041203BDFF24D0B40A00501A75F0A1
:10046E000A780930D50508B6FF0106C6A426F6207F
:10047E00D5047002D20380D924CFB41A00EF5004F1
:10048E00C2E5D204020603D20180C6D20080C0D2D9
:10049E000280BCD2D580BAD20580B47F201203F17F
:1004AE002002077401B5090040F11203AEFF1203DA
:1004BE00F102042BD208D20680951203AEFB120372
:1004CE00AEFA1203AEF94A4B700679D47A067BFF68
:1004DE0020022EE509602A7E008E827583001208A6
:1004EE002260060EEE650A70F0C2D5EBC0E0EAC0DF
:1004FE00E0E9C0E0EE12064AD0E0F9D0E0FAD0E032
:10050E00FB120809FF60AAEBC0E0EAC0E0E9C0E018
:10051E001203F1D0E02401F9D0E03400FAD0E0FB70
:10052E00E50A0460DCD50AD980877BFF7A06794616
:10053E00D202809C791080027908C206C208800817
:10054E00D2D5790A8004790AC2D5E50A047002F57B
:10055E000AE4FAFDFEFF1203AEFC7B082001131223
:10056E0003AEFD7B1030000A1203AEFE1203AEFF87
:10057E007B20EC3382D592D55013C3E43000069F16
:10058E00FFE49EFEE42001039DFDE49CFCE4CBF819
:10059E00C201EC700CCFCECDCCE824F8F870F3800D
:1005AE0017C3EF33FFEE33FEED33FDEC33FCEB33CD
:1005BE00FB994002FB0FD8E9EB300105F8D0E0C4FF
:1005CE0048B201C0E00AEC4D4E4F78207B0070C25D
:1005DE00EAB50A0040BCC0E012064CD0F0D0E020D4
:1005EE000104C4C0E0C4B201C0F01203DAD0F0D5E9
:1005FE00F0EB02042B12095F04C85305425804990C
:10060E004C04954205464F054E44054E4904AE43F3
:08061E00055455053846053866
:100626004505384706F450049D2D04A12E04C42B1D
:1006360004A52304C22006DD2A045D48000004BC8C
:100646003F3F3F00790AA2D5200314300509B910AF
:10065600020404B9080104A2D520060250010420B0
:1006660002689202B509005034C0E07F20300319B9
:100676007F30A20272067205500F1206A3C202C292
:1006860006C205C2087F30800F300503E9C0E012BC
:1006960003F1300503D0E0F9D0E0B509CC300517F9
:1006A6007F30B9100C1203F17F583004077F788031
:1006B60003B908031203F13002057F2D0203F17F0F
:1006C600202008F87F2B2006F322920280CF286E86
:1006D600756C6C2900D2011203AE3001F8C20178A4
:1006E6000930D50108F602045D2D5043495812031E
:1006F600AE2403B405004001E49006EF931203E232
:0D070600743A1203E2D203750904020542A1
:10091300EF4E6012EF60010EEDBB010B89828A83FB
:10092300F0A3DFFCDEFA2289F05007F709DFFCA908
:0C093300F022BBFEFCF309DFFCA9F0225F
:1012CF00021C56E493A3F8E493A34003F68001F2C3
:1012DF0008DFF48029E493A3F85407240CC8C33320
:1012EF00C4540F4420C8834004F456800146F6DFEF
:1012FF00E4800B01020408102040809018CAE47E9D
:10130F00019360BCA3FF543F30E509541FFEE493E3
:10131F00A360010ECF54C025E060A840B8E493A3AA
:10132F00FAE493A3F8E493A3C8C582C8CAC583CAD5
:10133F00F0A3C8C582C8CAC583CADFE9DEE780BE8D
:0118F30000F4
:10093F00F8E0FBA3A3E0F925F0F0E5821582700241
:07094F001583E0FA38F022E5
:09095600EBF0A3EAF0A3E9F022A2
:10095F00D083D082F8E4937012740193700DA3A327
:10096F0093F8740193F5828883E47374029368603B
:06097F00EFA3A3A380DF3B
:10199800EFB40A07740D1219A3740A309811A899A4
:1019A800B8130CC2983098FDA899C298B811F630AF
:0719B80099FDC299F5992287
:00000001FF
