:10083800440201C0A8010A440241C0A801014402BF
:1008480030FFFFFF00440228C0A8016442023D03B4
:10085800E8420247138844022CC0A8016442023FC0
:1008680007D04202491770440234C0A8016442020A
:10087800450BB842024B1B58440238C0A8016441DA
:07088800023CE24100000008
:07100E007FFA1210157FFAB2
:07101500AE071FEE70FA2286
:100F6F00AD07AF051DEF600812100E12100E80F2C4
:010F7F00224F
:09106D00D29475D55C43AA082257
:0D102A008F86E5AA30E7FB53AA7FAF862230
:030FC300E4FCFB50
:0C0FC600D294C29412102A7F020210156F
:100C420090024DE0FBA3E475F001120124A9F0FA31
:100C52001200F9FF120C6D90024DE0FBA3E475F057
:0B0C620001120124A9F0FA1200F9FFB2
:030C6D0002102A48
:08101C00120FC6AF05120C6DA6
:051024007FFF12102AFD
:0110290022A4
:081076007F05120FC6D294227F
:08107E007F03120FC6D2942279
:0A1037007F01120FC6121024D2949C
:01104100228C
:02106300AD07D7
:071065007F0612101CD2945B
:01106C002261
:0F0FD200AD077F20120FC6AF05120C6DD294220F
:0A1042007F26120FC6121024D2946C
:01104C002281
:0A104D007F29120FC6121024D2945E
:011057002276
:100C7000E490024DF0FD7F27120FC6D2947F0A1236
:100C80000F6F120FB8AD07EDB4101090024DE0FFDA
:0D0C900004F0EFD394C840E57FFA22AF05D1
:010C9D002234
:100B3C009002A51201767F02120FC69002A5A3A304
:100B4C00A3E0FF120C6D9002A5A3A3E0FEEEFF1232
:100B5C000C6D9002A5E0FCA3E0FDA3E0FEA3E0FF7A
:0B0B6C007810120150120C6DD2942280
:050FB3007F05120F6F25
:0A0FB8007F2C120FC6121024D294F1
:010FC200220C
:0B0DD3009002ADEBF0A3EAF0A3E9F002
:100DDE007F22120FC6E4FE9002AD120C5C0EEEB432
:040DEE0004F5D294A2
:010DF20022DE
:0B0DF3009002B0EBF0A3EAF0A3E9F0DF
:100DFE007F23120FC6E4FE9002B0120C5C0EEEB40E
:040E0E0004F5D29481
:010E120022BD
:0B0E13009002B3EBF0A3EAF0A3E9F0BB
:100E1E007F24120FC6E4FE9002B3120C5C0EEEB4E9
:040E2E0004F5D29461
:010E3200229D
:0B0D8E009002B6EBF0A3EAF0A3E9F03E
:100D99007F21120FC6E4FE9002B6120C5C0EEEB46F
:090DA90006F5D2947F64020F6F7D
:0B0BAF009002B9EBF0A3EAF0A3E9F01C
:100BBA007F40120FC6E4FE1210249002B9E0FBA394
:100BCA00E475F001120124A9F0FAEF1201120EEEF7
:050BDA00B406E4D29412
:010BDF0022F3
:10071900AD077F25120FC6AF05120C6D900291A38C
:10072900A3A3E0FF120C6D900291A3A3E0FEEEFFDC
:10073900120C6D900291E0FCA3E0FDA3E0FEA3E0A2
:10074900FF7810120150120C6D900291E0FCA3E0A9
:10075900FDA3E0FEA3E0FF7818120150120C6DA36F
:10076900A3A3A3E0FF120C6D900295A3A3E0FEEEF4
:10077900FF120C6D900295E0FCA3E0FDA3E0FEA33F
:10078900E0FF7810120150120C6D900295E0FCA365
:10079900E0FDA3E0FEA3E0FF7818120150120C6DF2
:0307A900D29422C5
:0B0BE000900263EBF0A3EAF0A3E9F041
:100BEB007F28120FC6E4FE121024900263E0FBA3D1
:100BFB00E475F001120124A9F0FAEF1201120EEEC6
:050C0B00B408E4D294DE
:010C100022C1
:0D0B7700900269EBF0A3EAF0A3E9F0AD07EE
:100B84007F2D120FC6AF05120C6DE4FE12102490D7
:100B94000269E0FBA3E475F001120124A9F0FAEF65
:0A0BA4001201120EEEB406E4D29422
:010BAE002224
:100E330090024DEBF0A3EAF0A3E9F0AD077F311286
:100E43000FC6AF05120C6D120C42120C42D2942243
:100F0E00AC077F34120FC6AF04120C6DAF05120C76
:040F1E006DD29422DA
:100E6E00AB077F32120FC6AF03120C6DAF05120C1B
:090E7E006DECFF120C6DD2942200
:100E8700AB077F33120FC6AF03120C6DAF05120C01
:090E97006DECFF120C6DD29422E7
:100F2200AC077F3E120FC6AF04120C6DAF05120C58
:040F32006DD29422C6
:0F0FE100AD077F3F120FC6AF05120C6DD29422E1
:0D0A710090026AEBF0A3EAF0A3E9F0AD07F4
:100A7E007F39120FC6AF05120C6DA3A3E0FF120C47
:100A8E006D90026DE0FF120C6DE4FDFCD390026ED2
:100A9E00E09D90026DE09C400D90026A120C5C0D80
:080AAE00BD00010C80E6D294AA
:010AB600221D
:020E5300AD07E9
:100E55007F3B12101CAD077C00121024EFFEE42D21
:080E6500FDEC3ED294FEAF0546
:010E6D002262
:0F0FF000AD077F2E120FC6AF05120C6DD29422E3
:0B089000900269EFF0A3ECF0A3EDF084
:10089B004C60487F3C120FC6900269E0FF120C6D52
:1008AB00A3A3E0FF120C6D90026AE0FF120C6D7FA8
:1008BB0001121015E4FDFCD390026BE09D90026ACF
:1008CB00E09C4015121024EF120112740129F9E477
:0B08DB003AFA0DBD00010C80DED29443
:0108E60022EF
:0F0FFF00AD077F2A120FC6AF05120C6DD29422D8
:100EB700AD07AC067F2A120FC6AF05120C6DECFF0B
:060EC700120C6DD2942212
:100AFC009002BCEBF0A3EAF0A3E9F0AD077F2F1254
:100B0C00101C9002BCE0FBA3E475F001120124A9B7
:100B1C00F0FAEF1201121210249002BCE0FBA3E4D5
:100B2C0075F001120124A9F0FAEF120112D29422ED
:020D4200AD07FB
:100D44007F35120FC3AF05120C6DD294120FB3ABE3
:100D540007EBB4100CAF040CEFD394C840EE7FFA49
:030D640022AF03B8
:010D67002269
:020D6800AD07D5
:100D6A007F3D120FC3AF05120C6DD294120FB3ABB5
:100D7A0007EBB4100CAF040CEFD394C840EE7FFA23
:030D8A0022AF0392
:010D8D002243
:020C9E00AD07A0
:100CA000E4FCFB7F37120FC6AF05120C6DD2941215
:100CB0000FB3AB07EBB4100CAF040CEFD394C840E8
:060CC000EE7FFA22AF03F3
:010CC600220B
:020CC700AD0777
:100CC900E4FCFB7F36120FC6AF05120C6DD29412ED
:100CD9000FB3AB07EBB4100CAF040CEFD394C840BF
:060CE900EE7FFA22AF03CA
:010CEF0022E2
:020CF000AD074E
:100CF200E4FCFB7F38120FC6AF05120C6DD29412C2
:100D02000FB3AB07EBB4100CAF040CEFD394C84095
:060D1200EE7FFA22AF03A0
:010D180022B8
:020EA000AD079C
:100EA2007F30120FC6AF05120C6D7F0212101512A1
:040EB2001024D294A2
:010EB6002219
:0B01DF0090026FEBF0A3EAF0A3E9F040
:1001EA0090027A12018204C11DB790027E12018226
:1001FA00FFFFFFFF90027212018200000000E47FFD
:10020A0006FEFDFC900272E0F8A3E0F9A3E0FAA36F
:10021A00E0FBC312013A400302033290026FE0FB93
:10022A00A3E475F001120124A9F0FA1200F9900270
:10023A0082F090027612018200000000E47F08FE3C
:10024A00FDFC900276E0F8A3E0F9A3E0FAA3E0FB54
:10025A00C312013A400302030A90027EE0FCA3E0C3
:10026A00FDA3E0FEA3E0FF781F120150A905AA062C
:10027A00AB07A3E0FFEB6FFFEF5401FFEF601890AD
:10028A00027AE0FCA3E0FDA3E0FEA3E0FFC004C005
:10029A0005C006C007800DE4FBFAF9F8C000C001EA
:1002AA00C002C00390027EE0FCA3E0FDA3E0FEA32F
:1002BA00E0FF7801120163D003D002D001D000EF31
:1002CA006BFFEE6AFEED69FDEC68FC90027E12019E
:1002DA0076900282E0C313F0900276E0FCA3E0FD80
:1002EA00A3E0FEA3E0FFE4FAF9F8EF2401FFEA3EF7
:1002FA00FEE93DFDE83CFC900276120176020246D8
:10030A00900272E0FCA3E0FDA3E0FEA3E0FFE4FAA2
:10031A00F9F8EF2401FFEA3EFEE93DFDE83CFC90D6
:10032A00027212017602020890027EE0FCA3E0FD4E
:10033A00A3E0FEA3E0FF781A12015090027E120198
:09034A007690027EA3A3A3E0FF5C
:010353002287
:020D1900AD0724
:100D1B00E4FC7F41120FC6AF05120C6DD2947F1409
:100D2B00120F6F120FB8EFB4100CAE040CEED3947D
:060D3B00C840EB7FFA2224
:010D4100228F
:0A1058007F42120FC6121024D2943A
:01106200226B
:0B0C1100900263EBF0A3EAF0A3E9F00F
:100C1C007F43120FC6E4FE121024900263E0FBA384
:100C2C00E475F001120124A9F0FAEF1201120EEE94
:050C3C00B414E4D294A1
:010C41002290
:100F8000AC077FED120FC6AF04120C6DAF05020C5B
:010F90006DF3
:020EF900AD0743
:100EFB007FEC120FC6AF05120C6D7F01120F6F1234
:020F0B001024B0
:010F0D0022C1
:100F36007FE9120FC67F14120F6F120FB8EF6410FD
:020F460060F356
:010F48002286
:0F093B0090029BEBF0A3EAF0A3E9F0AD07AC0646
:10094A007FEA120FC6AF05120C6DECFF120C6DA3F5
:10095A00E0801D90029EE0FF14F0EF601990029B68
:10096A00E0FBA3E475F001120124A9F0FA1200F9E0
:10097A00FF120C6D80DD7F14120F6F120FB8EF6437
:03098A001060F307
:01098D002247
:1009DC009002A1EBF0A3EAF0A3E9F0AD07AC067F1F
:1009EC00EB120FC6AF05120C6DECFF120C6DA3E0F1
:1009FC00FF120C6D7F01120F6F9002A4E0FF14F038
:100A0C00EF60191210249002A1E0FBA3E475F00131
:0D0A1C00120124A9F0FAEF12011280DD2270
:100F4900AD07AC067F50120FC6AF05120C6DECFF52
:030F5900020C6D1A
:100ECD00AC077F52120FC6AF04120C6DAF05120C9A
:060EDD006DAF03020C6D75
:100EE300AC077F53120FC6AF04120C6DAF05120C83
:060EF3006DAF03020C6D5F
:1008E700900283EBF0A3EAF0A3E9F0A3120176905C
:1008F700028FE0FF90028AE0FBA3E0FAA3E0F9127F
:100907000E3390028FE0FF90028DE0FCA3E0FD1212
:100917000E6E900283E0FBA3E0FAA3E0F9A3A3A382
:10092700E0FFA3E090026DCFF0A3EFF090028FE01D
:04093700FF020A7140
:10098E009002A91201767F55120FC69002A9A3A359
:10099E00A3E0FF120C6D9002A9A3A3E0FEEEFF12DE
:1009AE000C6D9002A9E0FCA3E0FDA3E0FEA3E0FF26
:1009BE007810120150120C6D9002A9E0FCA3E0FD1C
:0E09CE00A3E0FEA3E0FF7818120150020C6DAA
:100DB2007F19120FC67F02121015121024AD077C84
:100DC20000121024EFFEE42DFDEC3ED294FEAF059E
:010DD20022FE
:030F5C00120D4231
:100F5F00EF600C7FC8120F6F7FC8120F6F80F422E3
:100A29007E007F237D007B017A0279051201B3786C
:100A3900057C027D017B017A0279017E007F041227
:100A490000D378097C027D017B017A0279417E001D
:100A59007F041200D3780D7C027D017B017A027933
:080A6900307E007F040200D37F
:1004B7007E007F1C7D007B017A0179911201B37860
:1004C700917C017D017B017A0279287E007F0412ED
:1004D70000D390023DE0FFA3E09001A2CFF0A3EF8D
:1004E700F0900247E0FFA3E09001A4CFF0A3EFF064
:1004F70090019B7402F07E007F1C7D007B017A01D6
:1005070079AD1201B378AD7C017D017B017A027967
:100517002C7E007F041200D390023FE0FFA3E090FF
:1005270001BECFF0A3EFF0900249E0FFA3E09001F6
:10053700C0CFF0A3EFF09001B77403F09001B97446
:1005470001F07E007F1C7D00FB7A0179C91201B39F
:1005570078C97C017D017B017A0279347E007F04B2
:100567001200D3900245E0FFA3E09001DACFF0A399
:10057700EFF090024BE0FFA3E09001DCCFF0A3EF98
:10058700F09001D37403F0E49001D5F0FE7F1CFDD9
:100597007B017A0179E51201B378E57C017D017B66
:1005A700017A0279387E007F041200D390023FE07F
:1005B700FFA3E09001F6CFF0A3EFF0900249E0FF30
:1005C700A3E09001F8CFF0A3EFF0E49001EFF02261
:1005D7007B017A017991E4FF120E337D02E4FF1269
:1005E7000F0E9001A2E0FCA3E0FDE4FF120E6EA344
:1005F700E0FCA3E0FDE4FF120E87E4FF120F5C7D31
:10060700037F01120F0E9001C0E0FCA3E0FD7F0104
:10061700120E877F01120F5C7F01120CC7120F5F4A
:100627007B017A0179C97F02120E337D037F0212A3
:100637000F0E9001DAE0FCA3E0FD7F02120E6EA31D
:10064700E0FCA3E0FD7F02120E877F02120D42122B
:100657000F5F7F02120C9E120F5F7B017A0179E513
:100667007F03120E33E4FD7F03120F0E90023CE06E
:0E067700FD7F03120F227F03120D42020F5F60
:05035400900263EFF0D0
:10035900120EA0A3EFF0900264E020E2030204452C
:10036900900263E0FF120E53900265EEF0A3EFF0E6
:100379004E70030204B6D3900266E094649002655D
:10038900E094004006E4F0A37464F0900263E07521
:10039900F064A42401F9740035F0FA7B01E0FF90C0
:1003A9000265E0FCA3E0FD120890E4900267F0A367
:1003B900F0900265E0FEA3E0FFC3900268E09F9021
:1003C9000267E09E5050E0FEA3E0FF900263E0FD6B
:1003D90075F064A42401F582E5F03400F583E58223
:1003E9002FF582E5833EF583E0F4FC75F064EDA416
:1003F9002401F582E5F03400F583E5822FF582E5E5
:10040900833EF583ECF0900268E004F070A390025B
:1004190067E004F0809B900263E075F064A4240116
:10042900F9740035F0FA7B01E0FF900265E0FDA365
:10043900E090026DCDF0A3EDF0120A71900264E034
:1004490030E333900263E0FF75F01CA4249DF5822C
:10045900E43401F583E0B4011D7B007A00790812C8
:100469000B77780DE6FE18E67C002400FFEC3E9041
:100479000267F0A3EFF0900264E030E63090026387
:10048900E075F01CA4249DF582E43401F583E07045
:100499001C7FC8120F6F900263E0FF120D42AA077A
:0D04A900120F5FE0FF120C9EAF02120F5FFA
:0104B6002223
:10068500120DB290024DEEF0A3EFF030E0097B01C0
:100695007A02794F120BE090024EE030E31512100A
:1006A500587E00EF700D90000004F0FB7A02794F40
:1006B500120C1190024EE030E405E4FF1203549051
:1006C500024EE030E5057F0112035490024EE03002
:1006D500E6057F0212035490024EE030E7057F03E2
:1006E50012035490024DE030E0057F04120354904C
:1006F500024DE030E1057F0512035490024DE030D4
:10070500E2057F0612035490024DE030E3057F07B2
:0307150012035478
:0107180022BE
:100F91007F65121063EF649A60037FFA22120C706E
:010FA100222D
:100FA200759850758780758921758DF3D28ED29987
:010FB200221C
:100AB7007F64120F6F120FA212106D120A29120F04
:100AC70091AB07120F5F121042BF01077FC8120FC9
:100AD7006F80F37F01120D19AB077F64120F6F2030
:100AE700B303120685900000E060F4E4F01204B747
:050AF7001205D780EAA2
:030000000207AC48
:0C07AC00787FE4F6D8FD7581110207F398
:10000300E709F608DFFA8046E709F208DFFA803EDF
:1000130088828C83E709F0A3DFFA8032E309F608CC
:10002300DFFA8078E309F208DFFA807088828C8334
:10003300E309F0A3DFFA806489828A83E0A3F608E8
:10004300DFFA805889828A83E0A3F208DFFA804CC2
:1000530080D280FA80C680D4806980F28033801099
:1000630080A680EA809A80A880DA80E280CA803302
:1000730089828A83ECFAE493A3C8C582C8CCC5837A
:10008300CCF0A3C8C582C8CCC583CCDFE9DEE7804A
:100093000D89828A83E493A3F608DFF9ECFAA9F0C9
:1000A300EDFB2289828A83ECFAE0A3C8C582C8CC1F
:1000B300C583CCF0A3C8C582C8CCC583CCDFEADE38
:1000C300E880DB89828A83E493A3F208DFF980CC9A
:1000D30088F0EF60010E4E60C388F0ED2402B40493
:1000E3000050B9F582EB2402B4040050AF2323453A
:0600F3008223900053730C
:1000F900BB010689828A83E0225002E722BBFE0205
:09010900E32289828A83E4932237
:10011200BB010689828A83F0225002F722BBFE01CC
:02012200F322C6
:10012400A3F8E0C5F025F0F0E5821582700215838E
:06013400E0C838F0E822EB
:10013A00EB9FF5F0EA9E42F0E99D42F0EC6480C83C
:06014A0064809845F022DC
:10015000E8600FECC313FCED13FDEE13FEEF13FF8D
:03016000D8F122B1
:10016300E8600FEFC333FFEE33FEED33FDEC33FCFA
:03017300D8F1229E
:0C017600ECF0A3EDF0A3EEF0A3EFF022FC
:10018200A8828583F0D083D082120199120199123C
:100192000199120199E473E493A3C583C5F0C58361
:1001A200C8C582C8F0A3C583C5F0C583C8C582C8C7
:0101B200222A
:1001B300EF4E6012EF60010EEDBB010B89828A8363
:1001C300F0A3DFFCDEFA2289F05007F709DFFCA970
:0C01D300F022BBFEFCF309DFFCA9F022C7
:1007B800020AB7E493A3F8E493A34003F68001F296
:1007C80008DFF48029E493A3F85407240CC8C33342
:1007D800C4540F4420C8834004F456800146F6DF11
:1007E800E4800B0102040810204080900838E47E61
:1007F800019360BCA3FF543F30E509541FFEE49306
:10080800A360010ECF54C025E060A840B8E493A3CC
:10081800FAE493A3F8E493A3C8C582C8CAC583CAF7
:10082800F0A3C8C582C8CAC583CADFE9DEE780BEAF
:01088F000068
:00000001FF
