:101624004572726F723A20253032580A00736F6324
:101634006B696E646578203D25640A0073656E6489
:10164400206461746120737563636573730A005465
:10165400435020436F6E6E6563740A006C656E3A86
:1016640025640A004D794275666665723A0A2573E7
:101674000A0054435020446973636F6E6E6563744B
:101684000A005443502054696D6F75740A00496E02
:10169400697420737461747573203A2047494E54F9
:1016A4005F535441545F5048595F4348414E474546
:1016B4000A0045746865726E657420446973636FCB
:1016C4006E6E6563740A0053656E643A2573005345
:1016D4006F757249503A2025730A004348333935EF
:1016E4004654502044656D6F0A0043483339352011
:1016F400436F6E6E6563742045746865726E6574BD
:021704000A00D9
:072FB3007FFA122FBA7FFA2A
:072FBA00AE071FEE70FA22C2
:102F0600AD07AF051DEF6008122FB3122FB380F285
:012F16002298
:09302E00D29475D55C43AA082276
:0D2FEB008F86E5AA30E7FB53AA7FAF862250
:032F5900E4FCFB9A
:0C2F5C00D294C294122FEB7F02022FBA15
:102AFF0090072FE0FBA3E475F00112079FA9F0FAEE
:102B0F00120735FF122B2A90072FE0FBA3E475F075
:0B2B1F000112079FA9F0FA120735FF12
:032B2A00022FEB8C
:082FC100122F5CAF05122B2A50
:052FC9007FFF122FEB59
:012FCE0022E0
:083037007F05122F5CD29422E8
:08303F007F03122F5CD29422E2
:0A2FF8007F01122F5C122FC9D29442
:0130020022AB
:02302400AD07F6
:073026007F06122FC1D294B6
:01302D002280
:0F2F6800AD077F20122F5CAF05122B2AD29422C7
:0A3003007F26122F5C122FC9D29411
:01300D0022A0
:0A300E007F29122F5C122FC9D29403
:013018002295
:102B2D00E490072DF0FD7F27122F5CD2947F0A12BF
:102B3D002F06122F3EAD07EDB4101090072DE0FFBC
:0D2B4D0004F0EFD394C840E57FFA22AF05F5
:012B5A002258
:10298F009007B31208217F02122F5C9007B3A3A305
:10299F00A3E0FF122B2A9007B3A3A3E0FEEEFF12D2
:1029AF002B2A9007B3E0FCA3E0FDA3E0FEA3E0FF1A
:0B29BF0078101207FB122B2AD2942282
:052F39007F05122F06C8
:0A2F3E007F2C122F5C122FC9D294D1
:012F48002266
:0B2D7A0090072DEBF0A3EAF0A3E9F0B6
:102D85007F22122F5CE4FE90072D122B190EEEB454
:042D950004F5D294DB
:012D99002217
:0B2D9A0090072DEBF0A3EAF0A3E9F096
:102DA5007F23122F5CE4FE90072D122B190EEEB433
:042DB50004F5D294BB
:012DB90022F7
:0B2DBA0090072DEBF0A3EAF0A3E9F076
:102DC5007F24122F5CE4FE90072D122B190EEEB412
:042DD50004F5D2949B
:012DD90022D7
:0B2CF0009007BFEBF0A3EAF0A3E9F0AF
:102CFB007F21122F5CE4FE9007BF122B190EEEB44E
:092D0B0006F5D2947F64022F0644
:0B2A6C009007C2EBF0A3EAF0A3E9F032
:102A77007F40122F5CE4FE122FC99007C2E0FBA330
:102A8700E475F00112079FA9F0FAEF12077B0EEE2B
:052A9700B406E4D29436
:012A9C002217
:101C8E00AD077F25122F5CAF05122B2A90079FA35D
:101C9E00A3A3E0FF122B2A90079FA3A3E0FEEEFF63
:101CAE00122B2A90079FE0FCA3E0FDA3E0FEA3E029
:101CBE00FF78101207FB122B2A90079FE0FCA3E07F
:101CCE00FDA3E0FEA3E0FF78181207FB122B2AA358
:101CDE00A3A3A3E0FF122B2A9007A3A3A3E0FEEE7B
:101CEE00FF122B2A9007A3E0FCA3E0FDA3E0FEA3C6
:101CFE00E0FF78101207FB122B2A9007A3E0FCA33B
:101D0E00E0FDA3E0FEA3E0FF78181207FB122B2ADA
:031D1E00D294223A
:0B2A9D00900739EBF0A3EAF0A3E9F08A
:102AA8007F28122F5CE4FE122FC9900739E0FBA3A0
:102AB800E475F00112079FA9F0FAEF12077B0EEEFA
:052AC800B408E4D29403
:012ACD0022E6
:0D29CA009007C5EBF0A3EAF0A3E9F0AD071C
:1029D7007F2D122F5CAF05122B2AE4FE122FC99010
:1029E70007C5E0FBA3E475F00112079FA9F0FAEF12
:0A29F70012077B0EEEB406E4D29442
:012A010022B2
:102DDA0090072FEBF0A3EAF0A3E9F0AD077F3112D9
:102DEA002F5CAF05122B2A122AFF122AFFD2942235
:102CCB00E0FF75F01CA4243AF582E43404F583E0AC
:012CDB00FDFB
:102CDC00AC077F34122F5CAF04122B2AAF05122BDA
:042CEC002AD2942232
:102E3000AB077F32122F5CAF03122B2AAF05122B88
:092E40002AECFF122B2AD2942285
:102B5B00E0FF75F01CA42443F582E43404F583E014
:042B6B00FCA3E0FDEA
:102B6F00AB077F33122F5CAF03122B2AAF05122B4B
:092B7F002AECFF122B2AD2942249
:102ECC00AC077F3E122F5CAF04122B2AAF05122BDE
:042EDC002AD2942240
:0F2F7700AD077F3F122F5CAF05122B2AD2942299
:0D284700900756EBF0A3EAF0A3E9F0AD070F
:102854007F39122F5CAF05122B2AA3A3E0FF122BA2
:102864002A900759E0FF122B2AE4FDFCD390075A63
:10287400E09D900759E09C400D900756122B190DCE
:08288400BD00010C80E6D294B6
:01288C002229
:022DFA00AD0723
:102DFC007F3B122FC1AD077C00122FC9EFFEE42DD3
:082E0C00FDEC3ED294FEAF057F
:012E1400229B
:0F2F8600AD077F2E122F5CAF05122B2AD294229B
:0B26110090073DEFF0A3ECF0A3EDF00C
:10261C004C60487F3C122F5C90073DE0FF122B2A48
:10262C00A3A3E0FF122B2A90073EE0FF122B2A7F78
:10263C0001122FBAE4FDFCD390073FE09D90073EBA
:10264C00E09C4015122FC9EF12077B740129F9E4A5
:0B265C003AFA0DBD00010C80DED294A4
:012667002250
:0F2F9500AD077F2A122F5CAF05122B2AD2942290
:102E6000AD07AC067F2A122F5CAF05122B2AECFFB0
:062E7000122B2AD294226D
:1028D3009007C8EBF0A3EAF0A3E9F0AD077F2F124E
:1028E3002FC19007C8E0FBA3E475F00112079FA96D
:1028F300F0FAEF12077B122FC99007C8E0FBA3E49D
:1029030075F00112079FA9F0FAEF12077BD2942208
:022C7F00AD079F
:102C81007F35122F59AF05122B2AD294122F39AB4F
:102C910007EBB4100CAF040CEFD394C840EE7FFAED
:032CA10022AF035C
:012CA400220D
:022CA500AD0779
:102CA7007F3D122F59AF05122B2AD294122F39AB21
:102CB70007EBB4100CAF040CEFD394C840EE7FFAC7
:032CC70022AF0336
:012CCA0022E7
:022BB400AD076B
:102BB600E4FCFB7F37122F5CAF05122B2AD294124E
:102BC6002F39AB07EBB4100CAF040CEFD394C8400D
:062BD600EE7FFA22AF03BE
:012BDC0022D6
:022BDD00AD0742
:102BDF00E4FCFB7F36122F5CAF05122B2AD2941226
:102BEF002F39AB07EBB4100CAF040CEFD394C840E4
:062BFF00EE7FFA22AF0395
:012C050022AC
:022C0600AD0718
:102C0800E4FCFB7F38122F5CAF05122B2AD29412FA
:102C18002F39AB07EBB4100CAF040CEFD394C840BA
:062C2800EE7FFA22AF036B
:012C2E002283
:022E4900AD07D3
:102E4B007F30122F5CAF05122B2A7F02122FBA1282
:042E5B002FC9D29415
:012E5F002250
:0B0DE70090077DEBF0A3EAF0A3E9F019
:100DF20090078812082D04C11DB790078C12082D88
:100E0200FFFFFFFF90078012082D00000000E47F23
:100E120006FEFDFC900780E0F8A3E0F9A3E0FAA348
:100E2200E0FBC31207D44003020F3A90077DE0FBB8
:100E3200A3E475F00112079FA9F0FA120735900793
:100E420090F090078412082D00000000E47F08FE55
:100E5200FDFC900784E0F8A3E0F9A3E0FAA3E0FB2D
:100E6200C31207D44003020F1290078CE0FCA3E0E8
:100E7200FDA3E0FEA3E0FF781F1207FBA905AA0667
:100E8200AB07A3E0FFEB6FFFEF5401FFEF60189099
:100E92000788E0FCA3E0FDA3E0FEA3E0FFC004C0DE
:100EA20005C006C007800DE4FBFAF9F8C000C001D6
:100EB200C002C00390078CE0FCA3E0FDA3E0FEA308
:100EC200E0FF780112080ED003D002D001D000EF6B
:100ED2006BFFEE6AFEED69FDEC68FC90078C120870
:100EE20021900790E0C313F0900784E0FCA3E0FD9B
:100EF200A3E0FEA3E0FFE4FAF9F8EF2401FFEA3EE3
:100F0200FEE93DFDE83CFC900784120821020E4EEA
:100F1200900780E0FCA3E0FDA3E0FEA3E0FFE4FA7B
:100F2200F9F8EF2401FFEA3EFEE93DFDE83CFC90C2
:100F32000780120821020E1090078CE0FCA3E0FD4E
:100F4200A3E0FEA3E0FF781A1207FB90078C1208B9
:090F52002190078CA3A3A3E0FF8A
:010F5B002273
:022C2F00AD07EF
:102C3100E4FC7F41122F5CAF05122B2AD2947F1442
:102C4100122F06122F3EEFB4100CAE040CEED394EB
:062C5100C840EB7FFA22EF
:012C5700225A
:0A3019007F42122F5C122FC9D294DF
:01302300228A
:0B2ACE009007CBEBF0A3EAF0A3E9F0C7
:102AD9007F43122F5CE4FE122FC99007CBE0FBA3C2
:102AE900E475F00112079FA9F0FAEF12077B0EEEC9
:052AF900B414E4D294C6
:012AFE0022B5
:102F1700AC077FED122F5CAF04122B2AAF05022BF3
:012F27002A7F
:022EA200AD077A
:102EA4007FEC122F5CAF05122B2A7F01122F061222
:022EB4002FC924
:012EB60022F9
:102EE0007FE9122F5C7F14122F06122F3EEF641021
:022EF00060F38D
:012EF20022BD
:0F2711009007A9EBF0A3EAF0A3E9F0AD07AC063F
:102720007FEA122F5CAF05122B2AECFF122B2AA393
:10273000E0801D9007ACE0FF14F0EF60199007A94E
:10274000E0FBA3E475F00112079FA9F0FA12073528
:10275000FF122B2A80DD7F14122F06122F3EEF640A
:032760001060F313
:012763002253
:1027B2009007AFEBF0A3EAF0A3E9F0AD07AC067F18
:1027C200EB122F5CAF05122B2AECFF122B2AA3E08F
:1027D200FF122B2A7F01122F069007B2E0FF14F09E
:1027E200EF6019122FC99007AFE0FBA3E475F00167
:0D27F20012079FA9F0FAEF12077B80DD228D
:102EF300AD07AC067F50122F5CAF05122B2AECFFF7
:032F0300022B2A74
:102E7600AC077F52122F5CAF04122B2AAF05122B20
:062E86002AAF03022B2A13
:102E8C00AC077F53122F5CAF04122B2AAF05122B09
:062E9C002AAF03022B2AFD
:1026BD00900791EBF0A3EAF0A3E9F0A312082190A3
:1026CD00079DE0FF900798E0FBA3E0FAA3E0F91265
:1026DD002DDA90079DE0FF90079BE0FCA3E0FD1233
:1026ED002E30900791E0FBA3E0FAA3E0F9A3A3A39A
:1026FD00E0FFA3E0900759CFF0A3EFF090079DE026
:04270D00FF02284758
:102764009007B71208217F55122F5C9007B7A3A3D7
:10277400A3E0FF122B2A9007B7A3A3E0FEEEFF12FB
:102784002B2A9007B7E0FCA3E0FDA3E0FEA3E0FF43
:1027940078101207FB122B2A9007B7E0FCA3E0FD88
:0E27A400A3E0FEA3E0FF78181207FB022B2A29
:102D38007F19122F5C7F02122FBA122FC9AD077CA0
:102D480000122FC9EFFEE42DFDEC3ED294FEAF0534
:012D58002258
:102D5900EF601D7BFF7A167924900758E4F0A3EF02
:102D6900F012006E7FC8122F067FC8122F0680F45A
:012D79002237
:1027FF007E007F237D007B017A04796812085E7862
:10280F00687C047D017B017A0779077E007F0412C3
:10281F00070F786C7C047D017B017A0779237E009A
:10282F007F0412070F78707C047D017B017A077992
:08283F001F7E007F0402070F59
:0526680090072EEFF0C9
:10266D00E075F01CA42430F9740435F0FA7B01E018
:10267D00FF122DDA90072E122CCB90072EE0FF754E
:10268D00F01CA42441F582E43404F583E0FCA3E0BE
:10269D00FD122E3090072E122B5B90072EE0FF12AD
:1026AD002C7F122D5990072EE0FF122BB4022D59BD
:052D140090074FEFF0F5
:102D1900122CCB90074F122B5B90074FE0FF122C20
:0F2D29007F122D5990074FE0FF122BDD022D591D
:1017060090072DEFF07E007F1CC006C0077D00E02D
:1017160075F01CA42430F9740435F0FA7B01D00767
:10172600D00612085E90072DE075F01CA42430F94F
:10173600740435F0A801FC7D017B017A0679EB7E05
:10174600007F0412070F90072DE0FF75F01CA424FC
:1017560041F582E43404F583E4F0A37415F0EF75E3
:10176600F01CA42443F582E43404F583740FF0A33B
:1017760074A0F0EF75F01CA4243AF582E43404F565
:10178600837403F0EF75F01CA4243CF582E4340462
:10179600F583E4F09006AEEFF01226687E027F181D
:1017A600C006C0077F00C00790072DE0FF7E007CC3
:1017B600027D1812078D74002FF974003EFA7B0122
:0917C600D005D007D00602085E30
:10122E009007BBEFF0A3EBF0A3EAF0A3E9F0900474
:10123E008BE0FFC394644006EFD394C8400690043D
:10124E008B7464F090048BE004F07E007F1CC0066B
:10125E00C0077D009007BBE075F01CA42430F97424
:10126E000435F0FA7B01D007D00612085E9007BB5A
:10127E00E075F01CA42430F9740435F0A801FC7D4F
:10128E00017B017A0679EB7E007F0412070F90072F
:10129E00BBE0FF75F01CA42441F582E43404F58311
:1012AE00E4F0A37414F090048BE02488FDE434136E
:1012BE00FCEF75F01CA42443F582E43404F583ECB2
:1012CE00F0A3EDF09007BBE075F01CA42443F5826B
:1012DE00E43404F583E0F9A3E0FF9007BCE0FBA340
:1012EE00E0FAA3E0C98FF01207B59007BBE0FF75D7
:1012FE00F01CA4243AF582E43404F5837403F0EF71
:10130E0075F01CA4243CF582E43404F583E4F090DB
:10131E0006B0EFF01226687E027F18C006C0077F67
:10132E0000C0079007BBE0FF7E007C027D1812070D
:10133E008D74002FF974003EFA7B01D005D007D0D2
:04134E000602085E2D
:1015370090074BEFF0A3EBF0A3EAF0A3E9F09004D8
:101547008BE0FFC394644006EFD394C84006900431
:101557008B7464F090048BE004F07E007F1CC0065F
:10156700C0077D0090074BE075F01CA42430F97488
:101577000435F0FA7B01D007D00612085E90048B81
:10158700E02488FFE43413FE90074BE0FD75F01C60
:10159700A42443F582E43404F583EEF0A3EFF0EDE1
:1015A70075F01CA42443F582E43404F583E0F9A321
:1015B700E0FF90074CE0FBA3E0FAA3E0C98FF0122D
:1015C70007B590074BE0FF75F01CA4243AF582E4B9
:1015D7003404F5837403F0EF75F01CA4243CF58202
:1015E700E43404F5837401F09006AFEFF0122D1484
:1015F7007E027F18C006C0077F00C00790074BE038
:10160700FF7E007C027D1812078D74002FF974008D
:0D1617003EFA7B01D005D007D00602085E28
:0508E600900739EFF05E
:1008EB007BFF7A167931900758E4F0A3EFF01200F2
:1008FB006E900739E0FF122E49A3EFF090073AE014
:10090B0030E1097BFF7A16794012006E90073AE0CE
:10091B0030E3217BFF7A16795312006E9006AFE01D
:10092B00FF900739E0FEB5070B9006A77401F09016
:10093B0006B0EEF090073AE020E203020A4E900771
:10094B0039E0FF122DFA90073BEEF0A3EFF04E705B
:10095B0003020A4ED3E0941890073BE09402400741
:10096B007402F0A37418F0900739E0FF7E007C024C
:10097B007D1812078D74002FF974003EFA7B01E08D
:10098B00FF90073BE0FCA3E0FD12261190073BE034
:10099B00FEA3E0FF900739E075F01CA42447F58215
:1009AB00E43404F583EEF0A3EFF09006B4EEF0A37D
:1009BB00EFF07BFF7A167960900758EEF0A3EFF01B
:1009CB0012006E900739E0FF7E007C027D18120743
:1009DB008D74002FF974003EFA9007587401F0A340
:1009EB00EAF0A3E9F07BFF7A16796812006E9007A4
:1009FB0039E0FF7E007C027D1812078D74002FF901
:100A0B0074003EFA7B019006B1E0FD900739E0904F
:100A1B000741F012194D7E027F18C006C0077F00F8
:100A2B00C007900739E0FF7E007C027D1812078D0E
:100A3B0074002FF974003EFA7B01D005D007D00665
:100A4B0012085E90073AE030E4247BFF7A16797641
:100A5B0012006E9006B0E0FE900739E0FFB5060B72
:100A6B00E49006A7F09006AD7404F0122CA5900745
:100A7B003AE030E6247BFF7A16798612006E9006F8
:100A8B00B0E0FE900739E0FFB5060BE49006A7F047
:090A9B009006AD7404F0122CA5C4
:010AA400222F
:101BF300122D3890072DEEF0A3EFF030E0097B01B2
:101C03007A07792F122A9D90072EE030E21C7BFF82
:101C13007A16799212006E1230037E00EF6401701F
:101C2300097BFF7A1679B612006E90072EE030E436
:101C330005E4FF1208E690072EE030E5057F011268
:101C430008E690072EE030E6057F021208E69007CB
:101C53002EE030E7057F031208E690072DE030E021
:101C6300057F041208E690072DE030E1057F051299
:101C730008E690072DE030E2057F061208E690079C
:0A1C83002DE030E3057F071208E6AC
:011C8D002234
:102B88007F65123024EF649A60037FFA227B017A12
:102B9800047968122D7A7B017A04796C122D9A7B5C
:0B2BA800017A047970122DBA122B2D57
:012BB30022FF
:102F2800759850758780758921758DF3D28ED299E1
:012F38002276
:10288D0090075012082190074DEBF0A3EAF0A3E951
:10289D00F0A3A3A3E0FFA3E0900759CFF0A3EFF0BF
:1028AD00900754E0FF12284790074DE0F9A3E0FA96
:1028BD00A3E0900758C9F0A3EAF0A3E9F07BFF7AF3
:0628CD001679CB02006E3B
:101445007B017A0679A77E007F0F7D0012085E90EA
:1014550006AE74FFF0A3F0A3F0A37401F07E007F45
:10146500117D00FB7A07790B12085EE4FFFE740715
:101475002EF582E43407F583E075F06484603B243F
:1014850030FDAC070F740B2CF582E43407F583EDC2
:10149500F074072EF582E43407F583E075F0648473
:1014A500E5F075F00A842430FDAC070F740B2CF5BC
:1014B50082E43407F583EDF0802574072EF582E488
:1014C5003407F583E075F00A8460142430FDAC0719
:1014D5000F740B2CF582E43407F583EDF08000746E
:1014E500072EF582E43407F583E075F00A84E5F00C
:1014F5002430FDAC070F740B2CF582E43407F5831B
:10150500EDF0AD070F740B2DF582E43407F5837408
:101515002CF00EEE640460030214739007587401F6
:10152500F0A37407F0A3740BF07BFF7A1679D3024E
:02153500006E46
:102A02007F64122F06122F281214457BFF7A167943
:102A1200DF12006E12302E1227FF122B88122D5950
:102A2200123003BF01077FC8122F0680F37BFF7AA3
:062A32001679EE12006EA1
:012A3800227B
:10036800555345522025730D0A0055534552203ADE
:1003780025730A00504153532025730D0A0050413C
:100388005353203A25730A00535953540D0A005306
:10039800595354203A25730A004C4953540D0A0006
:1003A8004C495354203A25730A004E4C53540D0AB5
:1003B800004E4C5354203A25730A00545950452096
:1003C800410D0A0054595045203A25730A005349F3
:1003D8005A452025730D0A0053495A45203A25737A
:1003E8000A00524554522025730D0A0052455452B2
:1003F800203A25730A00434455500D0A00434455DA
:1004080050203A25730A004D4B4420257325640D6E
:100418000A004D4B442025730D0A004D4B44203AE9
:1004280025730A00524D442025730D0A00524D448D
:10043800203A25730A00415050452025730D0A00C3
:1004480053544F52203A25730A00414C4C4F2035E3
:1004580030303030300D0A00414C4C4F203A257373
:100468000A004E4F4F500D0A004E4F4F50203A256C
:10047800730A00504F5254202573253032642C25BE
:100488003032640D0A00504F5254203A25730A0046
:10049800435744202F25730D0A00515549540D0A1E
:1004A8000051554954203A25730A0032323000333E
:1004B80033310032333000353330003232310023EB
:1004C80023232323003230302054797065003230E2
:1004D8003020504F5254003135300032323600341B
:1004E800323500323530003235305E5E5E5E5E5E3B
:1004F8005E5E5E5E5E5E5E5E5E5E5E5E5E5E5E5E14
:100508005E5E5E5E0032313300353530003235379D
:1005180000343231003C4449523E002A2A2A2A2A11
:100528002A2A2A2A0A66696E64206C6973740A2A60
:100538002A2A2A2A2A2A2A2A0A002A2A2A2A2A2A5D
:100548002A2A2A0A66696E642066696C650A2A2A5C
:100558002A2A2A2A2A2A2A0A002A2A2A2A2A2A2A3D
:100568002A2A2A2A2A0A6C6F67696E2073756363C0
:100578006573730A2A2A2A2A2A2A2A2A2A0A002A70
:100588002A2A2A2A2A2A2A2A2A0A73656172636869
:1005980020737563636573730A2A2A2A2A2A2A2A0A
:1005A8002A2A0A002A2A2A2A2A2A2A2A2A0A676595
:1005B8007466696C6520737563636573730A2A2AA8
:1005C8002A2A2A2A2A2A2A0A002A2A2A2A2A2A2ACD
:1005D8002A2A0A70757466696C6520737563636589
:1005E80073730A2A2A2A2A2A2A2A2A2A0A006162CC
:1005F800636465666768696A6B6C6D6E6F7071724B
:10060800737475767778797A303132333435363792
:1006180038390025730D0A00555345520046494C98
:10062800454C4953542E545854005445585400616D
:0706380062632E7478740068
:0B2952004206B6000043048CFF05F6AF
:102046007E027F187D007B017A04798F12085E90EC
:10205600075874FFF0A37403F0A37468F09006D0D9
:10206600E0F9A3E0FAA3E090075BC9F0A3EAF0A3C6
:10207600E9F07B017A04798F1200689007587401A1
:10208600F0A37404F0A3748FF07BFF7A03797212C5
:10209600006E7B017A04798F122EB7EE3395E0FD40
:1020A600FC7B017A04798F9006AEE0900754F0022B
:0220B600288D73
:1020B8007E027F187D007B017A04798F12085E907A
:1020C800075874FFF0A37403F0A3747CF090071C06
:1020D800E0F9A3E0FAA3E090075BC9F0A3EAF0A354
:1020E800E9F07B017A04798F12006890075874012F
:1020F800F0A37404F0A3748FF07BFF7A037986123F
:10210800006E7B017A04798F122EB7EE3395E0FDCD
:10211800FC7B017A04798F9006AEE0900754F002B8
:02212800288D00
:1022CE007E027F187D007B017A04798F12085E9062
:1022DE00075874FFF0A37403F0A37490F07B017A97
:1022EE0004798F1200689007587401F0A37404F0FB
:1022FE00A3748FF07BFF7A03799712006E7B017ABD
:10230E0004798F122EB7EE3395E0FDFC7B017A0433
:0D231E00798F9006AEE0900754F002288DF4
:10232B007E027F187D007B017A04798F12085E9004
:10233B00075874FFF0A37403F0A374A1F07B017A28
:10234B0004798F1200689007587401F0A37404F09D
:10235B00A3748FF07BFF7A0379A812006E7B017A4E
:10236B0004798F122EB7EE3395E0FDFC7B017A04D6
:0D237B00798F9006AEE0900754F002288D97
:102388007E027F187D007B017A04798F12085E90A7
:10239800075874FFF0A37403F0A374B2F07B017ABA
:1023A80004798F1200689007587401F0A37404F040
:1023B800A3748FF07BFF7A0379B912006E7B017AE0
:1023C80004798F122EB7EE3395E0FDFC7B017A0479
:0D23D800798F9006AEE0900754F002288D3A
:1023E5007E027F187D007B017A04798F12085E904A
:1023F500075874FFF0A37403F0A374C3F07B017A4C
:1024050004798F1200689007587401F0A37404F0E2
:10241500A3748FF07BFF7A0379CC12006E7B017A6F
:1024250004798F122EB7EE3395E0FDFC7B017A041B
:0D243500798F9006AEE0900754F002288DDC
:10212A007E027F187D007B017A04798F12085E9007
:10213A00075874FFF0A37403F0A374D6F0A37401D4
:10214A00F0A37406F0A374B8F07B017A04798F12B5
:10215A0000689007587401F0A37404F0A3748FF018
:10216A007BFF7A0379E012006E7B017A04798F1281
:10217A002EB7EE3395E0FDFC7B017A04798F900649
:09218A00AEE0900754F002288D2C
:102193007E027F187D007B017A04798F12085E909E
:1021A300075874FFF0A37403F0A374EAF0A3740157
:1021B300F0A37406F0A374B8F07B017A04798F124C
:1021C30000689007587401F0A37404F0A3748FF0AF
:1021D3007BFF7A0379F412006E7B017A04798F1204
:1021E3002EB7EE3395E0FDFC7B017A04798F9006E0
:0921F300AEE0900754F002288DC3
:102442007E027F187D007B017A04798F12085E90EC
:10245200075874FFF0A37403F0A374FEF07B017AB3
:1024620004798F1200689007587401F0A37404F085
:10247200A3748FF07BFF7A04790512006E7B017AD8
:1024820004798F122EB7EE3395E0FDFC7B017A04BE
:0D249200798F9006AEE0900754F002288D7F
:1017CF0090074BEFF07E027F187D007B017A047942
:1017DF008F12085E90074BE060389006B7E004F078
:1017EF0070069006B6E004F090075874FFF0A374EB
:1017FF0004F0A3740FF0A37401F0A37406F0A374A4
:10180F00D3F09006B6E0FFA3E090075ECFF0A3EF12
:10181F00801990075874FFF0A37404F0A3741AF0A2
:10182F00A37401F0A37406F0A374D3F07B017A04C0
:10183F00798F1200689007587401F0A37404F0A315
:10184F007493F07B017A0679EF1200689007587451
:10185F0001F0A37404F0A3748FF07BFF7A04792353
:10186F0012006E7B017A04798F122EB7EE3395E05A
:10187F00FDFC7B017A04798F9006AEE0900754F05F
:03188F0002288D9F
:1021FC007E027F187D007B017A04798F12085E9035
:10220C00075874FFF0A37404F0A3742CF0A37401AA
:10221C00F0A37406F0A374D3F07B017A04798F12C7
:10222C0000689007587401F0A37404F0A3748FF045
:10223C007BFF7A04793512006E7B017A04798F1258
:10224C002EB7EE3395E0FDFC7B017A04798F900676
:09225C00AEE0900754F002288D59
:102265007E027F187D007B017A04798F12085E90CB
:10227500075874FFF0A37404F0A3743EF0A374012F
:10228500F0A37406F0A374B8F07B017A04798F1279
:1022950000689007587401F0A37404F0A3748FF0DC
:1022A5007BFF7A04794812006E7B017A04798F12DC
:1022B5002EB7EE3395E0FDFC7B017A04798F90060D
:0922C500AEE0900754F002288DF0
:10249F007E027F187D007B017A04798F12085E908F
:1024AF00075874FFF0A37404F0A37452F07B017A01
:1024BF0004798F1200689007587401F0A37404F028
:1024CF00A3748FF07BFF7A04796012006E7B017A20
:1024DF0004798F122EB7EE3395E0FDFC7B017A0461
:0D24EF00798F9006AEE0900754F002288D22
:1024FC007E027F187D007B017A04798F12085E9032
:10250C00075874FFF0A37404F0A3746AF07B017A8B
:10251C0004798F1200689007587401F0A37404F0CA
:10252C00A3748FF07BFF7A04797112006E7B017AB1
:10253C0004798F122EB7EE3395E0FDFC7B017A0403
:0D254C00798F9006AEE0900754F002288DC4
:081D21009006B2E0FEA3E0FF12
:101D290090074BEEF0A3EFF07E027F187D007B0158
:101D39007A04798F12085E90075874FFF0A374042F
:101D4900F0A3747BF0A37401F0A37407F0A3740BE0
:101D5900F090074BE0FCA3E0FDECFF90075EE4F098
:101D6900A3EFF0AF05A3E4F0A3EFF07B017A0479C8
:101D79008F1200689007587401F0A37404F0A374DB
:101D89008FF07BFF7A04798E12006E7B017A0479D9
:101D99008F122EB7EE3395E0FDFC7B017A04798F23
:0B1DA9009006AEE0900754F002288D79
:101FD00090074BEFF07E027F187D007B017A047939
:101FE0008F12085E90074BE0900758B4011874FFF9
:101FF000F0A37404F0A37498F0A37401F0A3740622
:10200000F0A374EF801674FFF0A37404F0A3749827
:10201000F0A37401F0A37406F0A374D3F07B017AEB
:1020200004798F1200687B017A04798F122EB7EE43
:102030003395E0FDFC7B017A04798F9006AEE09049
:062040000754F002288D98
:102559007E027F187D007B017A04798F12085E90D4
:10256900075874FFF0A37404F0A374A2F07B017AF6
:1025790004798F1200689007587401F0A37404F06D
:10258900A3748FF07BFF7A0479A912006E7B017A1C
:1025990004798F122EB7EE3395E0FDFC7B017A04A6
:0D25A900798F9006AEE0900754F002288D67
:10135200900748EBF0A3EAF0A3E9F0900748E0F920
:10136200A3E0FAA3E0900755C9F0A3EAF0A3E9F0DD
:10137200A3E4F0A37403F07BFF7A0479B3121ED1C5
:10138200EF7006122046021442900748E0F9A3E0EB
:10139200FAA3E0900755C9F0A3EAF0A3E9F0A3E4A9
:1013A200F0A37403F07BFF7A0479B7121ED1EF70B9
:1013B200061220B8021442900748E0F9A3E0FAA30B
:1013C200E0900755C9F0A3EAF0A3E9F0A3E4F0A383
:1013D2007403F07BFF7A0479BB121ED1EF70079081
:1013E20006A804F0805A900748E0F9A3E0FAA3E0C7
:1013F200900755C9F0A3EAF0A3E9F0A3E4F0A374BF
:1014020003F07BFF7A0479BF121ED1EF70028028AD
:10141200900748E0F9A3E0FAA3E0900755C9F0A3CA
:10142200EAF0A3E9F0A3E4F0A37403F07BFF7A04EB
:1014320079C3121ED1EF70089006AEE0FF122CA500
:031442007F2022E6
:100C5000900748EBF0A3EAF0A3E9F07BFF7A047970
:100C6000C712006E900748E0F9A3E0FAA3E09007EE
:100C700055C9F0A3EAF0A3E9F0A3E4F0A37408F0E7
:100C80007BFF7A0479CD121ED1EF70117B017A06B9
:100C900079B27F01121537121D21020DE490074829
:100CA000E0F9A3E0FAA3E0900755C9F0A3EAF0A3A6
:100CB000E9F0A3E4F0A37408F07BFF7A0479D6127C
:100CC0001ED1EF700612232B020DE4900748E0F9C5
:100CD000A3E0FAA3E0900755C9F0A3EAF0A3E9F076
:100CE000A3E4F0A37403F07BFF7A0479DF121ED132
:100CF000EF70099006AD7402F0020DE4900748E031
:100D0000F9A3E0FAA3E0900755C9F0A3EAF0A3E93C
:100D1000F0A3E4F0A37403F07BFF7A0479E3121EDE
:100D2000D1EF70229006A9E0B402069006A87402E2
:100D3000F09006ABE0B40106E4F0FF121FD0E4909F
:100D400006A9F0020DE4900748E0F9A3E0FAA3E059
:100D5000900755C9F0A3EAF0A3E9F0A3E4F0A37467
:100D600003F07BFF7A0479E7121ED1EF700512259C
:100D7000598071900748E0F9A3E0FAA3E090075585
:100D8000C9F0A3EAF0A3E9F0A3E4F0A37403F07BB5
:100D9000FF7A0479EB121ED1EF70147BFF7A04798D
:100DA000EF12006E9006A97402F01223E5803590D0
:100DB0000748E0F9A3E0FAA3E0900755C9F0A3EAD9
:100DC000F0A3E9F0A3E4F0A37403F07BFF7A0479C5
:100DD000C3121ED1EF700A9006AEE0FF122CA58060
:070DE000037F21227F0022A6
:100F5C00900748EBF0A3EAF0A3E9F0900748E0F91A
:100F6C00A3E0FAA3E0900755C9F0A3EAF0A3E9F0D7
:100F7C00A3E4F0A37408F07BFF7A0479CD121ED1A0
:100F8C00EF700612212A0210CD900748E0F9A3E079
:100F9C00FAA3E0900755C9F0A3EAF0A3E9F0A3E4A3
:100FAC00F0A37403F07BFF7A05790D121ED1EF705C
:100FBC00117B017A0679B27F01121537121D2102BD
:100FCC0010CD900748E0F9A3E0FAA3E0900755C9CB
:100FDC00F0A3EAF0A3E9F0A3E4F0A37408F07BFF1C
:100FEC007A0479D6121ED1EF70061221930210CD1D
:100FFC00900748E0F9A3E0FAA3E0900755C9F0A3E5
:10100C00EAF0A3E9F0A3E4F0A37403F07BFF7A0405
:10101C0079DF121ED1EF70179006AD7402F0FE7FCF
:10102C00187D007B017A04798F12085E0210CD9036
:10103C000748E0F9A3E0FAA3E0900755C9F0A3EA4A
:10104C00F0A3E9F0A3E4F0A37403F07BFF7A057935
:10105C0011121ED1EF70051225598065900748E0DA
:10106C00F9A3E0FAA3E0900755C9F0A3EAF0A3E9CD
:10107C00F0A3E4F0A37403F07BFF7A0479E3121E6F
:10108C00D1EF70089006A87404F08035900748E002
:10109C00F9A3E0FAA3E0900755C9F0A3EAF0A3E99D
:1010AC00F0A3E4F0A37403F07BFF7A0479C3121E5F
:1010BC00D1EF700A9006AEE0FF122CA580037F22C0
:0410CC00227F00225D
:100AA500900748EBF0A3EAF0A3E9F0900748E0F9D6
:100AB500A3E0FAA3E0900755C9F0A3EAF0A3E9F093
:100AC500A3E4F0A37403F07BFF7A0479EB121ED143
:100AD500EF70189006A9E0B40804E4FF806C900656
:100AE500A9E0641070671223E58062900748E0F979
:100AF500A3E0FAA3E0900755C9F0A3EAF0A3E9F053
:100B0500A3E4F0A37403F07BFF7A057915121ED1D7
:100B1500EF700D9006A97410F07F01121FD0802D83
:100B2500900748E0F9A3E0FAA3E0900755C9F0A3C0
:100B3500EAF0A3E9F0A3E4F0A37403F07BFF7A05E0
:100B45007911121ED1EF70057F011217CF9007485A
:100B5500E0F9A3E0FAA3E0900755C9F0A3EAF0A3F2
:100B6500E9F0A3E4F0A37408F07BFF7A0479CD12D1
:100B75001ED1EF70117B017A0679B27F011215370C
:100B8500121D21020C4D900748E0F9A3E0FAA3E0FD
:100B9500900755C9F0A3EAF0A3E9F0A3E4F0A37424
:100BA50008F07BFF7A0479D6121ED1EF7006122267
:100BB50065020C4D900748E0F9A3E0FAA3E0900721
:100BC50055C9F0A3EAF0A3E9F0A3E4F0A37403F098
:100BD5007BFF7A0479DF121ED1EF70079006AD0412
:100BE500F08065900748E0F9A3E0FAA3E090075587
:100BF500C9F0A3EAF0A3E9F0A3E4F0A37403F07B42
:100C0500FF7A0479E3121ED1EF70089006A87408E4
:100C1500F08035900748E0F9A3E0FAA3E090075586
:100C2500C9F0A3EAF0A3E9F0A3E4F0A37403F07B11
:100C3500FF7A0479C3121ED1EF700A9006AEE0FF69
:0B0C4500122CA580037F23227F0022D9
:0E1DB400900743EBF0A3EAF0A3E9F0A3EDF0F3
:101DC200900743E0F9A3E0FAA3E0900755C9F0A316
:101DD200EAF0A3E9F0A3E4F0A37403F07BFF7A0531
:101DE2007919121ED1EF7002FF22900746E024FEFD
:101DF200601A14602714603424037044900743E08F
:101E0200FBA3E0FAA3E0F9121352802E900743E0FD
:101E1200FBA3E0FAA3E0F9120C50801E900743E006
:101E2200FBA3E0FAA3E0F9120F5C800E900743E0F7
:101E3200FBA3E0FAA3E0F9120AA5900747EFF0220C
:021E42007F2FF0
:011E4400227B
:0B10D000900743EBF0A3EAF0A3E9F067
:1010DB009006B4E0FEA3E0FFE4FCFD900746120887
:1010EB002190074A12082D00000000900746E0FCF3
:1010FB00A3E0FDA3E0FEA3E0FFA3E0F8A3E0F9A3C8
:10110B00E0FAA3E0FBC31207EA400302122B7B01B8
:10111B007A0679D3122EB7900758EEF0A3EFF09022
:10112B00074AA3E0FDA3E0FEA3E0FF900743E0FB2B
:10113B00A3E0FAA3E02FF9EA3EFAEB3D900755F056
:10114B00A3EAF0A3E9F07B017A0679D3121ED1EF63
:10115B00600302120990074AE0FCA3E0FDA3E0FE46
:10116B00A3E0FFA31208217BFF7A05791D122EB78E
:10117B00900758EEF0A3EFF090074EA3E0FDA3E02D
:10118B00FEA3E0FF900743E0FBA3E0FAA3E02FF9F7
:10119B00EA3EFAEB3D900755F0A3EAF0A3E9F07BAA
:1011AB00FF7A05791D121ED1EF604790074EE0FCC8
:1011BB00A3E0FDA3E0FEA3E024FFFFEE34FFFEED72
:1011CB0034FFFDEC34FFFC90074E12082190074EC4
:1011DB00A3A3E0FEA3E0FF900743E0FBA3E0FAA389
:1011EB00E0F98F828E8312074E644D6003021172F9
:1011FB00FF227BFF7A05792312006E7F0022900776
:10120B004AE0FCA3E0FDA3E0FEA3E02401FFE43EE3
:10121B00FEE43DFDE43CFC90074A1208210210F667
:02122B007F2A18
:01122D00229E
:0B189200900743EBF0A3EAF0A3E9F09D
:10189D009006B4E0FEA3E0FFE4FCFD9007461208BD
:1018AD002190074A12082D00000000900746E0FC29
:1018BD00A3E0FDA3E0FEA3E0FFA3E0F8A3E0F9A3FE
:1018CD00E0FAA3E0FBC31207EA50727B017A0679B6
:1018DD00B8122EB7900758EEF0A3EFF090074AA379
:1018ED00E0FDA3E0FEA3E0FF900743E0FBA3E0FAD9
:1018FD00A3E02FF9EA3EFAEB3D900755F0A3EAF08D
:10190D00A3E9F07B017A0679B8121ED1EF700C7B3A
:10191D00FF7A05794212006E7F002290074AE0FCA3
:10192D00A3E0FDA3E0FEA3E02401FFE43EFEE43DC1
:0F193D00FDE43CFC90074A1208210218B87F2BEA
:01194C002278
:102A39009006AAE0700B04F09006B1F0E4FF1217BB
:102A4900069006A8E0B401187BFF7A0579611200A7
:102A59006EE49006AAF09006A8F09006B1F0FF2265
:032A69007F0122C8
:101AAD0090072DEBF0A3EAF0A3E9F09006AAE07001
:101ABD007004F09006B104F09006A914F078D37C70
:101ACD0006FD7B007A0079007E007F1812070F90CB
:101ADD00072DE0F9A3E0FAA3E0900758C9F0A3EAB7
:101AED00F0A3E9F07B017A0679D312006878B87C0F
:101AFD00067D017B007A0079007E007F1812070FAA
:101B0D00900730E0F9A3E0FAA3E0900758C9F0A3DD
:101B1D00EAF0A3E9F07B017A0679B8120068122386
:101B2D00E59006A7E0701DA3E0B402187BFF7A05CF
:101B3D00798712006EE49006AAF09006A8F0900640
:071B4D00B1F0FF227F01222D
:101F580090072DEBF0A3EAF0A3E9F09006AAE07051
:101F68004104F09006B17403F09006A904F078B823
:101F78007C067D017B007A0079007E007F181207BD
:101F88000F90072DE0F9A3E0FAA3E0900758C9F0F5
:101F9800A3EAF0A3E9F07B017A0679B81200681287
:101FA80023E59006A7E0701DA3E0B404187BFF7A30
:101FB8000579AC12006EE49006AAF09006A8F0909D
:081FC80006B1F0FF227F0122A7
:101A030090072DEBF0A3EAF0A3E9F09006AAE070AB
:101A13007304F09006B17404F09006A97408F0788A
:101A2300D37C067D017B007A0079007E007F18124B
:101A3300070F90072DE0F9A3E0FAA3E0900758C938
:101A4300F0A3EAF0A3E9F07B017A0679D3120068E8
:101A530078B87C067D017B007A0079007E007F18D0
:101A630012070F900730E0F9A3E0FAA3E0900758BC
:101A7300C9F0A3EAF0A3E9F07B017A0679B8120072
:101A8300681224429006A7E0701DA3E0B408187BF7
:101A9300FF7A0579D112006EE49006AAF09006A8A9
:0A1AA300F09006B1F0FF227F01224F
:0E2FCF0090072DEBF0A3EAF0A3E9F07F0022BB
:102F4900AE04AF05788F7C047D0112070F7F002244
:1025B6007E027F187D007B017A04798F12085E9077
:1025C600048CE0FBA3E0FAA3E0F9122EB7C3EF9464
:1025D60018EE64809482503290075874FFF0A3740A
:1025E60006F0A3741BF090048CE0F9A3E0FAA3E0D4
:1025F60090075BC9F0A3EAF0A3E9F07B017A0479BE
:0B2606008F1200689006AD7404F022F3
:0E194D0090073DEBF0A3EAF0A3E9F0A3EDF064
:10195B009006B0E0FF900741E06F70799006ADE024
:10196B0064026003021A029006A9E0B404229007F5
:10197B003DE0FBA3E0FAA3E0F9122EB7AC06AD07EE
:10198B0090073DE0FBA3E0FAA3E0F9122F49806238
:10199B009006A9E0B4011B90073DE0FBA3E0FAA37E
:1019AB00E0F91210D0900742EFF0704B9006AB04A9
:1019BB00F0229006A9E06402703D90073DE0FBA386
:1019CB00E0FAA3E0F9121892900742EFF07028901A
:1019DB0006AC04F0229006AEE0FF900741E0B5079D
:1019EB001690073DE0FBA3E0FAA3E0F9A3E0FD129C
:0719FB001DB4900742EFF05C
:011A020022C1
:102913007B017A0679B8122FCFEF70031225B67BAD
:10292300017A04798F122EB7EE3395E0FDFC7B011B
:102933007A04798F9006B0E0900754F012288D90B6
:0E29430006ADE0B404089006B0E0FF122CA52B
:012951002263
:102E15009006ADE0B4010A9006A7E0B4010C0229C2
:0B2E2500139006B1E06003121B542262
:101B54009006B1E024FE602D1460531460732403D6
:101B64006003021BF2122A39EF6003021BF2900792
:101B74003074FFF0A37406F0A37425F07BFF7A069B
:101B84007920021AAD90073074FFF0A37406F0A315
:101B94007425F07BFF7A067920121AADEF704F900E
:101BA40006ACE060467BFF7A067925021F587BFF6E
:101BB4007A067925121F58EF703490073074FFF0BD
:101BC400A37406F0A37437F07BFF7A067932021A05
:101BD4000390073074FFF0A37406F0A37437F07B0E
:0F1BE400FF7A067932121A03EF70031225592285
:0F2FA400616E6F6E796D6F75730031323340005F
:10295D00460727020304050607440707C0A8010A16
:10296D00440723C0A8010144071FFFFFFF004406D1
:10297D00EBC0A801644306D0FF2FA443071CFF2F13
:01298D00AE9B
:0E2FDD00122A0220B303121BF3122E1580F5E8
:03000000021E4598
:0C1E4500787FE4F6D8FD758121021E8C28
:10063F00E709F608DFFA8046E709F208DFFA803E9D
:10064F0088828C83E709F0A3DFFA8032E309F6088A
:10065F00DFFA8078E309F208DFFA807088828C83F2
:10066F00E309F0A3DFFA806489828A83E0A3F608A6
:10067F00DFFA805889828A83E0A3F208DFFA804C80
:10068F0080D280FA80C680D4806980F28033801057
:10069F0080A680EA809A80A880DA80E280CA8033C0
:1006AF0089828A83ECFAE493A3C8C582C8CCC58338
:1006BF00CCF0A3C8C582C8CCC583CCDFE9DEE78008
:1006CF000D89828A83E493A3F608DFF9ECFAA9F087
:1006DF00EDFB2289828A83ECFAE0A3C8C582C8CCDD
:1006EF00C583CCF0A3C8C582C8CCC583CCDFEADEF6
:1006FF00E880DB89828A83E493A3F208DFF980CC58
:10070F0088F0EF60010E4E60C388F0ED2402B40450
:10071F000050B9F582EB2402B4040050AF232345F7
:06072F00822390068F7387
:10073500BB010689828A83E0225002E722BBFE02C2
:09074500E32289828A83E49322F5
:10074E00BB010CE58229F582E5833AF583E0225060
:10075E0006E92582F8E622BBFE06E92582F8E222AA
:0D076E00E58229F582E5833AF583E49322C4
:10077B00BB010689828A83F0225002F722BBFE015D
:02078B00F32257
:10078D00EF8DF0A4A8F0CF8CF0A428CE8DF0A42E80
:02079D00FE223A
:10079F00A3F8E0C5F025F0F0E5821582700215830D
:0607AF00E0C838F0E8226A
:1007B500BB010A89828A83F0E5F0A3F0225006F78F
:0F07C50009A7F01922BBFE06F3E5F009F319228C
:1007D400EB9FF5F0EA9E42F0E99D42F0EC6480C89C
:0607E40064809845F0223C
:1007EA00EB9FF5F0EA9E42F0E99D42F0E89C45F065
:0107FA0022DC
:1007FB00E8600FECC313FCED13FDEE13FEEF13FFDC
:03080B00D8F122FF
:10080E00E8600FEFC333FFEE33FEED33FDEC33FC48
:03081E00D8F122EC
:0C082100ECF0A3EDF0A3EEF0A3EFF0224A
:10082D00A8828583F0D083D0821208441208441226
:10083D000844120844E473E493A3C583C5F0C5834B
:10084D00C8C582C8F0A3C583C5F0C583C8C582C815
:01085D002278
:10000300E5082458F582E43407F583E005082290D7
:100013000755300703900758E475F0011208A00252
:1000230007352000E97F2ED2008018EF540F24906B
:10003300D43440D4FF30040BEF24BFB41A00500370
:100043002461FFE50960021509050CE50C70020542
:100053000B30070E900755E475F0011208A0EF026C
:10006300077B022C587403D2078003E4C207F50808
:100073009007551208B7E4F509F50BF50CE509608F
:10008300077F2012004680F5750AFFC201C200C235
:1000930002C203C205C206C208120012FF700D306D
:1000A30007057F00120057AF0CAE0B22B4255FC2C9
:1000B300D5C204120012FF24D0B40A00501A75F0FE
:1000C3000A780930D50508B6FF0106C6A426F6202E
:1000D300D5047002D20380D924CFB41A00EF5004A0
:1000E300C2E5D204020258D20180C6D20080C0D237
:1000F3000280BCD2D580BAD20580B47F20120046DC
:100103002002077401B5090040F1120003FF120039
:1001130046020080D208D2068095120003FB12002B
:1001230003FA120003F94A4B700679297A037BFF1D
:1001330020022EE509602A7E008E82758300120755
:100143004E60060EEE650A70F0C2D5EBC0E0EAC061
:10015300E0E9C0E0EE12029FD0E0F9D0E0FAD0E08F
:10016300FB120735FF60AAEBC0E0EAC0E0E9C0E09C
:10017300120046D0E02401F9D0E03400FAD0E0FBCD
:10018300E50A0460DCD50AD980877BFF7A02799B74
:10019300D202809C791080027908C206C2088008C6
:1001A300D2D5790A8004790AC2D5E50A047002F52A
:1001B3000AE4FAFDFEFF120003FC7B082001131280
:1001C3000003FD7B1030000A120003FE120003FF40
:1001D3007B20EC3382D592D55013C3E43000069FC5
:1001E300FFE49EFEE42001039DFDE49CFCE4CBF8C8
:1001F300C201EC700CCFCECDCCE824F8F870F380BC
:1002030017C3EF33FFEE33FEED33FDEC33FCEB337B
:10021300FB994002FB0FD8E9EB300105F8D0E0C4AD
:1002230048B201C0E00AEC4D4E4F78207B0070C20B
:10023300EAB50A0040BCC0E01202A1D0F0D0E02031
:100243000104C4C0E0C4B201C0F012002FD0F0D545
:10025300F0EB0200801208C0011D5301975800EE15
:100263004C00EA42019B4F01A34401A3490103430C
:0802730001A955018D46018D22
:10027B0045018D4703495000F22D00F62E01192B35
:10028B0000FA2301172003322A00B24800000111A3
:10029B003F3F3F00790AA2D5200314300509B9105E
:1002AB00020404B9080104A2D5200602500104205F
:1002BB0002689202B509005034C0E07F2030031968
:1002CB007F30A20272067205500F1202F8C202C2F0
:1002DB0006C205C2087F30800F300503E9C0E0126B
:1002EB000046300503D0E0F9D0E0B509CC30051756
:1002FB007F30B9100C1200467F583004077F78808E
:10030B0003B908031200463002057F2D0200467F19
:10031B00202008F87F2B2006F322920280CF286E34
:10032B00756C6C2900D2011200033001F8C2017800
:10033B000930D50108F60200B22D5043495812007E
:10034B00032403B405004001E490034493120037E7
:0D035B00743A120037D203750904020197AD
:101ED100900752EBF0A3EAF0A3E9F0900755E0FB7D
:101EE100A3E0FAA3E0F9120735FE900752E0FBA345
:101EF100E0FAA3E0F9120735FF6E702AEF600E9049
:101F0100075874FFF5F012088A45F070037F00222C
:101F1100900753E475F00112088A900756E475F0B2
:101F21000112088A80B5900752E0FBA3E0FAA3E012
:101F3100F9120735FDD3EE6480F8ED648098400313
:101F41007F0122900755E0FBA3E0FAA3E0F9120715
:071F510035FFC3ED9FFF22E5
:102EB700E4FFFE120735600C0FEF70010E09E97091
:052EC700F20A80EF2279
:10085E00EF4E6012EF60010EEDBB010B89828A83B1
:10086E00F0A3DFFCDEFA2289F05007F709DFFCA9BE
:0C087E00F022BBFEFCF309DFFCA9F02215
:101E5100022FDDE493A3F8E493A34003F68001F29B
:101E610008DFF48029E493A3F85407240CC8C33392
:101E7100C4540F4420C8834004F456800146F6DF61
:101E8100E4800B0102040810204080902952E47E76
:101E9100019360BCA3FF543F30E509541FFEE49356
:101EA100A360010ECF54C025E060A840B8E493A31D
:101EB100FAE493A3F8E493A3C8C582C8CAC583CA48
:101EC100F0A3C8C582C8CAC583CADFE9DEE780BE00
:01298E000048
:10088A00C5F0F8A3E028F0C5F0F8E58215827002F9
:06089A001583E038F02296
:1008A000F8E0FBA3A3E0F925F0F0E58215827002E1
:0708B0001583E0FA38F02285
:0908B700EBF0A3EAF0A3E9F02242
:1008C000D083D082F8E4937012740193700DA3A3C7
:1008D00093F8740193F5828883E4737402936860DB
:0608E000EFA3A3A380DFDB
:102C5800EFB40A07740D122C63740A309811A899FE
:102C6800B8130CC2983098FDA899C298B811F630DC
:072C780099FDC299F59922B4
:00000001FF
