:100B280044021CC0A8010A44024CC0A801014402A6
:100B380047FFFFFF00440243C0A8016441024BE2A3
:070D70007FFA120D777FFAF4
:070D7700AE071FEE70FA2227
:100CD200AD07AF051DEF6008120D70120D7080F2A6
:010CE20022EF
:090DCF00D29475D55C43AA0822F8
:0D0D8C008F86E5AA30E7FB53AA7FAF8622D1
:030D2500E4FCFBF0
:0C0D2800D294C294120D8C7F02020D7751
:10091C00900250E0FBA3E475F001120124A9F0FA57
:10092C001200F9FF120947900250E0FBA3E475F0A6
:0B093C0001120124A9F0FA1200F9FFDB
:03094700020D8C12
:080D7E00120D28AF0512094710
:050D86007FFF120D8C3F
:010D8B002245
:080DD8007F05120D28D29422C0
:080DE0007F03120D28D29422BA
:0A0D99007F01120D28120D86D2947E
:010DA300222D
:020DC500AD0778
:070DC7007F06120D7ED2949D
:010DCE002202
:0F0D3400AD077F20120D28AF05120947D2942278
:0A0DA4007F26120D28120D86D2944E
:010DAE002222
:0A0DAF007F29120D28120D86D29440
:010DB9002217
:10094A00E4900250F0FD7F27120D28D2947F0A12FC
:10095A000CD2120D0AAD07EDB41010900250E0FF50
:0D096A0004F0EFD394C840E57FFA22AF05FA
:01097700225D
:1007E70090029B1201767F02120D2890029BA3A311
:1007F700A3E0FF12094790029BA3A3E0FEEEFF12BE
:10080700094790029BE0FCA3E0FDA3E0FEA3E0FF05
:0B0817007810120150120947D2942201
:050D05007F05120CD275
:0A0D0A007F2C120D28120D86D294E2
:010D140022BC
:0B0B4900900250EBF0A3EAF0A3E9F0EB
:100B54007F22120D28E4FE9002501209360EEEB4E4
:040B640004F5D2942E
:010B6800226A
:0B0B6900900250EBF0A3EAF0A3E9F0CB
:100B74007F23120D28E4FE9002501209360EEEB4C3
:040B840004F5D2940E
:010B8800224A
:0B0B8900900250EBF0A3EAF0A3E9F0AB
:100B94007F24120D28E4FE9002501209360EEEB4A2
:040BA40004F5D294EE
:010BA800222A
:0B0AE3009002A3EBF0A3EAF0A3E9F0FF
:100AEE007F21120D28E4FE9002A31209360EEEB4F9
:090AFE0006F5D2947F64020CD2CB
:0B085A009002A6EBF0A3EAF0A3E9F087
:100865007F40120D28E4FE120D869002A6E0FBA340
:10087500E475F001120124A9F0FAEF1201120EEE4F
:05088500B406E4D2946A
:01088A00224B
:1003E900AD077F25120D28AF05120947900287A393
:1003F900A3A3E0FF120947900287A3A3E0FEEEFF43
:10040900120947900287E0FCA3E0FDA3E0FEA3E008
:10041900FF7810120150120947900287E0FCA3E00F
:10042900FDA3E0FEA3E0FF7818120150120947A3CB
:10043900A3A3A3E0FF12094790028BA3A3E0FEEE5A
:10044900FF12094790028BE0FCA3E0FDA3E0FEA3A5
:10045900E0FF781012015012094790028BE0FCA3CB
:10046900E0FDA3E0FEA3E0FF78181201501209474E
:03047900D29422F8
:0B088B0090025CEBF0A3EAF0A3E9F0A0
:100896007F28120D28E4FE120D8690025CE0FBA371
:1008A600E475F001120124A9F0FAEF1201120EEE1E
:0508B600B408E4D29437
:0108BB00221A
:0D0822009002A9EBF0A3EAF0A3E9F0AD0706
:10082F007F2D120D28AF05120947E4FE120D869099
:10083F0002A9E0FBA3E475F001120124A9F0FAEF7D
:0A084F001201120EEEB406E4D2947A
:01085900227C
:100BA900900250EBF0A3EAF0A3E9F0AD077F311210
:100BB9000D28AF0512094712091C12091CD29422EB
:100C8400AC077F34120D28AF04120947AF051209CF
:040C940047D294228D
:100BE400AB077F32120D28AF03120947AF05120974
:090BF40047ECFF120947D29422DC
:100BFD00AB077F33120D28AF03120947AF0512095A
:090C0D0047ECFF120947D29422C2
:100C9800AC077F3E120D28AF04120947AF051209B1
:040CA80047D2942279
:0F0D4300AD077F3F120D28AF05120947D294224A
:0D076100900260EBF0A3EAF0A3E9F0AD0711
:10076E007F39120D28AF05120947A3A3E0FF120926
:10077E0047900263E0FF120947E4FDFCD390026448
:10078E00E09D900263E09C400D9002601209360DD0
:08079E00BD00010C80E6D294BD
:0107A6002230
:020BC900AD0776
:100BCB007F3B120D7EAD077C00120D86EFFEE42DF0
:080BDB00FDEC3ED294FEAF05D3
:010BE30022EF
:0F0D5200AD077F2E120D28AF05120947D294224C
:0B05800090025FEFF0A3ECF0A3EDF0A1
:10058B004C60487F3C120D2890025FE0FF12094738
:10059B00A3A3E0FF120947900260E0FF1209477F17
:1005AB0001120D77E4FDFCD3900261E09D90026097
:1005BB00E09C4015120D86EF120112740129F9E42B
:0B05CB003AFA0DBD00010C80DED29456
:0105D6002202
:0F0D6100AD077F2A120D28AF05120947D2942241
:100C2D00AD07AC067F2A120D28AF05120947ECFF60
:060C3D00120947D29422C7
:1007A7009002ACEBF0A3EAF0A3E9F0AD077F2F12BC
:1007B7000D7E9002ACE0FBA3E475F001120124A9C1
:1007C700F0FAEF120112120D869002ACE0FBA3E4DF
:1007D70075F001120124A9F0FAEF120112D2942246
:020A9700AD07A9
:100A99007F35120D25AF05120947D294120D05AB0A
:100AA90007EBB4100CAF040CEFD394C840EE7FFAF7
:030AB90022AF0366
:010ABC002217
:020ABD00AD0783
:100ABF007F3D120D25AF05120947D294120D05ABDC
:100ACF0007EBB4100CAF040CEFD394C840EE7FFAD1
:030ADF0022AF0340
:010AE20022F1
:0209A400AD079D
:1009A600E4FCFB7F37120D28AF05120947D29412DB
:1009B6000D05AB07EBB4100CAF040CEFD394C84095
:0609C600EE7FFA22AF03F0
:0109CC002208
:0209CD00AD0774
:1009CF00E4FCFB7F36120D28AF05120947D29412B3
:1009DF000D05AB07EBB4100CAF040CEFD394C8406C
:0609EF00EE7FFA22AF03C7
:0109F50022DF
:0209F600AD074B
:1009F800E4FCFB7F38120D28AF05120947D2941288
:100A08000D05AB07EBB4100CAF040CEFD394C84042
:060A1800EE7FFA22AF039D
:010A1E0022B5
:020C1600AD0728
:100C18007F30120D28AF051209477F02120D771297
:040C28000D86D294CF
:010C2C0022A5
:0B01DF00900265EBF0A3EAF0A3E9F04A
:1001EA0090027012018204C11DB79002741201823A
:1001FA00FFFFFFFF90026812018200000000E47F07
:10020A0006FEFDFC900268E0F8A3E0F9A3E0FAA379
:10021A00E0FBC312013A4003020332900265E0FB9D
:10022A00A3E475F001120124A9F0FA1200F9900270
:10023A0078F090026C12018200000000E47F08FE50
:10024A00FDFC90026CE0F8A3E0F9A3E0FAA3E0FB5E
:10025A00C312013A400302030A900274E0FCA3E0CD
:10026A00FDA3E0FEA3E0FF781F120150A905AA062C
:10027A00AB07A3E0FFEB6FFFEF5401FFEF601890AD
:10028A000270E0FCA3E0FDA3E0FEA3E0FFC004C00F
:10029A0005C006C007800DE4FBFAF9F8C000C001EA
:1002AA00C002C003900274E0FCA3E0FDA3E0FEA339
:1002BA00E0FF7801120163D003D002D001D000EF31
:1002CA006BFFEE6AFEED69FDEC68FC9002741201A8
:1002DA0076900278E0C313F090026CE0FCA3E0FD94
:1002EA00A3E0FEA3E0FFE4FAF9F8EF2401FFEA3EF7
:1002FA00FEE93DFDE83CFC90026C120176020246E2
:10030A00900268E0FCA3E0FDA3E0FEA3E0FFE4FAAC
:10031A00F9F8EF2401FFEA3EFEE93DFDE83CFC90D6
:10032A000268120176020208900274E0FCA3E0FD62
:10033A00A3E0FEA3E0FF781A1201509002741201A2
:09034A0076900274A3A3A3E0FF66
:010353002287
:020A1F00AD0721
:100A2100E4FC7F41120D28AF05120947D2947F14CF
:100A3100120CD2120D0AEFB4100CAE040CEED394CA
:060A4100C840EB7FFA2221
:010A4700228C
:0A0DBA007F42120D28120D86D2941C
:010DC400220C
:0B08BC009002AFEBF0A3EAF0A3E9F01C
:1008C7007F43120D28E4FE120D869002AFE0FBA3D2
:1008D700E475F001120124A9F0FAEF1201120EEEED
:0508E700B414E4D294FA
:0108EC0022E9
:100CE300AC077FED120D28AF04120947AF050209C7
:010CF30047B9
:020C6F00AD07CF
:100C71007FEC120D28AF051209477F01120CD21229
:020C81000D86DE
:010C8300224E
:100CAC007FE9120D287F14120CD2120D0AEF64107A
:020CBC0060F3E3
:010CBE002213
:0F062B00900291EBF0A3EAF0A3E9F0AD07AC0663
:10063A007FEA120D28AF05120947ECFF120947A3FA
:10064A00E0801D900294E0FF14F0EF60199002918F
:10065A00E0FBA3E475F001120124A9F0FA1200F9F3
:10066A00FF12094780DD7F14120CD2120D0AEF64C3
:03067A001060F31A
:01067D00225A
:1006CC00900297EBF0A3EAF0A3E9F0AD07AC067F3C
:1006DC00EB120D28AF05120947ECFF120947A3E0F6
:1006EC00FF1209477F01120CD290029AE0FF14F01E
:1006FC00EF6019120D86900297E0FBA3E475F001F0
:0D070C00120124A9F0FAEF12011280DD2283
:100CBF00AD07AC067F50120D28AF05120947ECFFA8
:030CCF00020947D0
:100C4300AC077F52120D28AF04120947AF051209F2
:060C530047AF0302094750
:100C5900AC077F53120D28AF04120947AF051209DB
:060C690047AF030209473A
:1005D700900279EBF0A3EAF0A3E9F0A31201769079
:1005E7000285E0FF900280E0FBA3E0FAA3E0F912A6
:1005F7000BA9900285E0FF900283E0FCA3E0FD12C7
:100607000BE4900279E0FBA3E0FAA3E0F9A3A3A32C
:10061700E0FFA3E0900263CFF0A3EFF0900285E044
:04062700FF02076166
:10067E0090029F1201767F55120D2890029FA3A320
:10068E00A3E0FF12094790029FA3A3E0FEEEFF1224
:10069E00094790029FE0FCA3E0FDA3E0FEA3E0FF6C
:1006AE00781012015012094790029FE0FCA3E0FD62
:0E06BE00A3E0FEA3E0FF7818120150020947E6
:100B07007F19120D287F02120D77120D86AD077C13
:100B170000120D86EFFEE42DFDEC3ED294FEAF05EC
:010B270022AB
:100D1500EF600C7FC8120CD27FC8120CD280F4226F
:100719007E007F237D007B017A0279201201B37864
:10072900207C027D017B017A02791C7E007F041204
:1007390000D378247C027D017B017A02794C7E000A
:100749007F041200D378287C027D017B017A02792B
:08075900477E007F040200D37B
:100A48007E007F1C7D007B017A0279001201B37859
:100A5800007C027D017B017A0279437E007F0412CB
:080A680000D3E490020AF02221
:100A70007B017A027900E4FF120BA990020AE0FDE3
:100A8000E4FF120C8490024BE0FDE4FF120C98E4AA
:070A9000FF120A97020D1589
:0503540090025CEFF0D7
:10035900120C16EF20E2030203E890025CE0FF12A0
:100369000BC9A3EEF0A3EFF04E6074D390025EE0E8
:10037900940090025DE0940240067402F0A3E4F058
:1003890090025CE0FFA3E0FCA3E0FD7B017A007929
:1003990000120580E4FFFED390025EE09F90025DAB
:1003A900E09E402074002FF58274003EF583E0F44E
:1003B900FD74002FF58274003EF583EDF00FBF0048
:1003C900010E80D390025CE0FF7B017A007900A3E3
:0F03D900E0FDA3E0900263CDF0A3EDF012076109
:0103E80022F2
:10050800120B07900250EEF0A3EFF030E0097B01E8
:100518007A02795212088B900251E030E405E4FF28
:10052800120354900251E030E5057F011203549004
:100538000251E030E6057F02120354900251E03088
:10054800E7057F03120354900250E030E0057F0472
:10055800120354900250E030E1057F0512035490D5
:100568000250E030E2057F06120354900250E0305A
:07057800E3057F07120354A5
:01057F002259
:100978007F65120DC5EF649A60037FFA227B017AC6
:10098800027920120B497B017A027924120B697BC8
:0B099800017A027928120B8912094A2B
:0109A3002231
:100CF400759850758780758921758DF3D28ED29938
:010D040022CC
:1008ED007F64120CD2120CF4120DCF1207191209DB
:1008FD0078120D15120DA4BF01077FC8120CD280FE
:0F090D00F3120A48120A7020B3FD12050880F891
:0300000002047C7B
:0C047C00787FE4F6D8FD7581070204C308
:10000300E709F608DFFA8046E709F208DFFA803EDF
:1000130088828C83E709F0A3DFFA8032E309F608CC
:10002300DFFA8078E309F208DFFA807088828C8334
:10003300E309F0A3DFFA806489828A83E0A3F608E8
:10004300DFFA805889828A83E0A3F208DFFA804CC2
:1000530080D280FA80C680D4806980F28033801099
:1000630080A680EA809A80A880DA80E280CA803302
:1000730089828A83ECFAE493A3C8C582C8CCC5837A
:10008300CCF0A3C8C582C8CCC583CCDFE9DEE7804A
:100093000D89828A83E493A3F608DFF9ECFAA9F0C9
:1000A300EDFB2289828A83ECFAE0A3C8C582C8CC1F
:1000B300C583CCF0A3C8C582C8CCC583CCDFEADE38
:1000C300E880DB89828A83E493A3F208DFF980CC9A
:1000D30088F0EF60010E4E60C388F0ED2402B40493
:1000E3000050B9F582EB2402B4040050AF2323453A
:0600F3008223900053730C
:1000F900BB010689828A83E0225002E722BBFE0205
:09010900E32289828A83E4932237
:10011200BB010689828A83F0225002F722BBFE01CC
:02012200F322C6
:10012400A3F8E0C5F025F0F0E5821582700215838E
:06013400E0C838F0E822EB
:10013A00EB9FF5F0EA9E42F0E99D42F0EC6480C83C
:06014A0064809845F022DC
:10015000E8600FECC313FCED13FDEE13FEEF13FF8D
:03016000D8F122B1
:10016300E8600FEFC333FFEE33FEED33FDEC33FCFA
:03017300D8F1229E
:0C017600ECF0A3EDF0A3EEF0A3EFF022FC
:10018200A8828583F0D083D082120199120199123C
:100192000199120199E473E493A3C583C5F0C58361
:1001A200C8C582C8F0A3C583C5F0C583C8C582C8C7
:0101B200222A
:1001B300EF4E6012EF60010EEDBB010B89828A8363
:1001C300F0A3DFFCDEFA2289F05007F709DFFCA970
:0C01D300F022BBFEFCF309DFFCA9F022C7
:100488000208EDE493A3F8E493A34003F68001F295
:1004980008DFF48029E493A3F85407240CC8C33375
:1004A800C4540F4420C8834004F456800146F6DF44
:1004B800E4800B0102040810204080900B28E47EA1
:1004C800019360BCA3FF543F30E509541FFEE49339
:1004D800A360010ECF54C025E060A840B8E493A300
:1004E800FAE493A3F8E493A3C8C582C8CAC583CA2B
:1004F800F0A3C8C582C8CAC583CADFE9DEE780BEE3
:010B480000AC
:00000001FF
